{"contracts/SSS.sol":{"SSS":{"abi":[{"inputs":[],"stateMutability":"nonpayable","type":"constructor"},{"inputs":[{"internalType":"address","name":"target","type":"address"}],"name":"AddressEmptyCode","type":"error"},{"inputs":[{"internalType":"address","name":"account","type":"address"}],"name":"AddressInsufficientBalance","type":"error"},{"inputs":[],"name":"ECDSAInvalidSignature","type":"error"},{"inputs":[{"internalType":"uint256","name":"length","type":"uint256"}],"name":"ECDSAInvalidSignatureLength","type":"error"},{"inputs":[{"internalType":"bytes32","name":"s","type":"bytes32"}],"name":"ECDSAInvalidSignatureS","type":"error"},{"inputs":[{"internalType":"address","name":"spender","type":"address"},{"internalType":"uint256","name":"allowance","type":"uint256"},{"internalType":"uint256","name":"needed","type":"uint256"}],"name":"ERC20InsufficientAllowance","type":"error"},{"inputs":[{"internalType":"address","name":"sender","type":"address"},{"internalType":"uint256","name":"balance","type":"uint256"},{"internalType":"uint256","name":"needed","type":"uint256"}],"name":"ERC20InsufficientBalance","type":"error"},{"inputs":[{"internalType":"address","name":"approver","type":"address"}],"name":"ERC20InvalidApprover","type":"error"},{"inputs":[{"internalType":"address","name":"receiver","type":"address"}],"name":"ERC20InvalidReceiver","type":"error"},{"inputs":[{"internalType":"address","name":"sender","type":"address"}],"name":"ERC20InvalidSender","type":"error"},{"inputs":[{"internalType":"address","name":"spender","type":"address"}],"name":"ERC20InvalidSpender","type":"error"},{"inputs":[{"internalType":"uint256","name":"deadline","type":"uint256"}],"name":"ERC2612ExpiredSignature","type":"error"},{"inputs":[{"internalType":"address","name":"signer","type":"address"},{"internalType":"address","name":"owner","type":"address"}],"name":"ERC2612InvalidSigner","type":"error"},{"inputs":[],"name":"FailedInnerCall","type":"error"},{"inputs":[{"internalType":"address","name":"account","type":"address"},{"internalType":"uint256","name":"currentNonce","type":"uint256"}],"name":"InvalidAccountNonce","type":"error"},{"inputs":[],"name":"InvalidShortString","type":"error"},{"inputs":[{"internalType":"address","name":"owner","type":"address"}],"name":"OwnableInvalidOwner","type":"error"},{"inputs":[{"internalType":"address","name":"account","type":"address"}],"name":"OwnableUnauthorizedAccount","type":"error"},{"inputs":[{"internalType":"address","name":"token","type":"address"}],"name":"SafeERC20FailedOperation","type":"error"},{"inputs":[{"internalType":"string","name":"str","type":"string"}],"name":"StringTooLong","type":"error"},{"anonymous":false,"inputs":[{"indexed":true,"internalType":"address","name":"owner","type":"address"},{"indexed":true,"internalType":"address","name":"spender","type":"address"},{"indexed":false,"internalType":"uint256","name":"value","type":"uint256"}],"name":"Approval","type":"event"},{"anonymous":false,"inputs":[{"indexed":false,"internalType":"address","name":"recipient","type":"address"},{"indexed":false,"internalType":"uint256","name":"amount","type":"uint256"}],"name":"ClaimGasFee","type":"event"},{"anonymous":false,"inputs":[],"name":"EIP712DomainChanged","type":"event"},{"anonymous":false,"inputs":[{"indexed":true,"internalType":"address","name":"previousOwner","type":"address"},{"indexed":true,"internalType":"address","name":"newOwner","type":"address"}],"name":"OwnershipTransferred","type":"event"},{"anonymous":false,"inputs":[{"indexed":false,"internalType":"address","name":"account","type":"address"},{"indexed":false,"internalType":"bool","name":"exclude","type":"bool"}],"name":"SetExcludeFromTax","type":"event"},{"anonymous":false,"inputs":[{"indexed":false,"internalType":"address","name":"pool","type":"address"},{"indexed":false,"internalType":"bool","name":"isPool","type":"bool"}],"name":"SetLiquidityPool","type":"event"},{"anonymous":false,"inputs":[{"indexed":false,"internalType":"address","name":"addr","type":"address"},{"indexed":false,"internalType":"bool","name":"isUnlimited","type":"bool"}],"name":"SetUnlimited","type":"event"},{"anonymous":false,"inputs":[{"indexed":true,"internalType":"address","name":"from","type":"address"},{"indexed":true,"internalType":"address","name":"to","type":"address"},{"indexed":false,"internalType":"uint256","name":"value","type":"uint256"}],"name":"Transfer","type":"event"},{"inputs":[],"name":"ANTI_BOT_DETECT_DURATION","outputs":[{"internalType":"uint256","name":"","type":"uint256"}],"stateMutability":"view","type":"function"},{"inputs":[],"name":"ANTI_BOT_LOCK_DURATION","outputs":[{"internalType":"uint256","name":"","type":"uint256"}],"stateMutability":"view","type":"function"},{"inputs":[],"name":"DOMAIN_SEPARATOR","outputs":[{"internalType":"bytes32","name":"","type":"bytes32"}],"stateMutability":"view","type":"function"},{"inputs":[{"internalType":"uint256","name":"ethAmount","type":"uint256"},{"internalType":"uint256","name":"tokenAmount","type":"uint256"}],"name":"addLiquidity","outputs":[],"stateMutability":"nonpayable","type":"function"},{"inputs":[{"internalType":"address","name":"owner","type":"address"},{"internalType":"address","name":"spender","type":"address"}],"name":"allowance","outputs":[{"internalType":"uint256","name":"","type":"uint256"}],"stateMutability":"view","type":"function"},{"inputs":[{"internalType":"address","name":"spender","type":"address"},{"internalType":"uint256","name":"value","type":"uint256"}],"name":"approve","outputs":[{"internalType":"bool","name":"","type":"bool"}],"stateMutability":"nonpayable","type":"function"},{"inputs":[{"internalType":"address","name":"account","type":"address"}],"name":"balanceOf","outputs":[{"internalType":"uint256","name":"","type":"uint256"}],"stateMutability":"view","type":"function"},{"inputs":[],"name":"blastGasModeContract","outputs":[{"internalType":"contract IBlast","name":"","type":"address"}],"stateMutability":"view","type":"function"},{"inputs":[{"internalType":"address","name":"","type":"address"}],"name":"botBuyTimes","outputs":[{"internalType":"uint256","name":"","type":"uint256"}],"stateMutability":"view","type":"function"},{"inputs":[{"internalType":"uint256","name":"value","type":"uint256"}],"name":"burn","outputs":[],"stateMutability":"nonpayable","type":"function"},{"inputs":[{"internalType":"address","name":"account","type":"address"},{"internalType":"uint256","name":"value","type":"uint256"}],"name":"burnFrom","outputs":[],"stateMutability":"nonpayable","type":"function"},{"inputs":[],"name":"buyTaxPercent","outputs":[{"internalType":"uint256","name":"","type":"uint256"}],"stateMutability":"view","type":"function"},{"inputs":[{"internalType":"uint256","name":"buyTax","type":"uint256"},{"internalType":"uint256","name":"sellTax","type":"uint256"},{"internalType":"uint256","name":"dev","type":"uint256"},{"internalType":"uint256","name":"community","type":"uint256"}],"name":"changeTaxPercent","outputs":[],"stateMutability":"nonpayable","type":"function"},{"inputs":[],"name":"claimCommunityTax","outputs":[{"internalType":"uint256","name":"amount","type":"uint256"}],"stateMutability":"nonpayable","type":"function"},{"inputs":[],"name":"claimDevTax","outputs":[{"internalType":"uint256","name":"amount","type":"uint256"}],"stateMutability":"nonpayable","type":"function"},{"inputs":[],"name":"claimDevToken","outputs":[{"internalType":"uint256","name":"amount","type":"uint256"}],"stateMutability":"nonpayable","type":"function"},{"inputs":[{"internalType":"address","name":"recipient","type":"address"}],"name":"claimGasFee","outputs":[],"stateMutability":"nonpayable","type":"function"},{"inputs":[],"name":"communityAddress","outputs":[{"internalType":"address","name":"","type":"address"}],"stateMutability":"view","type":"function"},{"inputs":[],"name":"communityPercent","outputs":[{"internalType":"uint256","name":"","type":"uint256"}],"stateMutability":"view","type":"function"},{"inputs":[],"name":"communityTaxTokenAmountAvailable","outputs":[{"internalType":"uint256","name":"","type":"uint256"}],"stateMutability":"view","type":"function"},{"inputs":[{"internalType":"address","name":"blastPointAddress","type":"address"},{"internalType":"address","name":"operator","type":"address"}],"name":"configBlastPointsOperator","outputs":[],"stateMutability":"nonpayable","type":"function"},{"inputs":[],"name":"decimals","outputs":[{"internalType":"uint8","name":"","type":"uint8"}],"stateMutability":"view","type":"function"},{"inputs":[],"name":"devPercent","outputs":[{"internalType":"uint256","name":"","type":"uint256"}],"stateMutability":"view","type":"function"},{"inputs":[],"name":"devTaxReceiverAddress","outputs":[{"internalType":"address","name":"","type":"address"}],"stateMutability":"view","type":"function"},{"inputs":[],"name":"devTaxTokenAmountAvailable","outputs":[{"internalType":"uint256","name":"","type":"uint256"}],"stateMutability":"view","type":"function"},{"inputs":[],"name":"devTokenAmountClaimable","outputs":[{"internalType":"uint256","name":"","type":"uint256"}],"stateMutability":"view","type":"function"},{"inputs":[],"name":"devTokenAmountRemain","outputs":[{"internalType":"uint256","name":"","type":"uint256"}],"stateMutability":"view","type":"function"},{"inputs":[],"name":"devTokenReceiverAddress","outputs":[{"internalType":"address","name":"","type":"address"}],"stateMutability":"view","type":"function"},{"inputs":[],"name":"eip712Domain","outputs":[{"internalType":"bytes1","name":"fields","type":"bytes1"},{"internalType":"string","name":"name","type":"string"},{"internalType":"string","name":"version","type":"string"},{"internalType":"uint256","name":"chainId","type":"uint256"},{"internalType":"address","name":"verifyingContract","type":"address"},{"internalType":"bytes32","name":"salt","type":"bytes32"},{"internalType":"uint256[]","name":"extensions","type":"uint256[]"}],"stateMutability":"view","type":"function"},{"inputs":[{"internalType":"address","name":"","type":"address"}],"name":"excludeFromTaxes","outputs":[{"internalType":"bool","name":"","type":"bool"}],"stateMutability":"view","type":"function"},{"inputs":[{"internalType":"uint256","name":"ethAmount","type":"uint256"},{"internalType":"uint256","name":"tokenAmount","type":"uint256"}],"name":"initPool","outputs":[],"stateMutability":"nonpayable","type":"function"},{"inputs":[],"name":"limitEnabled","outputs":[{"internalType":"bool","name":"","type":"bool"}],"stateMutability":"view","type":"function"},{"inputs":[{"internalType":"address","name":"","type":"address"}],"name":"liquidityPools","outputs":[{"internalType":"bool","name":"","type":"bool"}],"stateMutability":"view","type":"function"},{"inputs":[],"name":"maxAmountPerAccount","outputs":[{"internalType":"uint256","name":"","type":"uint256"}],"stateMutability":"view","type":"function"},{"inputs":[],"name":"maxAmountPerTx","outputs":[{"internalType":"uint256","name":"","type":"uint256"}],"stateMutability":"view","type":"function"},{"inputs":[],"name":"name","outputs":[{"internalType":"string","name":"","type":"string"}],"stateMutability":"view","type":"function"},{"inputs":[{"internalType":"address","name":"owner","type":"address"}],"name":"nonces","outputs":[{"internalType":"uint256","name":"","type":"uint256"}],"stateMutability":"view","type":"function"},{"inputs":[],"name":"owner","outputs":[{"internalType":"address","name":"","type":"address"}],"stateMutability":"view","type":"function"},{"inputs":[{"internalType":"address","name":"owner","type":"address"},{"internalType":"address","name":"spender","type":"address"},{"internalType":"uint256","name":"value","type":"uint256"},{"internalType":"uint256","name":"deadline","type":"uint256"},{"internalType":"uint8","name":"v","type":"uint8"},{"internalType":"bytes32","name":"r","type":"bytes32"},{"internalType":"bytes32","name":"s","type":"bytes32"}],"name":"permit","outputs":[],"stateMutability":"nonpayable","type":"function"},{"inputs":[],"name":"renounceOwnership","outputs":[],"stateMutability":"nonpayable","type":"function"},{"inputs":[{"internalType":"uint256","name":"amount","type":"uint256"}],"name":"rescueETH","outputs":[{"internalType":"bool","name":"success","type":"bool"}],"stateMutability":"nonpayable","type":"function"},{"inputs":[{"internalType":"address","name":"tokenAddress","type":"address"},{"internalType":"address","name":"to","type":"address"},{"internalType":"uint256","name":"amount","type":"uint256"}],"name":"rescueToken","outputs":[],"stateMutability":"nonpayable","type":"function"},{"inputs":[],"name":"sellTaxPercent","outputs":[{"internalType":"uint256","name":"","type":"uint256"}],"stateMutability":"view","type":"function"},{"inputs":[{"internalType":"address","name":"community","type":"address"}],"name":"setCommunityAddress","outputs":[],"stateMutability":"nonpayable","type":"function"},{"inputs":[{"internalType":"address","name":"devTaxReceiver","type":"address"},{"internalType":"address","name":"devTokenReceiver","type":"address"}],"name":"setDevAddress","outputs":[],"stateMutability":"nonpayable","type":"function"},{"inputs":[{"internalType":"address","name":"account","type":"address"},{"internalType":"bool","name":"exclude","type":"bool"}],"name":"setExcludeFromTax","outputs":[],"stateMutability":"nonpayable","type":"function"},{"inputs":[{"internalType":"uint256","name":"_maxAmountPerTx","type":"uint256"},{"internalType":"uint256","name":"_maxAmountPerAccount","type":"uint256"}],"name":"setLimitConfig","outputs":[],"stateMutability":"nonpayable","type":"function"},{"inputs":[{"internalType":"bool","name":"enabled","type":"bool"}],"name":"setLimitEnabled","outputs":[],"stateMutability":"nonpayable","type":"function"},{"inputs":[{"internalType":"address","name":"pool","type":"address"},{"internalType":"bool","name":"isPool","type":"bool"}],"name":"setLiquidityPool","outputs":[],"stateMutability":"nonpayable","type":"function"},{"inputs":[{"internalType":"address","name":"addr","type":"address"},{"internalType":"bool","name":"_isUnlimited","type":"bool"}],"name":"setUnlimited","outputs":[],"stateMutability":"nonpayable","type":"function"},{"inputs":[],"name":"startPoolTime","outputs":[{"internalType":"uint256","name":"","type":"uint256"}],"stateMutability":"view","type":"function"},{"inputs":[],"name":"symbol","outputs":[{"internalType":"string","name":"","type":"string"}],"stateMutability":"view","type":"function"},{"inputs":[],"name":"totalSupply","outputs":[{"internalType":"uint256","name":"","type":"uint256"}],"stateMutability":"view","type":"function"},{"inputs":[],"name":"tradeVolume","outputs":[{"internalType":"uint256","name":"","type":"uint256"}],"stateMutability":"view","type":"function"},{"inputs":[{"internalType":"address","name":"to","type":"address"},{"internalType":"uint256","name":"value","type":"uint256"}],"name":"transfer","outputs":[{"internalType":"bool","name":"","type":"bool"}],"stateMutability":"nonpayable","type":"function"},{"inputs":[{"internalType":"address","name":"from","type":"address"},{"internalType":"address","name":"to","type":"address"},{"internalType":"uint256","name":"value","type":"uint256"}],"name":"transferFrom","outputs":[{"internalType":"bool","name":"","type":"bool"}],"stateMutability":"nonpayable","type":"function"},{"inputs":[{"internalType":"address","name":"newOwner","type":"address"}],"name":"transferOwnership","outputs":[],"stateMutability":"nonpayable","type":"function"},{"inputs":[],"name":"uniswapV2Pair","outputs":[{"internalType":"address","name":"","type":"address"}],"stateMutability":"view","type":"function"},{"inputs":[],"name":"uniswapV2Router","outputs":[{"internalType":"contract IUniswapV2Router02","name":"","type":"address"}],"stateMutability":"view","type":"function"},{"inputs":[{"internalType":"address","name":"","type":"address"}],"name":"unlimiteds","outputs":[{"internalType":"bool","name":"","type":"bool"}],"stateMutability":"view","type":"function"},{"stateMutability":"payable","type":"receive"}],"evm":{"bytecode":{"linkReferences":{},"object":"61020060405260c8600c5560c8600d556107d0600e55611f40600f55606460056d1b6418d0c06e3443e9854dac00006200003a919062001289565b62000046919062001303565b60135560006014556001601560006101000a81548160ff02191690831515021790555061271060056d1b6418d0c06e3443e9854dac000062000089919062001289565b62000095919062001303565b60165561271060056d1b6418d0c06e3443e9854dac0000620000b8919062001289565b620000c4919062001303565b601755348015620000d457600080fd5b506040518060400160405280600381526020017f53535300000000000000000000000000000000000000000000000000000000008152506040518060400160405280600381526020017f5353530000000000000000000000000000000000000000000000000000000000815250816040518060400160405280600181526020017f310000000000000000000000000000000000000000000000000000000000000081525033600073ffffffffffffffffffffffffffffffffffffffff168173ffffffffffffffffffffffffffffffffffffffff1603620001ee5760006040517f1e4fbdf7000000000000000000000000000000000000000000000000000000008152600401620001e5919062001380565b60405180910390fd5b620001ff81620002f660201b60201c565b5062000216600183620003ba60201b90919060201c565b610120818152505062000234600282620003ba60201b90919060201c565b6101408181525050818051906020012060e08181525050808051906020012061010081815250504660a08181525050620002736200041260201b60201c565b608081815250503073ffffffffffffffffffffffffffffffffffffffff1660c08173ffffffffffffffffffffffffffffffffffffffff168152505050508160079081620002c191906200160d565b508060089081620002d391906200160d565b505050620002f033678ac7230489e800006200046f60201b60201c565b62001af8565b60008060009054906101000a900473ffffffffffffffffffffffffffffffffffffffff169050816000806101000a81548173ffffffffffffffffffffffffffffffffffffffff021916908373ffffffffffffffffffffffffffffffffffffffff1602179055508173ffffffffffffffffffffffffffffffffffffffff168173ffffffffffffffffffffffffffffffffffffffff167f8be0079c531659141344cd1fd0a4f28419497f9722a3daafe3b4186f6b6457e060405160405180910390a35050565b6000602083511015620003e057620003d883620004fc60201b60201c565b90506200040c565b82620003f2836200056960201b60201c565b60000190816200040391906200160d565b5060ff60001b90505b92915050565b60007f8b73c3c69bb8fe3d512ecc4cf759cc79239f7b179b0ffacaa9a75d522b39400f60e0516101005146306040516020016200045495949392919062001720565b60405160208183030381529060405280519060200120905090565b600073ffffffffffffffffffffffffffffffffffffffff168273ffffffffffffffffffffffffffffffffffffffff1603620004e45760006040517fec442f05000000000000000000000000000000000000000000000000000000008152600401620004db919062001380565b60405180910390fd5b620004f8600083836200057360201b60201c565b5050565b600080829050601f815111156200054c57826040517f305a27a90000000000000000000000000000000000000000000000000000000081526004016200054391906200180c565b60405180910390fd5b8051816200055a9062001862565b60001c1760001b915050919050565b6000819050919050565b600073ffffffffffffffffffffffffffffffffffffffff168373ffffffffffffffffffffffffffffffffffffffff161480620005db5750600073ffffffffffffffffffffffffffffffffffffffff168273ffffffffffffffffffffffffffffffffffffffff16145b8062000614575061dead73ffffffffffffffffffffffffffffffffffffffff168273ffffffffffffffffffffffffffffffffffffffff16145b1562000633576200062d838383620007af60201b60201c565b620007aa565b620006458383620009e260201b60201c565b60006200065a84848462000b5e60201b60201c565b905060006200067185858562000ce360201b60201c565b836200067e9190620018d2565b905060006200069586868462000eec60201b60201c565b90508383620006a59190620018d2565b600460008873ffffffffffffffffffffffffffffffffffffffff1673ffffffffffffffffffffffffffffffffffffffff1681526020019081526020016000208190555080600460008773ffffffffffffffffffffffffffffffffffffffff1673ffffffffffffffffffffffffffffffffffffffff168152602001908152602001600020819055506200073f86868662000ffe60201b60201c565b8473ffffffffffffffffffffffffffffffffffffffff168673ffffffffffffffffffffffffffffffffffffffff167fddf252ad1be2c89b69c2b068fc378daa952ba7f163c4a11628f55a4df523b3ef846040516200079e91906200190d565b60405180910390a35050505b505050565b600073ffffffffffffffffffffffffffffffffffffffff168373ffffffffffffffffffffffffffffffffffffffff160362000805578060066000828254620007f891906200192a565b92505081905550620008dd565b6000600460008573ffffffffffffffffffffffffffffffffffffffff1673ffffffffffffffffffffffffffffffffffffffff1681526020019081526020016000205490508181101562000895578381836040517fe450d38c0000000000000000000000000000000000000000000000000000000081526004016200088c9392919062001965565b60405180910390fd5b818103600460008673ffffffffffffffffffffffffffffffffffffffff1673ffffffffffffffffffffffffffffffffffffffff16815260200190815260200160002081905550505b600073ffffffffffffffffffffffffffffffffffffffff168273ffffffffffffffffffffffffffffffffffffffff160362000928578060066000828254039250508190555062000976565b80600460008473ffffffffffffffffffffffffffffffffffffffff1673ffffffffffffffffffffffffffffffffffffffff168152602001908152602001600020600082825401925050819055505b8173ffffffffffffffffffffffffffffffffffffffff168373ffffffffffffffffffffffffffffffffffffffff167fddf252ad1be2c89b69c2b068fc378daa952ba7f163c4a11628f55a4df523b3ef83604051620009d591906200190d565b60405180910390a3505050565b6000601854905060008103620009f9575062000b5a565b6101c051814262000a0b9190620018d2565b10801562000a26575062000a25836200111d60201b60201c565b5b1562000a775742601960008473ffffffffffffffffffffffffffffffffffffffff1673ffffffffffffffffffffffffffffffffffffffff168152602001908152602001600020819055505062000b5a565b6000601960008573ffffffffffffffffffffffffffffffffffffffff1673ffffffffffffffffffffffffffffffffffffffff1681526020019081526020016000205411801562000b155750426101e051601960008673ffffffffffffffffffffffffffffffffffffffff1673ffffffffffffffffffffffffffffffffffffffff1681526020019081526020016000205462000b1391906200192a565b115b1562000b58576040517f08c379a000000000000000000000000000000000000000000000000000000000815260040162000b4f90620019f2565b60405180910390fd5b505b5050565b6000600460008573ffffffffffffffffffffffffffffffffffffffff1673ffffffffffffffffffffffffffffffffffffffff1681526020019081526020016000205490508181101562000bee578381836040517fe450d38c00000000000000000000000000000000000000000000000000000000815260040162000be59392919062001965565b60405180910390fd5b62000bfe6200117360201b60201c565b801562000c0d57506000601654115b801562000c76575062000c26846200111d60201b60201c565b801562000c41575062000c3f836200118a60201b60201c565b155b8062000c75575062000c59836200111d60201b60201c565b801562000c74575062000c72846200118a60201b60201c565b155b5b5b1562000cdc57600064e8d4a5100060165462000c9391906200192a565b905080831062000cda576040517f08c379a000000000000000000000000000000000000000000000000000000000815260040162000cd19062001a64565b60405180910390fd5b505b9392505050565b6000806000905062000cfb856200111d60201b60201c565b1562000d0c57600c54905062000d2a565b62000d1d846200111d60201b60201c565b1562000d2957600d5490505b5b600081148062000d835750601c60008673ffffffffffffffffffffffffffffffffffffffff1673ffffffffffffffffffffffffffffffffffffffff16815260200190815260200160002060009054906101000a900460ff165b8062000dd85750601c60008573ffffffffffffffffffffffffffffffffffffffff1673ffffffffffffffffffffffffffffffffffffffff16815260200190815260200160002060009054906101000a900460ff165b1562000de957600091505062000ee5565b612710818462000dfa919062001289565b62000e06919062001303565b9150600082111562000ee35762000e2382620011e060201b60201c565b81600460003073ffffffffffffffffffffffffffffffffffffffff1673ffffffffffffffffffffffffffffffffffffffff168152602001908152602001600020600082825462000e7491906200192a565b925050819055503073ffffffffffffffffffffffffffffffffffffffff168573ffffffffffffffffffffffffffffffffffffffff167fddf252ad1be2c89b69c2b068fc378daa952ba7f163c4a11628f55a4df523b3ef8460405162000eda91906200190d565b60405180910390a35b505b9392505050565b600081600460008573ffffffffffffffffffffffffffffffffffffffff1673ffffffffffffffffffffffffffffffffffffffff1681526020019081526020016000205462000f3b91906200192a565b905062000f4d6200117360201b60201c565b801562000f5c57506000601754115b801562000f91575062000f75846200111d60201b60201c565b801562000f90575062000f8e836200118a60201b60201c565b155b5b1562000ff757600064e8d4a5100060175462000fae91906200192a565b905080821062000ff5576040517f08c379a000000000000000000000000000000000000000000000000000000000815260040162000fec9062001ad6565b60405180910390fd5b505b9392505050565b6200100f836200111d60201b60201c565b1580156200102b575062001029826200111d60201b60201c565b155b620011185760006018540315620011185780601460008282546200105091906200192a565b9250508190555060006013549050600081036200106e575062001118565b60006d1b6418d0c06e3443e9854dac000060a06200108d919062001289565b9050600081606460056d1b6418d0c06e3443e9854dac0000620010b1919062001289565b620010bd919062001303565b85620010ca919062001289565b620010d6919062001303565b905082811115620010e5578290505b8060126000828254620010f991906200192a565b9250508190555080836200110e9190620018d2565b6013819055505050505b505050565b6000601a60008373ffffffffffffffffffffffffffffffffffffffff1673ffffffffffffffffffffffffffffffffffffffff16815260200190815260200160002060009054906101000a900460ff169050919050565b6000601560009054906101000a900460ff16905090565b6000601b60008373ffffffffffffffffffffffffffffffffffffffff1673ffffffffffffffffffffffffffffffffffffffff16815260200190815260200160002060009054906101000a900460ff169050919050565b6000612710600f5483620011f5919062001289565b62001201919062001303565b905060008183620012139190620018d2565b905080601060008282546200122991906200192a565b9250508190555081601160008282546200124491906200192a565b92505081905550505050565b6000819050919050565b7f4e487b7100000000000000000000000000000000000000000000000000000000600052601160045260246000fd5b6000620012968262001250565b9150620012a38362001250565b9250828202620012b38162001250565b91508282048414831517620012cd57620012cc6200125a565b5b5092915050565b7f4e487b7100000000000000000000000000000000000000000000000000000000600052601260045260246000fd5b6000620013108262001250565b91506200131d8362001250565b92508262001330576200132f620012d4565b5b828204905092915050565b600073ffffffffffffffffffffffffffffffffffffffff82169050919050565b600062001368826200133b565b9050919050565b6200137a816200135b565b82525050565b60006020820190506200139760008301846200136f565b92915050565b600081519050919050565b7f4e487b7100000000000000000000000000000000000000000000000000000000600052604160045260246000fd5b7f4e487b7100000000000000000000000000000000000000000000000000000000600052602260045260246000fd5b600060028204905060018216806200141f57607f821691505b602082108103620014355762001434620013d7565b5b50919050565b60008190508160005260206000209050919050565b60006020601f8301049050919050565b600082821b905092915050565b6000600883026200149f7fffffffffffffffffffffffffffffffffffffffffffffffffffffffffffffffff8262001460565b620014ab868362001460565b95508019841693508086168417925050509392505050565b6000819050919050565b6000620014ee620014e8620014e28462001250565b620014c3565b62001250565b9050919050565b6000819050919050565b6200150a83620014cd565b620015226200151982620014f5565b8484546200146d565b825550505050565b600090565b620015396200152a565b62001546818484620014ff565b505050565b5b818110156200156e57620015626000826200152f565b6001810190506200154c565b5050565b601f821115620015bd5762001587816200143b565b620015928462001450565b81016020851015620015a2578190505b620015ba620015b18562001450565b8301826200154b565b50505b505050565b600082821c905092915050565b6000620015e260001984600802620015c2565b1980831691505092915050565b6000620015fd8383620015cf565b9150826002028217905092915050565b62001618826200139d565b67ffffffffffffffff811115620016345762001633620013a8565b5b62001640825462001406565b6200164d82828562001572565b600060209050601f83116001811462001685576000841562001670578287015190505b6200167c8582620015ef565b865550620016ec565b601f19841662001695866200143b565b60005b82811015620016bf5784890151825560018201915060208501945060208101905062001698565b86831015620016df5784890151620016db601f891682620015cf565b8355505b6001600288020188555050505b505050505050565b6000819050919050565b6200170981620016f4565b82525050565b6200171a8162001250565b82525050565b600060a082019050620017376000830188620016fe565b620017466020830187620016fe565b620017556040830186620016fe565b6200176460608301856200170f565b6200177360808301846200136f565b9695505050505050565b600082825260208201905092915050565b60005b83811015620017ae57808201518184015260208101905062001791565b60008484015250505050565b6000601f19601f8301169050919050565b6000620017d8826200139d565b620017e481856200177d565b9350620017f68185602086016200178e565b6200180181620017ba565b840191505092915050565b60006020820190508181036000830152620018288184620017cb565b905092915050565b600081519050919050565b6000819050602082019050919050565b6000620018598251620016f4565b80915050919050565b60006200186f8262001830565b826200187b846200183b565b905062001888816200184b565b92506020821015620018cb57620018c67fffffffffffffffffffffffffffffffffffffffffffffffffffffffffffffffff8360200360080262001460565b831692505b5050919050565b6000620018df8262001250565b9150620018ec8362001250565b92508282039050818111156200190757620019066200125a565b5b92915050565b60006020820190506200192460008301846200170f565b92915050565b6000620019378262001250565b9150620019448362001250565b92508282019050808211156200195f576200195e6200125a565b5b92915050565b60006060820190506200197c60008301866200136f565b6200198b60208301856200170f565b6200199a60408301846200170f565b949350505050565b7f426f74206c6f636b656400000000000000000000000000000000000000000000600082015250565b6000620019da600a836200177d565b9150620019e782620019a2565b602082019050919050565b6000602082019050818103600083015262001a0d81620019cb565b9050919050565b7f4d617820746f6b656e2070657220747800000000000000000000000000000000600082015250565b600062001a4c6010836200177d565b915062001a598262001a14565b602082019050919050565b6000602082019050818103600083015262001a7f8162001a3d565b9050919050565b7f4d617820746f6b656e20706572206163636f756e740000000000000000000000600082015250565b600062001abe6015836200177d565b915062001acb8262001a86565b602082019050919050565b6000602082019050818103600083015262001af18162001aaf565b9050919050565b60805160a05160c05160e05161010051610120516101405161016051610180516101a0516101c0516101e051614df462001bad6000396000818161133301526131f40152600081816111a7015261311b015260008181611c780152611e9d015260008181610f540152818161249901526124c001526000611273015260006124610152600061242601526000612aac01526000612a8b015260006121db015260006122310152600061225a0152614df46000f3fe60806040526004361061039b5760003560e01c80637ecebe00116101dc578063b46a802211610102578063e5711e8b116100a0578063f2fde38b1161006f578063f2fde38b14610da9578063f7ce447914610dd2578063fc3c28af14610dfb578063fd4adc6a14610e26576103a2565b8063e5711e8b14610cef578063e86bf16414610d18578063eaa4560d14610d55578063ee0f660114610d80576103a2565b8063c29c669a116100dc578063c29c669a14610c35578063d505accf14610c5e578063dd62ed3e14610c87578063e08e8f8814610cc4576103a2565b8063b46a802214610bb8578063b53d7c9714610be3578063c0654efd14610c0c576103a2565b806395d89b411161017a5780639e252f00116101495780639e252f0014610aea578063a0b2fb8514610b27578063a6c2a78814610b50578063a9059cbb14610b7b576103a2565b806395d89b4114610a445780639cd441da14610a6f5780639da793d014610a985780639e1b004514610ac1576103a2565b806384b0196e116101b657806384b0196e1461099257806385b27c85146109c357806386e476dd146109ee5780638da5cb5b14610a19576103a2565b80637ecebe00146108ff578063844284d71461093c578063846ee64f14610967576103a2565b80633644e515116102c15780634f02632b1161025f578063715018a61161022e578063715018a61461086957806372854d9d1461088057806379cc6790146108ab5780637df405a4146108d4576103a2565b80634f02632b146107ab5780636d800a3c146107d65780636fb1896c1461080157806370a082311461082c576103a2565b8063420d39f01161029b578063420d39f01461070357806342966c681461072c578063480771441461075557806349bd5a5e14610780576103a2565b80633644e5151461068457806339fb86c5146106af5780633d740c2b146106d8576103a2565b806318160ddd116103395780632b0d6c37116103085780632b0d6c37146105c65780633014ba1b146105f1578063313ce5671461061c5780633144612514610647576103a2565b806318160ddd1461050a578063194c6407146105355780631a79444e1461055e57806323b872dd14610589576103a2565b80630f1293b0116103755780630f1293b01461044c578063131e00b714610477578063139adacc146104b45780631694505e146104df576103a2565b806306fdde03146103a7578063095ea7b3146103d25780630b0fd47e1461040f576103a2565b366103a257005b600080fd5b3480156103b357600080fd5b506103bc610e51565b6040516103c99190613bf1565b60405180910390f35b3480156103de57600080fd5b506103f960048036038101906103f49190613cac565b610ee3565b6040516104069190613d07565b60405180910390f35b34801561041b57600080fd5b5061043660048036038101906104319190613d22565b610f06565b6040516104439190613d07565b60405180910390f35b34801561045857600080fd5b50610461610f26565b60405161046e9190613d5e565b60405180910390f35b34801561048357600080fd5b5061049e60048036038101906104999190613d22565b610f2c565b6040516104ab9190613d07565b60405180910390f35b3480156104c057600080fd5b506104c9610f4c565b6040516104d69190613d5e565b60405180910390f35b3480156104eb57600080fd5b506104f4610f52565b6040516105019190613dd8565b60405180910390f35b34801561051657600080fd5b5061051f610f76565b60405161052c9190613d5e565b60405180910390f35b34801561054157600080fd5b5061055c60048036038101906105579190613df3565b610f80565b005b34801561056a57600080fd5b506105736110ee565b6040516105809190613d5e565b60405180910390f35b34801561059557600080fd5b506105b060048036038101906105ab9190613e33565b611170565b6040516105bd9190613d07565b60405180910390f35b3480156105d257600080fd5b506105db61119f565b6040516105e89190613d5e565b60405180910390f35b3480156105fd57600080fd5b506106066111a5565b6040516106139190613d5e565b60405180910390f35b34801561062857600080fd5b506106316111c9565b60405161063e9190613ea2565b60405180910390f35b34801561065357600080fd5b5061066e60048036038101906106699190613d22565b6111d2565b60405161067b9190613d07565b60405180910390f35b34801561069057600080fd5b506106996111f2565b6040516106a69190613ed6565b60405180910390f35b3480156106bb57600080fd5b506106d660048036038101906106d19190613f1d565b611201565b005b3480156106e457600080fd5b506106ed611217565b6040516106fa9190613f6c565b60405180910390f35b34801561070f57600080fd5b5061072a60048036038101906107259190613f87565b61123d565b005b34801561073857600080fd5b50610753600480360381019061074e9190613fc7565b611257565b005b34801561076157600080fd5b5061076a61126b565b6040516107779190613d5e565b60405180910390f35b34801561078c57600080fd5b50610795611271565b6040516107a29190613f6c565b60405180910390f35b3480156107b757600080fd5b506107c0611295565b6040516107cd9190613f6c565b60405180910390f35b3480156107e257600080fd5b506107eb6112bb565b6040516107f89190613d07565b60405180910390f35b34801561080d57600080fd5b506108166112ce565b6040516108239190613d5e565b60405180910390f35b34801561083857600080fd5b50610853600480360381019061084e9190613d22565b6112d4565b6040516108609190613d5e565b60405180910390f35b34801561087557600080fd5b5061087e61131d565b005b34801561088c57600080fd5b50610895611331565b6040516108a29190613d5e565b60405180910390f35b3480156108b757600080fd5b506108d260048036038101906108cd9190613cac565b611355565b005b3480156108e057600080fd5b506108e9611375565b6040516108f69190613d5e565b60405180910390f35b34801561090b57600080fd5b5061092660048036038101906109219190613d22565b61137b565b6040516109339190613d5e565b60405180910390f35b34801561094857600080fd5b5061095161138d565b60405161095e9190613d5e565b60405180910390f35b34801561097357600080fd5b5061097c611393565b6040516109899190613d5e565b60405180910390f35b34801561099e57600080fd5b506109a7611483565b6040516109ba97969594939291906140ed565b60405180910390f35b3480156109cf57600080fd5b506109d861152d565b6040516109e59190613d5e565b60405180910390f35b3480156109fa57600080fd5b50610a03611533565b604051610a109190613f6c565b60405180910390f35b348015610a2557600080fd5b50610a2e611559565b604051610a3b9190613f6c565b60405180910390f35b348015610a5057600080fd5b50610a59611582565b604051610a669190613bf1565b60405180910390f35b348015610a7b57600080fd5b50610a966004803603810190610a919190613f87565b611614565b005b348015610aa457600080fd5b50610abf6004803603810190610aba9190614171565b61166f565b005b348015610acd57600080fd5b50610ae86004803603810190610ae39190613f87565b611694565b005b348015610af657600080fd5b50610b116004803603810190610b0c9190613fc7565b6116f6565b604051610b1e9190613d07565b60405180910390f35b348015610b3357600080fd5b50610b4e6004803603810190610b499190613f1d565b61173c565b005b348015610b5c57600080fd5b50610b65611752565b604051610b729190613d5e565b60405180910390f35b348015610b8757600080fd5b50610ba26004803603810190610b9d9190613cac565b611758565b604051610baf9190613d07565b60405180910390f35b348015610bc457600080fd5b50610bcd61177b565b604051610bda9190613d5e565b60405180910390f35b348015610bef57600080fd5b50610c0a6004803603810190610c059190613df3565b6117fd565b005b348015610c1857600080fd5b50610c336004803603810190610c2e919061419e565b611874565b005b348015610c4157600080fd5b50610c5c6004803603810190610c579190613f1d565b61193e565b005b348015610c6a57600080fd5b50610c856004803603810190610c80919061425d565b6119da565b005b348015610c9357600080fd5b50610cae6004803603810190610ca99190613df3565b611b22565b604051610cbb9190613d5e565b60405180910390f35b348015610cd057600080fd5b50610cd9611ba9565b604051610ce69190613d5e565b60405180910390f35b348015610cfb57600080fd5b50610d166004803603810190610d119190613e33565b611baf565b005b348015610d2457600080fd5b50610d3f6004803603810190610d3a9190613d22565b611c4e565b604051610d4c9190613d5e565b60405180910390f35b348015610d6157600080fd5b50610d6a611c66565b604051610d779190613d5e565b60405180910390f35b348015610d8c57600080fd5b50610da76004803603810190610da29190613d22565b611c6c565b005b348015610db557600080fd5b50610dd06004803603810190610dcb9190613d22565b611d53565b005b348015610dde57600080fd5b50610df96004803603810190610df49190613d22565b611dd9565b005b348015610e0757600080fd5b50610e10611e95565b604051610e1d9190613d5e565b60405180910390f35b348015610e3257600080fd5b50610e3b611e9b565b604051610e489190614320565b60405180910390f35b606060078054610e609061436a565b80601f0160208091040260200160405190810160405280929190818152602001828054610e8c9061436a565b8015610ed95780601f10610eae57610100808354040283529160200191610ed9565b820191906000526020600020905b815481529060010190602001808311610ebc57829003601f168201915b5050505050905090565b600080610eee611ebf565b9050610efb818585611ec7565b600191505092915050565b601a6020528060005260406000206000915054906101000a900460ff1681565b60125481565b601c6020528060005260406000206000915054906101000a900460ff1681565b60185481565b7f000000000000000000000000000000000000000000000000000000000000000081565b6000600654905090565b610f88611ed9565b610fb5600a60009054906101000a900473ffffffffffffffffffffffffffffffffffffffff166000611f60565b610fe2600a60009054906101000a900473ffffffffffffffffffffffffffffffffffffffff166000611fbb565b61100f600b60009054906101000a900473ffffffffffffffffffffffffffffffffffffffff166000611f60565b61103c600b60009054906101000a900473ffffffffffffffffffffffffffffffffffffffff166000611fbb565b81600a60006101000a81548173ffffffffffffffffffffffffffffffffffffffff021916908373ffffffffffffffffffffffffffffffffffffffff16021790555080600b60006101000a81548173ffffffffffffffffffffffffffffffffffffffff021916908373ffffffffffffffffffffffffffffffffffffffff1602179055506110c9826001611f60565b6110d4816001611f60565b6110df826001611fbb565b6110ea816001611fbb565b5050565b6000601054905060008111611138576040517f08c379a000000000000000000000000000000000000000000000000000000000815260040161112f906143e7565b60405180910390fd5b61116530600a60009054906101000a900473ffffffffffffffffffffffffffffffffffffffff168361204f565b600060108190555090565b60008061117b611ebf565b9050611188858285612143565b61119385858561204f565b60019150509392505050565b60115481565b7f000000000000000000000000000000000000000000000000000000000000000081565b60006012905090565b601b6020528060005260406000206000915054906101000a900460ff1681565b60006111fc6121d7565b905090565b611209611ed9565b6112138282611f60565b5050565b600a60009054906101000a900473ffffffffffffffffffffffffffffffffffffffff1681565b611245611ed9565b81601681905550806017819055505050565b611268611262611ebf565b8261228e565b50565b60175481565b7f000000000000000000000000000000000000000000000000000000000000000081565b600b60009054906101000a900473ffffffffffffffffffffffffffffffffffffffff1681565b601560009054906101000a900460ff1681565b600d5481565b6000600460008373ffffffffffffffffffffffffffffffffffffffff1673ffffffffffffffffffffffffffffffffffffffff168152602001908152602001600020549050919050565b611325611ed9565b61132f6000612310565b565b7f000000000000000000000000000000000000000000000000000000000000000081565b61136782611361611ebf565b83612143565b611371828261228e565b5050565b600c5481565b6000611386826123d4565b9050919050565b600f5481565b60006011549050600081116113dd576040517f08c379a00000000000000000000000000000000000000000000000000000000081526004016113d490614453565b60405180910390fd5b600960009054906101000a900473ffffffffffffffffffffffffffffffffffffffff1673ffffffffffffffffffffffffffffffffffffffff163373ffffffffffffffffffffffffffffffffffffffff161461146d576040517f08c379a0000000000000000000000000000000000000000000000000000000008152600401611464906144bf565b60405180910390fd5b61147830338361204f565b600060118190555090565b60006060806000806000606061149761241d565b61149f612458565b46306000801b600067ffffffffffffffff8111156114c0576114bf6144df565b5b6040519080825280602002602001820160405280156114ee5781602001602082028036833780820191505090505b507f0f00000000000000000000000000000000000000000000000000000000000000959493929190965096509650965096509650965090919293949596565b60165481565b600960009054906101000a900473ffffffffffffffffffffffffffffffffffffffff1681565b60008060009054906101000a900473ffffffffffffffffffffffffffffffffffffffff16905090565b6060600880546115919061436a565b80601f01602080910402602001604051908101604052809291908181526020018280546115bd9061436a565b801561160a5780601f106115df5761010080835404028352916020019161160a565b820191906000526020600020905b8154815290600101906020018083116115ed57829003601f168201915b5050505050905090565b61161c611ed9565b600060185411611661576040517f08c379a00000000000000000000000000000000000000000000000000000000081526004016116589061455a565b60405180910390fd5b61166b8282612493565b5050565b611677611ed9565b80601560006101000a81548160ff02191690831515021790555050565b61169c611ed9565b6000601854146116e1576040517f08c379a00000000000000000000000000000000000000000000000000000000081526004016116d8906145c6565b60405180910390fd5b6116eb8282612493565b426018819055505050565b6000611700611ed9565b3373ffffffffffffffffffffffffffffffffffffffff166108fc839081150290604051600060405180830381858888f193505050509050919050565b611744611ed9565b61174e8282611fbb565b5050565b60105481565b600080611763611ebf565b905061177081858561204f565b600191505092915050565b60006012549050600081116117c5576040517f08c379a00000000000000000000000000000000000000000000000000000000081526004016117bc90614632565b60405180910390fd5b6117f230600b60009054906101000a900473ffffffffffffffffffffffffffffffffffffffff168361204f565b600060128190555090565b611805611ed9565b8173ffffffffffffffffffffffffffffffffffffffff166336b91f2b826040518263ffffffff1660e01b815260040161183e9190613f6c565b600060405180830381600087803b15801561185857600080fd5b505af115801561186c573d6000803e3d6000fd5b505050505050565b61187c611ed9565b6101f484118061188d57506101f483115b156118cd576040517f08c379a00000000000000000000000000000000000000000000000000000000081526004016118c49061469e565b60405180910390fd5b61271081836118dc91906146ed565b1461191c576040517f08c379a00000000000000000000000000000000000000000000000000000000081526004016119139061476d565b60405180910390fd5b83600c8190555082600d8190555081600e8190555080600f8190555050505050565b611946611ed9565b80601a60008473ffffffffffffffffffffffffffffffffffffffff1673ffffffffffffffffffffffffffffffffffffffff16815260200190815260200160002060006101000a81548160ff0219169083151502179055507f365730f68b8417eb737925485379e9a7034f928711aaa76c90e9953e754839d182826040516119ce92919061478d565b60405180910390a15050565b83421115611a1f57836040517f62791302000000000000000000000000000000000000000000000000000000008152600401611a169190613d5e565b60405180910390fd5b60007f6e71edae12b1b97f4d1f60370fef10105fa2faae0126114a169c64845d6126c9888888611a4e8c61256d565b89604051602001611a64969594939291906147b6565b6040516020818303038152906040528051906020012090506000611a87826125c4565b90506000611a97828787876125de565b90508973ffffffffffffffffffffffffffffffffffffffff168173ffffffffffffffffffffffffffffffffffffffff1614611b0b57808a6040517f4b800e46000000000000000000000000000000000000000000000000000000008152600401611b02929190614817565b60405180910390fd5b611b168a8a8a611ec7565b50505050505050505050565b6000600560008473ffffffffffffffffffffffffffffffffffffffff1673ffffffffffffffffffffffffffffffffffffffff16815260200190815260200160002060008373ffffffffffffffffffffffffffffffffffffffff1673ffffffffffffffffffffffffffffffffffffffff16815260200190815260200160002054905092915050565b60145481565b611bb7611ed9565b3073ffffffffffffffffffffffffffffffffffffffff168373ffffffffffffffffffffffffffffffffffffffff1603611c3e57426301e13380601854611bfd91906146ed565b10611c3d576040517f08c379a0000000000000000000000000000000000000000000000000000000008152600401611c349061488c565b60405180910390fd5b5b611c4983838361260e565b505050565b60196020528060005260406000206000915090505481565b60135481565b611c74611ed9565b60007f000000000000000000000000000000000000000000000000000000000000000073ffffffffffffffffffffffffffffffffffffffff1663662aa11d30846040518363ffffffff1660e01b8152600401611cd1929190614817565b6020604051808303816000875af1158015611cf0573d6000803e3d6000fd5b505050506040513d601f19601f82011682018060405250810190611d1491906148c1565b90507ff40b37e816b351d5dda1074b0371f5679ec72b453a023cf863ea8f99e22167408282604051611d479291906148ee565b60405180910390a15050565b611d5b611ed9565b600073ffffffffffffffffffffffffffffffffffffffff168173ffffffffffffffffffffffffffffffffffffffff1603611dcd5760006040517f1e4fbdf7000000000000000000000000000000000000000000000000000000008152600401611dc49190613f6c565b60405180910390fd5b611dd681612310565b50565b611de1611ed9565b611e0e600960009054906101000a900473ffffffffffffffffffffffffffffffffffffffff166000611f60565b611e3b600960009054906101000a900473ffffffffffffffffffffffffffffffffffffffff166000611fbb565b80600960006101000a81548173ffffffffffffffffffffffffffffffffffffffff021916908373ffffffffffffffffffffffffffffffffffffffff160217905550611e87816001611f60565b611e92816001611fbb565b50565b600e5481565b7f000000000000000000000000000000000000000000000000000000000000000081565b600033905090565b611ed4838383600161268d565b505050565b611ee1611ebf565b73ffffffffffffffffffffffffffffffffffffffff16611eff611559565b73ffffffffffffffffffffffffffffffffffffffff1614611f5e57611f22611ebf565b6040517f118cdaa7000000000000000000000000000000000000000000000000000000008152600401611f559190613f6c565b60405180910390fd5b565b80601c60008473ffffffffffffffffffffffffffffffffffffffff1673ffffffffffffffffffffffffffffffffffffffff16815260200190815260200160002060006101000a81548160ff0219169083151502179055505050565b80601b60008473ffffffffffffffffffffffffffffffffffffffff1673ffffffffffffffffffffffffffffffffffffffff16815260200190815260200160002060006101000a81548160ff0219169083151502179055507f297c7a63a712ea88be3a55ff4407c6c79b698d21c826c441b49b2b5ad6b6478b828260405161204392919061478d565b60405180910390a15050565b600073ffffffffffffffffffffffffffffffffffffffff168373ffffffffffffffffffffffffffffffffffffffff16036120c15760006040517f96c6fd1e0000000000000000000000000000000000000000000000000000000081526004016120b89190613f6c565b60405180910390fd5b600073ffffffffffffffffffffffffffffffffffffffff168273ffffffffffffffffffffffffffffffffffffffff16036121335760006040517fec442f0500000000000000000000000000000000000000000000000000000000815260040161212a9190613f6c565b60405180910390fd5b61213e838383612864565b505050565b600061214f8484611b22565b90507fffffffffffffffffffffffffffffffffffffffffffffffffffffffffffffffff81146121d157818110156121c1578281836040517ffb8f41b20000000000000000000000000000000000000000000000000000000081526004016121b893929190614917565b60405180910390fd5b6121d08484848403600061268d565b5b50505050565b60007f000000000000000000000000000000000000000000000000000000000000000073ffffffffffffffffffffffffffffffffffffffff163073ffffffffffffffffffffffffffffffffffffffff1614801561225357507f000000000000000000000000000000000000000000000000000000000000000046145b15612280577f0000000000000000000000000000000000000000000000000000000000000000905061228b565b612288612a66565b90505b90565b600073ffffffffffffffffffffffffffffffffffffffff168273ffffffffffffffffffffffffffffffffffffffff16036123005760006040517f96c6fd1e0000000000000000000000000000000000000000000000000000000081526004016122f79190613f6c565b60405180910390fd5b61230c82600083612864565b5050565b60008060009054906101000a900473ffffffffffffffffffffffffffffffffffffffff169050816000806101000a81548173ffffffffffffffffffffffffffffffffffffffff021916908373ffffffffffffffffffffffffffffffffffffffff1602179055508173ffffffffffffffffffffffffffffffffffffffff168173ffffffffffffffffffffffffffffffffffffffff167f8be0079c531659141344cd1fd0a4f28419497f9722a3daafe3b4186f6b6457e060405160405180910390a35050565b6000600360008373ffffffffffffffffffffffffffffffffffffffff1673ffffffffffffffffffffffffffffffffffffffff168152602001908152602001600020549050919050565b606061245360017f0000000000000000000000000000000000000000000000000000000000000000612afc90919063ffffffff16565b905090565b606061248e60027f0000000000000000000000000000000000000000000000000000000000000000612afc90919063ffffffff16565b905090565b6124be307f000000000000000000000000000000000000000000000000000000000000000083611ec7565b7f000000000000000000000000000000000000000000000000000000000000000073ffffffffffffffffffffffffffffffffffffffff1663f305d71983308460008030426040518863ffffffff1660e01b815260040161252396959493929190614989565b60606040518083038185885af1158015612541573d6000803e3d6000fd5b50505050506040513d601f19601f8201168201806040525081019061256691906149ea565b5050505050565b6000600360008373ffffffffffffffffffffffffffffffffffffffff1673ffffffffffffffffffffffffffffffffffffffff1681526020019081526020016000206000815480929190600101919050559050919050565b60006125d76125d16121d7565b83612bac565b9050919050565b6000806000806125f088888888612bed565b9250925092506126008282612ce1565b829350505050949350505050565b612688838473ffffffffffffffffffffffffffffffffffffffff1663a9059cbb85856040516024016126419291906148ee565b604051602081830303815290604052915060e01b6020820180517bffffffffffffffffffffffffffffffffffffffffffffffffffffffff8381831617835250505050612e45565b505050565b600073ffffffffffffffffffffffffffffffffffffffff168473ffffffffffffffffffffffffffffffffffffffff16036126ff5760006040517fe602df050000000000000000000000000000000000000000000000000000000081526004016126f69190613f6c565b60405180910390fd5b600073ffffffffffffffffffffffffffffffffffffffff168373ffffffffffffffffffffffffffffffffffffffff16036127715760006040517f94280d620000000000000000000000000000000000000000000000000000000081526004016127689190613f6c565b60405180910390fd5b81600560008673ffffffffffffffffffffffffffffffffffffffff1673ffffffffffffffffffffffffffffffffffffffff16815260200190815260200160002060008573ffffffffffffffffffffffffffffffffffffffff1673ffffffffffffffffffffffffffffffffffffffff16815260200190815260200160002081905550801561285e578273ffffffffffffffffffffffffffffffffffffffff168473ffffffffffffffffffffffffffffffffffffffff167f8c5be1e5ebec7d5bd14f71427d1e84f3dd0314c0f7b2291e5b200ac8c7c3b925846040516128559190613d5e565b60405180910390a35b50505050565b600073ffffffffffffffffffffffffffffffffffffffff168373ffffffffffffffffffffffffffffffffffffffff1614806128cb5750600073ffffffffffffffffffffffffffffffffffffffff168273ffffffffffffffffffffffffffffffffffffffff16145b80612903575061dead73ffffffffffffffffffffffffffffffffffffffff168273ffffffffffffffffffffffffffffffffffffffff16145b1561291857612913838383612edc565b612a61565b6129228383613104565b600061292f8484846132a5565b9050600061293e8585856133f4565b836129499190614a3d565b905060006129588686846135d5565b905083836129669190614a3d565b600460008873ffffffffffffffffffffffffffffffffffffffff1673ffffffffffffffffffffffffffffffffffffffff1681526020019081526020016000208190555080600460008773ffffffffffffffffffffffffffffffffffffffff1673ffffffffffffffffffffffffffffffffffffffff168152602001908152602001600020819055506129f88686866136c4565b8473ffffffffffffffffffffffffffffffffffffffff168673ffffffffffffffffffffffffffffffffffffffff167fddf252ad1be2c89b69c2b068fc378daa952ba7f163c4a11628f55a4df523b3ef84604051612a559190613d5e565b60405180910390a35050505b505050565b60007f8b73c3c69bb8fe3d512ecc4cf759cc79239f7b179b0ffacaa9a75d522b39400f7f00000000000000000000000000000000000000000000000000000000000000007f00000000000000000000000000000000000000000000000000000000000000004630604051602001612ae1959493929190614a71565b60405160208183030381529060405280519060200120905090565b606060ff60001b8314612b1957612b12836137bd565b9050612ba6565b818054612b259061436a565b80601f0160208091040260200160405190810160405280929190818152602001828054612b519061436a565b8015612b9e5780601f10612b7357610100808354040283529160200191612b9e565b820191906000526020600020905b815481529060010190602001808311612b8157829003601f168201915b505050505090505b92915050565b60006040517f190100000000000000000000000000000000000000000000000000000000000081528360028201528260228201526042812091505092915050565b60008060007f7fffffffffffffffffffffffffffffff5d576e7357a4501ddfe92f46681b20a08460001c1115612c2d576000600385925092509250612cd7565b600060018888888860405160008152602001604052604051612c529493929190614ac4565b6020604051602081039080840390855afa158015612c74573d6000803e3d6000fd5b505050602060405103519050600073ffffffffffffffffffffffffffffffffffffffff168173ffffffffffffffffffffffffffffffffffffffff1603612cc857600060016000801b93509350935050612cd7565b8060008060001b935093509350505b9450945094915050565b60006003811115612cf557612cf4614b09565b5b826003811115612d0857612d07614b09565b5b0315612e415760016003811115612d2257612d21614b09565b5b826003811115612d3557612d34614b09565b5b03612d6c576040517ff645eedf00000000000000000000000000000000000000000000000000000000815260040160405180910390fd5b60026003811115612d8057612d7f614b09565b5b826003811115612d9357612d92614b09565b5b03612dd8578060001c6040517ffce698f7000000000000000000000000000000000000000000000000000000008152600401612dcf9190613d5e565b60405180910390fd5b600380811115612deb57612dea614b09565b5b826003811115612dfe57612dfd614b09565b5b03612e4057806040517fd78bce0c000000000000000000000000000000000000000000000000000000008152600401612e379190613ed6565b60405180910390fd5b5b5050565b6000612e70828473ffffffffffffffffffffffffffffffffffffffff1661383190919063ffffffff16565b90506000815114158015612e95575080806020019051810190612e939190614b4d565b155b15612ed757826040517f5274afe7000000000000000000000000000000000000000000000000000000008152600401612ece9190613f6c565b60405180910390fd5b505050565b600073ffffffffffffffffffffffffffffffffffffffff168373ffffffffffffffffffffffffffffffffffffffff1603612f2e578060066000828254612f2291906146ed565b92505081905550613003565b6000600460008573ffffffffffffffffffffffffffffffffffffffff1673ffffffffffffffffffffffffffffffffffffffff16815260200190815260200160002054905081811015612fbb578381836040517fe450d38c000000000000000000000000000000000000000000000000000000008152600401612fb293929190614917565b60405180910390fd5b818103600460008673ffffffffffffffffffffffffffffffffffffffff1673ffffffffffffffffffffffffffffffffffffffff16815260200190815260200160002081905550505b600073ffffffffffffffffffffffffffffffffffffffff168273ffffffffffffffffffffffffffffffffffffffff160361304c578060066000828254039250508190555061309a565b80600460008473ffffffffffffffffffffffffffffffffffffffff1673ffffffffffffffffffffffffffffffffffffffff168152602001908152602001600020600082825401925050819055505b8173ffffffffffffffffffffffffffffffffffffffff168373ffffffffffffffffffffffffffffffffffffffff167fddf252ad1be2c89b69c2b068fc378daa952ba7f163c4a11628f55a4df523b3ef836040516130f79190613d5e565b60405180910390a3505050565b600060185490506000810361311957506132a1565b7f000000000000000000000000000000000000000000000000000000000000000081426131469190614a3d565b108015613158575061315783613847565b5b156131a75742601960008473ffffffffffffffffffffffffffffffffffffffff1673ffffffffffffffffffffffffffffffffffffffff16815260200190815260200160002081905550506132a1565b6000601960008573ffffffffffffffffffffffffffffffffffffffff1673ffffffffffffffffffffffffffffffffffffffff1681526020019081526020016000205411801561325f5750427f0000000000000000000000000000000000000000000000000000000000000000601960008673ffffffffffffffffffffffffffffffffffffffff1673ffffffffffffffffffffffffffffffffffffffff1681526020019081526020016000205461325d91906146ed565b115b1561329f576040517f08c379a000000000000000000000000000000000000000000000000000000000815260040161329690614bc6565b60405180910390fd5b505b5050565b6000600460008573ffffffffffffffffffffffffffffffffffffffff1673ffffffffffffffffffffffffffffffffffffffff16815260200190815260200160002054905081811015613332578381836040517fe450d38c00000000000000000000000000000000000000000000000000000000815260040161332993929190614917565b60405180910390fd5b61333a61389d565b801561334857506000601654115b801561338d575061335884613847565b801561336a5750613368836138b4565b155b8061338c575061337983613847565b801561338b5750613389846138b4565b155b5b5b156133ed57600064e8d4a510006016546133a791906146ed565b90508083106133eb576040517f08c379a00000000000000000000000000000000000000000000000000000000081526004016133e290614c32565b60405180910390fd5b505b9392505050565b6000806000905061340485613847565b1561341357600c549050613428565b61341c84613847565b1561342757600d5490505b5b60008114806134805750601c60008673ffffffffffffffffffffffffffffffffffffffff1673ffffffffffffffffffffffffffffffffffffffff16815260200190815260200160002060009054906101000a900460ff165b806134d45750601c60008573ffffffffffffffffffffffffffffffffffffffff1673ffffffffffffffffffffffffffffffffffffffff16815260200190815260200160002060009054906101000a900460ff165b156134e35760009150506135ce565b61271081846134f29190614c52565b6134fc9190614cc3565b915060008211156135cc576135108261390a565b81600460003073ffffffffffffffffffffffffffffffffffffffff1673ffffffffffffffffffffffffffffffffffffffff168152602001908152602001600020600082825461355f91906146ed565b925050819055503073ffffffffffffffffffffffffffffffffffffffff168573ffffffffffffffffffffffffffffffffffffffff167fddf252ad1be2c89b69c2b068fc378daa952ba7f163c4a11628f55a4df523b3ef846040516135c39190613d5e565b60405180910390a35b505b9392505050565b600081600460008573ffffffffffffffffffffffffffffffffffffffff1673ffffffffffffffffffffffffffffffffffffffff1681526020019081526020016000205461362291906146ed565b905061362c61389d565b801561363a57506000601754115b801561365d575061364a84613847565b801561365c575061365a836138b4565b155b5b156136bd57600064e8d4a5100060175461367791906146ed565b90508082106136bb576040517f08c379a00000000000000000000000000000000000000000000000000000000081526004016136b290614d40565b60405180910390fd5b505b9392505050565b6136cd83613847565b1580156136e057506136de82613847565b155b6137b857600060185403156137b857806014600082825461370191906146ed565b92505081905550600060135490506000810361371d57506137b8565b60006d1b6418d0c06e3443e9854dac000060a061373a9190614c52565b9050600081606460056d1b6418d0c06e3443e9854dac000061375c9190614c52565b6137669190614cc3565b856137719190614c52565b61377b9190614cc3565b905082811115613789578290505b806012600082825461379b91906146ed565b9250508190555080836137ae9190614a3d565b6013819055505050505b505050565b606060006137ca83613970565b90506000602067ffffffffffffffff8111156137e9576137e86144df565b5b6040519080825280601f01601f19166020018201604052801561381b5781602001600182028036833780820191505090505b5090508181528360208201528092505050919050565b606061383f838360006139c0565b905092915050565b6000601a60008373ffffffffffffffffffffffffffffffffffffffff1673ffffffffffffffffffffffffffffffffffffffff16815260200190815260200160002060009054906101000a900460ff169050919050565b6000601560009054906101000a900460ff16905090565b6000601b60008373ffffffffffffffffffffffffffffffffffffffff1673ffffffffffffffffffffffffffffffffffffffff16815260200190815260200160002060009054906101000a900460ff169050919050565b6000612710600f548361391d9190614c52565b6139279190614cc3565b9050600081836139379190614a3d565b9050806010600082825461394b91906146ed565b92505081905550816011600082825461396491906146ed565b92505081905550505050565b60008060ff8360001c169050601f8111156139b7576040517fb3512b0c00000000000000000000000000000000000000000000000000000000815260040160405180910390fd5b80915050919050565b606081471015613a0757306040517fcd7860590000000000000000000000000000000000000000000000000000000081526004016139fe9190613f6c565b60405180910390fd5b6000808573ffffffffffffffffffffffffffffffffffffffff168486604051613a309190614da7565b60006040518083038185875af1925050503d8060008114613a6d576040519150601f19603f3d011682016040523d82523d6000602084013e613a72565b606091505b5091509150613a82868383613a8d565b925050509392505050565b606082613aa257613a9d82613b1c565b613b14565b60008251148015613aca575060008473ffffffffffffffffffffffffffffffffffffffff163b145b15613b0c57836040517f9996b315000000000000000000000000000000000000000000000000000000008152600401613b039190613f6c565b60405180910390fd5b819050613b15565b5b9392505050565b600081511115613b2f5780518082602001fd5b6040517f1425ea4200000000000000000000000000000000000000000000000000000000815260040160405180910390fd5b600081519050919050565b600082825260208201905092915050565b60005b83811015613b9b578082015181840152602081019050613b80565b60008484015250505050565b6000601f19601f8301169050919050565b6000613bc382613b61565b613bcd8185613b6c565b9350613bdd818560208601613b7d565b613be681613ba7565b840191505092915050565b60006020820190508181036000830152613c0b8184613bb8565b905092915050565b600080fd5b600073ffffffffffffffffffffffffffffffffffffffff82169050919050565b6000613c4382613c18565b9050919050565b613c5381613c38565b8114613c5e57600080fd5b50565b600081359050613c7081613c4a565b92915050565b6000819050919050565b613c8981613c76565b8114613c9457600080fd5b50565b600081359050613ca681613c80565b92915050565b60008060408385031215613cc357613cc2613c13565b5b6000613cd185828601613c61565b9250506020613ce285828601613c97565b9150509250929050565b60008115159050919050565b613d0181613cec565b82525050565b6000602082019050613d1c6000830184613cf8565b92915050565b600060208284031215613d3857613d37613c13565b5b6000613d4684828501613c61565b91505092915050565b613d5881613c76565b82525050565b6000602082019050613d736000830184613d4f565b92915050565b6000819050919050565b6000613d9e613d99613d9484613c18565b613d79565b613c18565b9050919050565b6000613db082613d83565b9050919050565b6000613dc282613da5565b9050919050565b613dd281613db7565b82525050565b6000602082019050613ded6000830184613dc9565b92915050565b60008060408385031215613e0a57613e09613c13565b5b6000613e1885828601613c61565b9250506020613e2985828601613c61565b9150509250929050565b600080600060608486031215613e4c57613e4b613c13565b5b6000613e5a86828701613c61565b9350506020613e6b86828701613c61565b9250506040613e7c86828701613c97565b9150509250925092565b600060ff82169050919050565b613e9c81613e86565b82525050565b6000602082019050613eb76000830184613e93565b92915050565b6000819050919050565b613ed081613ebd565b82525050565b6000602082019050613eeb6000830184613ec7565b92915050565b613efa81613cec565b8114613f0557600080fd5b50565b600081359050613f1781613ef1565b92915050565b60008060408385031215613f3457613f33613c13565b5b6000613f4285828601613c61565b9250506020613f5385828601613f08565b9150509250929050565b613f6681613c38565b82525050565b6000602082019050613f816000830184613f5d565b92915050565b60008060408385031215613f9e57613f9d613c13565b5b6000613fac85828601613c97565b9250506020613fbd85828601613c97565b9150509250929050565b600060208284031215613fdd57613fdc613c13565b5b6000613feb84828501613c97565b91505092915050565b60007fff0000000000000000000000000000000000000000000000000000000000000082169050919050565b61402981613ff4565b82525050565b600081519050919050565b600082825260208201905092915050565b6000819050602082019050919050565b61406481613c76565b82525050565b6000614076838361405b565b60208301905092915050565b6000602082019050919050565b600061409a8261402f565b6140a4818561403a565b93506140af8361404b565b8060005b838110156140e05781516140c7888261406a565b97506140d283614082565b9250506001810190506140b3565b5085935050505092915050565b600060e082019050614102600083018a614020565b81810360208301526141148189613bb8565b905081810360408301526141288188613bb8565b90506141376060830187613d4f565b6141446080830186613f5d565b61415160a0830185613ec7565b81810360c0830152614163818461408f565b905098975050505050505050565b60006020828403121561418757614186613c13565b5b600061419584828501613f08565b91505092915050565b600080600080608085870312156141b8576141b7613c13565b5b60006141c687828801613c97565b94505060206141d787828801613c97565b93505060406141e887828801613c97565b92505060606141f987828801613c97565b91505092959194509250565b61420e81613e86565b811461421957600080fd5b50565b60008135905061422b81614205565b92915050565b61423a81613ebd565b811461424557600080fd5b50565b60008135905061425781614231565b92915050565b600080600080600080600060e0888a03121561427c5761427b613c13565b5b600061428a8a828b01613c61565b975050602061429b8a828b01613c61565b96505060406142ac8a828b01613c97565b95505060606142bd8a828b01613c97565b94505060806142ce8a828b0161421c565b93505060a06142df8a828b01614248565b92505060c06142f08a828b01614248565b91505092959891949750929550565b600061430a82613da5565b9050919050565b61431a816142ff565b82525050565b60006020820190506143356000830184614311565b92915050565b7f4e487b7100000000000000000000000000000000000000000000000000000000600052602260045260246000fd5b6000600282049050600182168061438257607f821691505b6020821081036143955761439461433b565b5b50919050565b7f4e6f206465762074617820617661696c61626c65000000000000000000000000600082015250565b60006143d1601483613b6c565b91506143dc8261439b565b602082019050919050565b60006020820190508181036000830152614400816143c4565b9050919050565b7f4e6f20636f6d6d756e6974792074617820617661696c61626c65000000000000600082015250565b600061443d601a83613b6c565b915061444882614407565b602082019050919050565b6000602082019050818103600083015261446c81614430565b9050919050565b7f496e76616c69642073656e646572000000000000000000000000000000000000600082015250565b60006144a9600e83613b6c565b91506144b482614473565b602082019050919050565b600060208201905081810360008301526144d88161449c565b9050919050565b7f4e487b7100000000000000000000000000000000000000000000000000000000600052604160045260246000fd5b7f506f6f6c206e6f7420696e697469616c697a6564000000000000000000000000600082015250565b6000614544601483613b6c565b915061454f8261450e565b602082019050919050565b6000602082019050818103600083015261457381614537565b9050919050565b7f506f6f6c20616c726561647920696e697469616c697a65640000000000000000600082015250565b60006145b0601883613b6c565b91506145bb8261457a565b602082019050919050565b600060208201905081810360008301526145df816145a3565b9050919050565b7f4e6f2064657620746f6b656e20617661696c61626c6500000000000000000000600082015250565b600061461c601683613b6c565b9150614627826145e6565b602082019050919050565b6000602082019050818103600083015261464b8161460f565b9050919050565b7f546f6f2068696768207461780000000000000000000000000000000000000000600082015250565b6000614688600c83613b6c565b915061469382614652565b602082019050919050565b600060208201905081810360008301526146b78161467b565b9050919050565b7f4e487b7100000000000000000000000000000000000000000000000000000000600052601160045260246000fd5b60006146f882613c76565b915061470383613c76565b925082820190508082111561471b5761471a6146be565b5b92915050565b7f496e76616c69642070657263656e740000000000000000000000000000000000600082015250565b6000614757600f83613b6c565b915061476282614721565b602082019050919050565b600060208201905081810360008301526147868161474a565b9050919050565b60006040820190506147a26000830185613f5d565b6147af6020830184613cf8565b9392505050565b600060c0820190506147cb6000830189613ec7565b6147d86020830188613f5d565b6147e56040830187613f5d565b6147f26060830186613d4f565b6147ff6080830185613d4f565b61480c60a0830184613d4f565b979650505050505050565b600060408201905061482c6000830185613f5d565b6148396020830184613f5d565b9392505050565b7f43616e6e6f7420726573637565207468697320746f6b656e0000000000000000600082015250565b6000614876601883613b6c565b915061488182614840565b602082019050919050565b600060208201905081810360008301526148a581614869565b9050919050565b6000815190506148bb81613c80565b92915050565b6000602082840312156148d7576148d6613c13565b5b60006148e5848285016148ac565b91505092915050565b60006040820190506149036000830185613f5d565b6149106020830184613d4f565b9392505050565b600060608201905061492c6000830186613f5d565b6149396020830185613d4f565b6149466040830184613d4f565b949350505050565b6000819050919050565b600061497361496e6149698461494e565b613d79565b613c76565b9050919050565b61498381614958565b82525050565b600060c08201905061499e6000830189613f5d565b6149ab6020830188613d4f565b6149b8604083018761497a565b6149c5606083018661497a565b6149d26080830185613f5d565b6149df60a0830184613d4f565b979650505050505050565b600080600060608486031215614a0357614a02613c13565b5b6000614a11868287016148ac565b9350506020614a22868287016148ac565b9250506040614a33868287016148ac565b9150509250925092565b6000614a4882613c76565b9150614a5383613c76565b9250828203905081811115614a6b57614a6a6146be565b5b92915050565b600060a082019050614a866000830188613ec7565b614a936020830187613ec7565b614aa06040830186613ec7565b614aad6060830185613d4f565b614aba6080830184613f5d565b9695505050505050565b6000608082019050614ad96000830187613ec7565b614ae66020830186613e93565b614af36040830185613ec7565b614b006060830184613ec7565b95945050505050565b7f4e487b7100000000000000000000000000000000000000000000000000000000600052602160045260246000fd5b600081519050614b4781613ef1565b92915050565b600060208284031215614b6357614b62613c13565b5b6000614b7184828501614b38565b91505092915050565b7f426f74206c6f636b656400000000000000000000000000000000000000000000600082015250565b6000614bb0600a83613b6c565b9150614bbb82614b7a565b602082019050919050565b60006020820190508181036000830152614bdf81614ba3565b9050919050565b7f4d617820746f6b656e2070657220747800000000000000000000000000000000600082015250565b6000614c1c601083613b6c565b9150614c2782614be6565b602082019050919050565b60006020820190508181036000830152614c4b81614c0f565b9050919050565b6000614c5d82613c76565b9150614c6883613c76565b9250828202614c7681613c76565b91508282048414831517614c8d57614c8c6146be565b5b5092915050565b7f4e487b7100000000000000000000000000000000000000000000000000000000600052601260045260246000fd5b6000614cce82613c76565b9150614cd983613c76565b925082614ce957614ce8614c94565b5b828204905092915050565b7f4d617820746f6b656e20706572206163636f756e740000000000000000000000600082015250565b6000614d2a601583613b6c565b9150614d3582614cf4565b602082019050919050565b60006020820190508181036000830152614d5981614d1d565b9050919050565b600081519050919050565b600081905092915050565b6000614d8182614d60565b614d8b8185614d6b565b9350614d9b818560208601613b7d565b80840191505092915050565b6000614db38284614d76565b91508190509291505056fea2646970667358221220811128a371f25daba917b069cdd63ce04c83ed1c047b52b607120bb3db2d336964736f6c63430008180033","opcodes":"PUSH2 0x200 PUSH1 0x40 MSTORE PUSH1 0xC8 PUSH1 0xC SSTORE PUSH1 0xC8 PUSH1 0xD SSTORE PUSH2 0x7D0 PUSH1 0xE SSTORE PUSH2 0x1F40 PUSH1 0xF SSTORE PUSH1 0x64 PUSH1 0x5 PUSH14 0x1B6418D0C06E3443E9854DAC0000 PUSH3 0x3A SWAP2 SWAP1 PUSH3 0x1289 JUMP JUMPDEST PUSH3 0x46 SWAP2 SWAP1 PUSH3 0x1303 JUMP JUMPDEST PUSH1 0x13 SSTORE PUSH1 0x0 PUSH1 0x14 SSTORE PUSH1 0x1 PUSH1 0x15 PUSH1 0x0 PUSH2 0x100 EXP DUP2 SLOAD DUP2 PUSH1 0xFF MUL NOT AND SWAP1 DUP4 ISZERO ISZERO MUL OR SWAP1 SSTORE POP PUSH2 0x2710 PUSH1 0x5 PUSH14 0x1B6418D0C06E3443E9854DAC0000 PUSH3 0x89 SWAP2 SWAP1 PUSH3 0x1289 JUMP JUMPDEST PUSH3 0x95 SWAP2 SWAP1 PUSH3 0x1303 JUMP JUMPDEST PUSH1 0x16 SSTORE PUSH2 0x2710 PUSH1 0x5 PUSH14 0x1B6418D0C06E3443E9854DAC0000 PUSH3 0xB8 SWAP2 SWAP1 PUSH3 0x1289 JUMP JUMPDEST PUSH3 0xC4 SWAP2 SWAP1 PUSH3 0x1303 JUMP JUMPDEST PUSH1 0x17 SSTORE CALLVALUE DUP1 ISZERO PUSH3 0xD4 JUMPI PUSH1 0x0 DUP1 REVERT JUMPDEST POP PUSH1 0x40 MLOAD DUP1 PUSH1 0x40 ADD PUSH1 0x40 MSTORE DUP1 PUSH1 0x3 DUP2 MSTORE PUSH1 0x20 ADD PUSH32 0x5353530000000000000000000000000000000000000000000000000000000000 DUP2 MSTORE POP PUSH1 0x40 MLOAD DUP1 PUSH1 0x40 ADD PUSH1 0x40 MSTORE DUP1 PUSH1 0x3 DUP2 MSTORE PUSH1 0x20 ADD PUSH32 0x5353530000000000000000000000000000000000000000000000000000000000 DUP2 MSTORE POP DUP2 PUSH1 0x40 MLOAD DUP1 PUSH1 0x40 ADD PUSH1 0x40 MSTORE DUP1 PUSH1 0x1 DUP2 MSTORE PUSH1 0x20 ADD PUSH32 0x3100000000000000000000000000000000000000000000000000000000000000 DUP2 MSTORE POP CALLER PUSH1 0x0 PUSH20 0xFFFFFFFFFFFFFFFFFFFFFFFFFFFFFFFFFFFFFFFF AND DUP2 PUSH20 0xFFFFFFFFFFFFFFFFFFFFFFFFFFFFFFFFFFFFFFFF AND SUB PUSH3 0x1EE JUMPI PUSH1 0x0 PUSH1 0x40 MLOAD PUSH32 0x1E4FBDF700000000000000000000000000000000000000000000000000000000 DUP2 MSTORE PUSH1 0x4 ADD PUSH3 0x1E5 SWAP2 SWAP1 PUSH3 0x1380 JUMP JUMPDEST PUSH1 0x40 MLOAD DUP1 SWAP2 SUB SWAP1 REVERT JUMPDEST PUSH3 0x1FF DUP2 PUSH3 0x2F6 PUSH1 0x20 SHL PUSH1 0x20 SHR JUMP JUMPDEST POP PUSH3 0x216 PUSH1 0x1 DUP4 PUSH3 0x3BA PUSH1 0x20 SHL SWAP1 SWAP2 SWAP1 PUSH1 0x20 SHR JUMP JUMPDEST PUSH2 0x120 DUP2 DUP2 MSTORE POP POP PUSH3 0x234 PUSH1 0x2 DUP3 PUSH3 0x3BA PUSH1 0x20 SHL SWAP1 SWAP2 SWAP1 PUSH1 0x20 SHR JUMP JUMPDEST PUSH2 0x140 DUP2 DUP2 MSTORE POP POP DUP2 DUP1 MLOAD SWAP1 PUSH1 0x20 ADD KECCAK256 PUSH1 0xE0 DUP2 DUP2 MSTORE POP POP DUP1 DUP1 MLOAD SWAP1 PUSH1 0x20 ADD KECCAK256 PUSH2 0x100 DUP2 DUP2 MSTORE POP POP CHAINID PUSH1 0xA0 DUP2 DUP2 MSTORE POP POP PUSH3 0x273 PUSH3 0x412 PUSH1 0x20 SHL PUSH1 0x20 SHR JUMP JUMPDEST PUSH1 0x80 DUP2 DUP2 MSTORE POP POP ADDRESS PUSH20 0xFFFFFFFFFFFFFFFFFFFFFFFFFFFFFFFFFFFFFFFF AND PUSH1 0xC0 DUP2 PUSH20 0xFFFFFFFFFFFFFFFFFFFFFFFFFFFFFFFFFFFFFFFF AND DUP2 MSTORE POP POP POP POP DUP2 PUSH1 0x7 SWAP1 DUP2 PUSH3 0x2C1 SWAP2 SWAP1 PUSH3 0x160D JUMP JUMPDEST POP DUP1 PUSH1 0x8 SWAP1 DUP2 PUSH3 0x2D3 SWAP2 SWAP1 PUSH3 0x160D JUMP JUMPDEST POP POP POP PUSH3 0x2F0 CALLER PUSH8 0x8AC7230489E80000 PUSH3 0x46F PUSH1 0x20 SHL PUSH1 0x20 SHR JUMP JUMPDEST PUSH3 0x1AF8 JUMP JUMPDEST PUSH1 0x0 DUP1 PUSH1 0x0 SWAP1 SLOAD SWAP1 PUSH2 0x100 EXP SWAP1 DIV PUSH20 0xFFFFFFFFFFFFFFFFFFFFFFFFFFFFFFFFFFFFFFFF AND SWAP1 POP DUP2 PUSH1 0x0 DUP1 PUSH2 0x100 EXP DUP2 SLOAD DUP2 PUSH20 0xFFFFFFFFFFFFFFFFFFFFFFFFFFFFFFFFFFFFFFFF MUL NOT AND SWAP1 DUP4 PUSH20 0xFFFFFFFFFFFFFFFFFFFFFFFFFFFFFFFFFFFFFFFF AND MUL OR SWAP1 SSTORE POP DUP2 PUSH20 0xFFFFFFFFFFFFFFFFFFFFFFFFFFFFFFFFFFFFFFFF AND DUP2 PUSH20 0xFFFFFFFFFFFFFFFFFFFFFFFFFFFFFFFFFFFFFFFF AND PUSH32 0x8BE0079C531659141344CD1FD0A4F28419497F9722A3DAAFE3B4186F6B6457E0 PUSH1 0x40 MLOAD PUSH1 0x40 MLOAD DUP1 SWAP2 SUB SWAP1 LOG3 POP POP JUMP JUMPDEST PUSH1 0x0 PUSH1 0x20 DUP4 MLOAD LT ISZERO PUSH3 0x3E0 JUMPI PUSH3 0x3D8 DUP4 PUSH3 0x4FC PUSH1 0x20 SHL PUSH1 0x20 SHR JUMP JUMPDEST SWAP1 POP PUSH3 0x40C JUMP JUMPDEST DUP3 PUSH3 0x3F2 DUP4 PUSH3 0x569 PUSH1 0x20 SHL PUSH1 0x20 SHR JUMP JUMPDEST PUSH1 0x0 ADD SWAP1 DUP2 PUSH3 0x403 SWAP2 SWAP1 PUSH3 0x160D JUMP JUMPDEST POP PUSH1 0xFF PUSH1 0x0 SHL SWAP1 POP JUMPDEST SWAP3 SWAP2 POP POP JUMP JUMPDEST PUSH1 0x0 PUSH32 0x8B73C3C69BB8FE3D512ECC4CF759CC79239F7B179B0FFACAA9A75D522B39400F PUSH1 0xE0 MLOAD PUSH2 0x100 MLOAD CHAINID ADDRESS PUSH1 0x40 MLOAD PUSH1 0x20 ADD PUSH3 0x454 SWAP6 SWAP5 SWAP4 SWAP3 SWAP2 SWAP1 PUSH3 0x1720 JUMP JUMPDEST PUSH1 0x40 MLOAD PUSH1 0x20 DUP2 DUP4 SUB SUB DUP2 MSTORE SWAP1 PUSH1 0x40 MSTORE DUP1 MLOAD SWAP1 PUSH1 0x20 ADD KECCAK256 SWAP1 POP SWAP1 JUMP JUMPDEST PUSH1 0x0 PUSH20 0xFFFFFFFFFFFFFFFFFFFFFFFFFFFFFFFFFFFFFFFF AND DUP3 PUSH20 0xFFFFFFFFFFFFFFFFFFFFFFFFFFFFFFFFFFFFFFFF AND SUB PUSH3 0x4E4 JUMPI PUSH1 0x0 PUSH1 0x40 MLOAD PUSH32 0xEC442F0500000000000000000000000000000000000000000000000000000000 DUP2 MSTORE PUSH1 0x4 ADD PUSH3 0x4DB SWAP2 SWAP1 PUSH3 0x1380 JUMP JUMPDEST PUSH1 0x40 MLOAD DUP1 SWAP2 SUB SWAP1 REVERT JUMPDEST PUSH3 0x4F8 PUSH1 0x0 DUP4 DUP4 PUSH3 0x573 PUSH1 0x20 SHL PUSH1 0x20 SHR JUMP JUMPDEST POP POP JUMP JUMPDEST PUSH1 0x0 DUP1 DUP3 SWAP1 POP PUSH1 0x1F DUP2 MLOAD GT ISZERO PUSH3 0x54C JUMPI DUP3 PUSH1 0x40 MLOAD PUSH32 0x305A27A900000000000000000000000000000000000000000000000000000000 DUP2 MSTORE PUSH1 0x4 ADD PUSH3 0x543 SWAP2 SWAP1 PUSH3 0x180C JUMP JUMPDEST PUSH1 0x40 MLOAD DUP1 SWAP2 SUB SWAP1 REVERT JUMPDEST DUP1 MLOAD DUP2 PUSH3 0x55A SWAP1 PUSH3 0x1862 JUMP JUMPDEST PUSH1 0x0 SHR OR PUSH1 0x0 SHL SWAP2 POP POP SWAP2 SWAP1 POP JUMP JUMPDEST PUSH1 0x0 DUP2 SWAP1 POP SWAP2 SWAP1 POP JUMP JUMPDEST PUSH1 0x0 PUSH20 0xFFFFFFFFFFFFFFFFFFFFFFFFFFFFFFFFFFFFFFFF AND DUP4 PUSH20 0xFFFFFFFFFFFFFFFFFFFFFFFFFFFFFFFFFFFFFFFF AND EQ DUP1 PUSH3 0x5DB JUMPI POP PUSH1 0x0 PUSH20 0xFFFFFFFFFFFFFFFFFFFFFFFFFFFFFFFFFFFFFFFF AND DUP3 PUSH20 0xFFFFFFFFFFFFFFFFFFFFFFFFFFFFFFFFFFFFFFFF AND EQ JUMPDEST DUP1 PUSH3 0x614 JUMPI POP PUSH2 0xDEAD PUSH20 0xFFFFFFFFFFFFFFFFFFFFFFFFFFFFFFFFFFFFFFFF AND DUP3 PUSH20 0xFFFFFFFFFFFFFFFFFFFFFFFFFFFFFFFFFFFFFFFF AND EQ JUMPDEST ISZERO PUSH3 0x633 JUMPI PUSH3 0x62D DUP4 DUP4 DUP4 PUSH3 0x7AF PUSH1 0x20 SHL PUSH1 0x20 SHR JUMP JUMPDEST PUSH3 0x7AA JUMP JUMPDEST PUSH3 0x645 DUP4 DUP4 PUSH3 0x9E2 PUSH1 0x20 SHL PUSH1 0x20 SHR JUMP JUMPDEST PUSH1 0x0 PUSH3 0x65A DUP5 DUP5 DUP5 PUSH3 0xB5E PUSH1 0x20 SHL PUSH1 0x20 SHR JUMP JUMPDEST SWAP1 POP PUSH1 0x0 PUSH3 0x671 DUP6 DUP6 DUP6 PUSH3 0xCE3 PUSH1 0x20 SHL PUSH1 0x20 SHR JUMP JUMPDEST DUP4 PUSH3 0x67E SWAP2 SWAP1 PUSH3 0x18D2 JUMP JUMPDEST SWAP1 POP PUSH1 0x0 PUSH3 0x695 DUP7 DUP7 DUP5 PUSH3 0xEEC PUSH1 0x20 SHL PUSH1 0x20 SHR JUMP JUMPDEST SWAP1 POP DUP4 DUP4 PUSH3 0x6A5 SWAP2 SWAP1 PUSH3 0x18D2 JUMP JUMPDEST PUSH1 0x4 PUSH1 0x0 DUP9 PUSH20 0xFFFFFFFFFFFFFFFFFFFFFFFFFFFFFFFFFFFFFFFF AND PUSH20 0xFFFFFFFFFFFFFFFFFFFFFFFFFFFFFFFFFFFFFFFF AND DUP2 MSTORE PUSH1 0x20 ADD SWAP1 DUP2 MSTORE PUSH1 0x20 ADD PUSH1 0x0 KECCAK256 DUP2 SWAP1 SSTORE POP DUP1 PUSH1 0x4 PUSH1 0x0 DUP8 PUSH20 0xFFFFFFFFFFFFFFFFFFFFFFFFFFFFFFFFFFFFFFFF AND PUSH20 0xFFFFFFFFFFFFFFFFFFFFFFFFFFFFFFFFFFFFFFFF AND DUP2 MSTORE PUSH1 0x20 ADD SWAP1 DUP2 MSTORE PUSH1 0x20 ADD PUSH1 0x0 KECCAK256 DUP2 SWAP1 SSTORE POP PUSH3 0x73F DUP7 DUP7 DUP7 PUSH3 0xFFE PUSH1 0x20 SHL PUSH1 0x20 SHR JUMP JUMPDEST DUP5 PUSH20 0xFFFFFFFFFFFFFFFFFFFFFFFFFFFFFFFFFFFFFFFF AND DUP7 PUSH20 0xFFFFFFFFFFFFFFFFFFFFFFFFFFFFFFFFFFFFFFFF AND PUSH32 0xDDF252AD1BE2C89B69C2B068FC378DAA952BA7F163C4A11628F55A4DF523B3EF DUP5 PUSH1 0x40 MLOAD PUSH3 0x79E SWAP2 SWAP1 PUSH3 0x190D JUMP JUMPDEST PUSH1 0x40 MLOAD DUP1 SWAP2 SUB SWAP1 LOG3 POP POP POP JUMPDEST POP POP POP JUMP JUMPDEST PUSH1 0x0 PUSH20 0xFFFFFFFFFFFFFFFFFFFFFFFFFFFFFFFFFFFFFFFF AND DUP4 PUSH20 0xFFFFFFFFFFFFFFFFFFFFFFFFFFFFFFFFFFFFFFFF AND SUB PUSH3 0x805 JUMPI DUP1 PUSH1 0x6 PUSH1 0x0 DUP3 DUP3 SLOAD PUSH3 0x7F8 SWAP2 SWAP1 PUSH3 0x192A JUMP JUMPDEST SWAP3 POP POP DUP2 SWAP1 SSTORE POP PUSH3 0x8DD JUMP JUMPDEST PUSH1 0x0 PUSH1 0x4 PUSH1 0x0 DUP6 PUSH20 0xFFFFFFFFFFFFFFFFFFFFFFFFFFFFFFFFFFFFFFFF AND PUSH20 0xFFFFFFFFFFFFFFFFFFFFFFFFFFFFFFFFFFFFFFFF AND DUP2 MSTORE PUSH1 0x20 ADD SWAP1 DUP2 MSTORE PUSH1 0x20 ADD PUSH1 0x0 KECCAK256 SLOAD SWAP1 POP DUP2 DUP2 LT ISZERO PUSH3 0x895 JUMPI DUP4 DUP2 DUP4 PUSH1 0x40 MLOAD PUSH32 0xE450D38C00000000000000000000000000000000000000000000000000000000 DUP2 MSTORE PUSH1 0x4 ADD PUSH3 0x88C SWAP4 SWAP3 SWAP2 SWAP1 PUSH3 0x1965 JUMP JUMPDEST PUSH1 0x40 MLOAD DUP1 SWAP2 SUB SWAP1 REVERT JUMPDEST DUP2 DUP2 SUB PUSH1 0x4 PUSH1 0x0 DUP7 PUSH20 0xFFFFFFFFFFFFFFFFFFFFFFFFFFFFFFFFFFFFFFFF AND PUSH20 0xFFFFFFFFFFFFFFFFFFFFFFFFFFFFFFFFFFFFFFFF AND DUP2 MSTORE PUSH1 0x20 ADD SWAP1 DUP2 MSTORE PUSH1 0x20 ADD PUSH1 0x0 KECCAK256 DUP2 SWAP1 SSTORE POP POP JUMPDEST PUSH1 0x0 PUSH20 0xFFFFFFFFFFFFFFFFFFFFFFFFFFFFFFFFFFFFFFFF AND DUP3 PUSH20 0xFFFFFFFFFFFFFFFFFFFFFFFFFFFFFFFFFFFFFFFF AND SUB PUSH3 0x928 JUMPI DUP1 PUSH1 0x6 PUSH1 0x0 DUP3 DUP3 SLOAD SUB SWAP3 POP POP DUP2 SWAP1 SSTORE POP PUSH3 0x976 JUMP JUMPDEST DUP1 PUSH1 0x4 PUSH1 0x0 DUP5 PUSH20 0xFFFFFFFFFFFFFFFFFFFFFFFFFFFFFFFFFFFFFFFF AND PUSH20 0xFFFFFFFFFFFFFFFFFFFFFFFFFFFFFFFFFFFFFFFF AND DUP2 MSTORE PUSH1 0x20 ADD SWAP1 DUP2 MSTORE PUSH1 0x20 ADD PUSH1 0x0 KECCAK256 PUSH1 0x0 DUP3 DUP3 SLOAD ADD SWAP3 POP POP DUP2 SWAP1 SSTORE POP JUMPDEST DUP2 PUSH20 0xFFFFFFFFFFFFFFFFFFFFFFFFFFFFFFFFFFFFFFFF AND DUP4 PUSH20 0xFFFFFFFFFFFFFFFFFFFFFFFFFFFFFFFFFFFFFFFF AND PUSH32 0xDDF252AD1BE2C89B69C2B068FC378DAA952BA7F163C4A11628F55A4DF523B3EF DUP4 PUSH1 0x40 MLOAD PUSH3 0x9D5 SWAP2 SWAP1 PUSH3 0x190D JUMP JUMPDEST PUSH1 0x40 MLOAD DUP1 SWAP2 SUB SWAP1 LOG3 POP POP POP JUMP JUMPDEST PUSH1 0x0 PUSH1 0x18 SLOAD SWAP1 POP PUSH1 0x0 DUP2 SUB PUSH3 0x9F9 JUMPI POP PUSH3 0xB5A JUMP JUMPDEST PUSH2 0x1C0 MLOAD DUP2 TIMESTAMP PUSH3 0xA0B SWAP2 SWAP1 PUSH3 0x18D2 JUMP JUMPDEST LT DUP1 ISZERO PUSH3 0xA26 JUMPI POP PUSH3 0xA25 DUP4 PUSH3 0x111D PUSH1 0x20 SHL PUSH1 0x20 SHR JUMP JUMPDEST JUMPDEST ISZERO PUSH3 0xA77 JUMPI TIMESTAMP PUSH1 0x19 PUSH1 0x0 DUP5 PUSH20 0xFFFFFFFFFFFFFFFFFFFFFFFFFFFFFFFFFFFFFFFF AND PUSH20 0xFFFFFFFFFFFFFFFFFFFFFFFFFFFFFFFFFFFFFFFF AND DUP2 MSTORE PUSH1 0x20 ADD SWAP1 DUP2 MSTORE PUSH1 0x20 ADD PUSH1 0x0 KECCAK256 DUP2 SWAP1 SSTORE POP POP PUSH3 0xB5A JUMP JUMPDEST PUSH1 0x0 PUSH1 0x19 PUSH1 0x0 DUP6 PUSH20 0xFFFFFFFFFFFFFFFFFFFFFFFFFFFFFFFFFFFFFFFF AND PUSH20 0xFFFFFFFFFFFFFFFFFFFFFFFFFFFFFFFFFFFFFFFF AND DUP2 MSTORE PUSH1 0x20 ADD SWAP1 DUP2 MSTORE PUSH1 0x20 ADD PUSH1 0x0 KECCAK256 SLOAD GT DUP1 ISZERO PUSH3 0xB15 JUMPI POP TIMESTAMP PUSH2 0x1E0 MLOAD PUSH1 0x19 PUSH1 0x0 DUP7 PUSH20 0xFFFFFFFFFFFFFFFFFFFFFFFFFFFFFFFFFFFFFFFF AND PUSH20 0xFFFFFFFFFFFFFFFFFFFFFFFFFFFFFFFFFFFFFFFF AND DUP2 MSTORE PUSH1 0x20 ADD SWAP1 DUP2 MSTORE PUSH1 0x20 ADD PUSH1 0x0 KECCAK256 SLOAD PUSH3 0xB13 SWAP2 SWAP1 PUSH3 0x192A JUMP JUMPDEST GT JUMPDEST ISZERO PUSH3 0xB58 JUMPI PUSH1 0x40 MLOAD PUSH32 0x8C379A000000000000000000000000000000000000000000000000000000000 DUP2 MSTORE PUSH1 0x4 ADD PUSH3 0xB4F SWAP1 PUSH3 0x19F2 JUMP JUMPDEST PUSH1 0x40 MLOAD DUP1 SWAP2 SUB SWAP1 REVERT JUMPDEST POP JUMPDEST POP POP JUMP JUMPDEST PUSH1 0x0 PUSH1 0x4 PUSH1 0x0 DUP6 PUSH20 0xFFFFFFFFFFFFFFFFFFFFFFFFFFFFFFFFFFFFFFFF AND PUSH20 0xFFFFFFFFFFFFFFFFFFFFFFFFFFFFFFFFFFFFFFFF AND DUP2 MSTORE PUSH1 0x20 ADD SWAP1 DUP2 MSTORE PUSH1 0x20 ADD PUSH1 0x0 KECCAK256 SLOAD SWAP1 POP DUP2 DUP2 LT ISZERO PUSH3 0xBEE JUMPI DUP4 DUP2 DUP4 PUSH1 0x40 MLOAD PUSH32 0xE450D38C00000000000000000000000000000000000000000000000000000000 DUP2 MSTORE PUSH1 0x4 ADD PUSH3 0xBE5 SWAP4 SWAP3 SWAP2 SWAP1 PUSH3 0x1965 JUMP JUMPDEST PUSH1 0x40 MLOAD DUP1 SWAP2 SUB SWAP1 REVERT JUMPDEST PUSH3 0xBFE PUSH3 0x1173 PUSH1 0x20 SHL PUSH1 0x20 SHR JUMP JUMPDEST DUP1 ISZERO PUSH3 0xC0D JUMPI POP PUSH1 0x0 PUSH1 0x16 SLOAD GT JUMPDEST DUP1 ISZERO PUSH3 0xC76 JUMPI POP PUSH3 0xC26 DUP5 PUSH3 0x111D PUSH1 0x20 SHL PUSH1 0x20 SHR JUMP JUMPDEST DUP1 ISZERO PUSH3 0xC41 JUMPI POP PUSH3 0xC3F DUP4 PUSH3 0x118A PUSH1 0x20 SHL PUSH1 0x20 SHR JUMP JUMPDEST ISZERO JUMPDEST DUP1 PUSH3 0xC75 JUMPI POP PUSH3 0xC59 DUP4 PUSH3 0x111D PUSH1 0x20 SHL PUSH1 0x20 SHR JUMP JUMPDEST DUP1 ISZERO PUSH3 0xC74 JUMPI POP PUSH3 0xC72 DUP5 PUSH3 0x118A PUSH1 0x20 SHL PUSH1 0x20 SHR JUMP JUMPDEST ISZERO JUMPDEST JUMPDEST JUMPDEST ISZERO PUSH3 0xCDC JUMPI PUSH1 0x0 PUSH5 0xE8D4A51000 PUSH1 0x16 SLOAD PUSH3 0xC93 SWAP2 SWAP1 PUSH3 0x192A JUMP JUMPDEST SWAP1 POP DUP1 DUP4 LT PUSH3 0xCDA JUMPI PUSH1 0x40 MLOAD PUSH32 0x8C379A000000000000000000000000000000000000000000000000000000000 DUP2 MSTORE PUSH1 0x4 ADD PUSH3 0xCD1 SWAP1 PUSH3 0x1A64 JUMP JUMPDEST PUSH1 0x40 MLOAD DUP1 SWAP2 SUB SWAP1 REVERT JUMPDEST POP JUMPDEST SWAP4 SWAP3 POP POP POP JUMP JUMPDEST PUSH1 0x0 DUP1 PUSH1 0x0 SWAP1 POP PUSH3 0xCFB DUP6 PUSH3 0x111D PUSH1 0x20 SHL PUSH1 0x20 SHR JUMP JUMPDEST ISZERO PUSH3 0xD0C JUMPI PUSH1 0xC SLOAD SWAP1 POP PUSH3 0xD2A JUMP JUMPDEST PUSH3 0xD1D DUP5 PUSH3 0x111D PUSH1 0x20 SHL PUSH1 0x20 SHR JUMP JUMPDEST ISZERO PUSH3 0xD29 JUMPI PUSH1 0xD SLOAD SWAP1 POP JUMPDEST JUMPDEST PUSH1 0x0 DUP2 EQ DUP1 PUSH3 0xD83 JUMPI POP PUSH1 0x1C PUSH1 0x0 DUP7 PUSH20 0xFFFFFFFFFFFFFFFFFFFFFFFFFFFFFFFFFFFFFFFF AND PUSH20 0xFFFFFFFFFFFFFFFFFFFFFFFFFFFFFFFFFFFFFFFF AND DUP2 MSTORE PUSH1 0x20 ADD SWAP1 DUP2 MSTORE PUSH1 0x20 ADD PUSH1 0x0 KECCAK256 PUSH1 0x0 SWAP1 SLOAD SWAP1 PUSH2 0x100 EXP SWAP1 DIV PUSH1 0xFF AND JUMPDEST DUP1 PUSH3 0xDD8 JUMPI POP PUSH1 0x1C PUSH1 0x0 DUP6 PUSH20 0xFFFFFFFFFFFFFFFFFFFFFFFFFFFFFFFFFFFFFFFF AND PUSH20 0xFFFFFFFFFFFFFFFFFFFFFFFFFFFFFFFFFFFFFFFF AND DUP2 MSTORE PUSH1 0x20 ADD SWAP1 DUP2 MSTORE PUSH1 0x20 ADD PUSH1 0x0 KECCAK256 PUSH1 0x0 SWAP1 SLOAD SWAP1 PUSH2 0x100 EXP SWAP1 DIV PUSH1 0xFF AND JUMPDEST ISZERO PUSH3 0xDE9 JUMPI PUSH1 0x0 SWAP2 POP POP PUSH3 0xEE5 JUMP JUMPDEST PUSH2 0x2710 DUP2 DUP5 PUSH3 0xDFA SWAP2 SWAP1 PUSH3 0x1289 JUMP JUMPDEST PUSH3 0xE06 SWAP2 SWAP1 PUSH3 0x1303 JUMP JUMPDEST SWAP2 POP PUSH1 0x0 DUP3 GT ISZERO PUSH3 0xEE3 JUMPI PUSH3 0xE23 DUP3 PUSH3 0x11E0 PUSH1 0x20 SHL PUSH1 0x20 SHR JUMP JUMPDEST DUP2 PUSH1 0x4 PUSH1 0x0 ADDRESS PUSH20 0xFFFFFFFFFFFFFFFFFFFFFFFFFFFFFFFFFFFFFFFF AND PUSH20 0xFFFFFFFFFFFFFFFFFFFFFFFFFFFFFFFFFFFFFFFF AND DUP2 MSTORE PUSH1 0x20 ADD SWAP1 DUP2 MSTORE PUSH1 0x20 ADD PUSH1 0x0 KECCAK256 PUSH1 0x0 DUP3 DUP3 SLOAD PUSH3 0xE74 SWAP2 SWAP1 PUSH3 0x192A JUMP JUMPDEST SWAP3 POP POP DUP2 SWAP1 SSTORE POP ADDRESS PUSH20 0xFFFFFFFFFFFFFFFFFFFFFFFFFFFFFFFFFFFFFFFF AND DUP6 PUSH20 0xFFFFFFFFFFFFFFFFFFFFFFFFFFFFFFFFFFFFFFFF AND PUSH32 0xDDF252AD1BE2C89B69C2B068FC378DAA952BA7F163C4A11628F55A4DF523B3EF DUP5 PUSH1 0x40 MLOAD PUSH3 0xEDA SWAP2 SWAP1 PUSH3 0x190D JUMP JUMPDEST PUSH1 0x40 MLOAD DUP1 SWAP2 SUB SWAP1 LOG3 JUMPDEST POP JUMPDEST SWAP4 SWAP3 POP POP POP JUMP JUMPDEST PUSH1 0x0 DUP2 PUSH1 0x4 PUSH1 0x0 DUP6 PUSH20 0xFFFFFFFFFFFFFFFFFFFFFFFFFFFFFFFFFFFFFFFF AND PUSH20 0xFFFFFFFFFFFFFFFFFFFFFFFFFFFFFFFFFFFFFFFF AND DUP2 MSTORE PUSH1 0x20 ADD SWAP1 DUP2 MSTORE PUSH1 0x20 ADD PUSH1 0x0 KECCAK256 SLOAD PUSH3 0xF3B SWAP2 SWAP1 PUSH3 0x192A JUMP JUMPDEST SWAP1 POP PUSH3 0xF4D PUSH3 0x1173 PUSH1 0x20 SHL PUSH1 0x20 SHR JUMP JUMPDEST DUP1 ISZERO PUSH3 0xF5C JUMPI POP PUSH1 0x0 PUSH1 0x17 SLOAD GT JUMPDEST DUP1 ISZERO PUSH3 0xF91 JUMPI POP PUSH3 0xF75 DUP5 PUSH3 0x111D PUSH1 0x20 SHL PUSH1 0x20 SHR JUMP JUMPDEST DUP1 ISZERO PUSH3 0xF90 JUMPI POP PUSH3 0xF8E DUP4 PUSH3 0x118A PUSH1 0x20 SHL PUSH1 0x20 SHR JUMP JUMPDEST ISZERO JUMPDEST JUMPDEST ISZERO PUSH3 0xFF7 JUMPI PUSH1 0x0 PUSH5 0xE8D4A51000 PUSH1 0x17 SLOAD PUSH3 0xFAE SWAP2 SWAP1 PUSH3 0x192A JUMP JUMPDEST SWAP1 POP DUP1 DUP3 LT PUSH3 0xFF5 JUMPI PUSH1 0x40 MLOAD PUSH32 0x8C379A000000000000000000000000000000000000000000000000000000000 DUP2 MSTORE PUSH1 0x4 ADD PUSH3 0xFEC SWAP1 PUSH3 0x1AD6 JUMP JUMPDEST PUSH1 0x40 MLOAD DUP1 SWAP2 SUB SWAP1 REVERT JUMPDEST POP JUMPDEST SWAP4 SWAP3 POP POP POP JUMP JUMPDEST PUSH3 0x100F DUP4 PUSH3 0x111D PUSH1 0x20 SHL PUSH1 0x20 SHR JUMP JUMPDEST ISZERO DUP1 ISZERO PUSH3 0x102B JUMPI POP PUSH3 0x1029 DUP3 PUSH3 0x111D PUSH1 0x20 SHL PUSH1 0x20 SHR JUMP JUMPDEST ISZERO JUMPDEST PUSH3 0x1118 JUMPI PUSH1 0x0 PUSH1 0x18 SLOAD SUB ISZERO PUSH3 0x1118 JUMPI DUP1 PUSH1 0x14 PUSH1 0x0 DUP3 DUP3 SLOAD PUSH3 0x1050 SWAP2 SWAP1 PUSH3 0x192A JUMP JUMPDEST SWAP3 POP POP DUP2 SWAP1 SSTORE POP PUSH1 0x0 PUSH1 0x13 SLOAD SWAP1 POP PUSH1 0x0 DUP2 SUB PUSH3 0x106E JUMPI POP PUSH3 0x1118 JUMP JUMPDEST PUSH1 0x0 PUSH14 0x1B6418D0C06E3443E9854DAC0000 PUSH1 0xA0 PUSH3 0x108D SWAP2 SWAP1 PUSH3 0x1289 JUMP JUMPDEST SWAP1 POP PUSH1 0x0 DUP2 PUSH1 0x64 PUSH1 0x5 PUSH14 0x1B6418D0C06E3443E9854DAC0000 PUSH3 0x10B1 SWAP2 SWAP1 PUSH3 0x1289 JUMP JUMPDEST PUSH3 0x10BD SWAP2 SWAP1 PUSH3 0x1303 JUMP JUMPDEST DUP6 PUSH3 0x10CA SWAP2 SWAP1 PUSH3 0x1289 JUMP JUMPDEST PUSH3 0x10D6 SWAP2 SWAP1 PUSH3 0x1303 JUMP JUMPDEST SWAP1 POP DUP3 DUP2 GT ISZERO PUSH3 0x10E5 JUMPI DUP3 SWAP1 POP JUMPDEST DUP1 PUSH1 0x12 PUSH1 0x0 DUP3 DUP3 SLOAD PUSH3 0x10F9 SWAP2 SWAP1 PUSH3 0x192A JUMP JUMPDEST SWAP3 POP POP DUP2 SWAP1 SSTORE POP DUP1 DUP4 PUSH3 0x110E SWAP2 SWAP1 PUSH3 0x18D2 JUMP JUMPDEST PUSH1 0x13 DUP2 SWAP1 SSTORE POP POP POP POP JUMPDEST POP POP POP JUMP JUMPDEST PUSH1 0x0 PUSH1 0x1A PUSH1 0x0 DUP4 PUSH20 0xFFFFFFFFFFFFFFFFFFFFFFFFFFFFFFFFFFFFFFFF AND PUSH20 0xFFFFFFFFFFFFFFFFFFFFFFFFFFFFFFFFFFFFFFFF AND DUP2 MSTORE PUSH1 0x20 ADD SWAP1 DUP2 MSTORE PUSH1 0x20 ADD PUSH1 0x0 KECCAK256 PUSH1 0x0 SWAP1 SLOAD SWAP1 PUSH2 0x100 EXP SWAP1 DIV PUSH1 0xFF AND SWAP1 POP SWAP2 SWAP1 POP JUMP JUMPDEST PUSH1 0x0 PUSH1 0x15 PUSH1 0x0 SWAP1 SLOAD SWAP1 PUSH2 0x100 EXP SWAP1 DIV PUSH1 0xFF AND SWAP1 POP SWAP1 JUMP JUMPDEST PUSH1 0x0 PUSH1 0x1B PUSH1 0x0 DUP4 PUSH20 0xFFFFFFFFFFFFFFFFFFFFFFFFFFFFFFFFFFFFFFFF AND PUSH20 0xFFFFFFFFFFFFFFFFFFFFFFFFFFFFFFFFFFFFFFFF AND DUP2 MSTORE PUSH1 0x20 ADD SWAP1 DUP2 MSTORE PUSH1 0x20 ADD PUSH1 0x0 KECCAK256 PUSH1 0x0 SWAP1 SLOAD SWAP1 PUSH2 0x100 EXP SWAP1 DIV PUSH1 0xFF AND SWAP1 POP SWAP2 SWAP1 POP JUMP JUMPDEST PUSH1 0x0 PUSH2 0x2710 PUSH1 0xF SLOAD DUP4 PUSH3 0x11F5 SWAP2 SWAP1 PUSH3 0x1289 JUMP JUMPDEST PUSH3 0x1201 SWAP2 SWAP1 PUSH3 0x1303 JUMP JUMPDEST SWAP1 POP PUSH1 0x0 DUP2 DUP4 PUSH3 0x1213 SWAP2 SWAP1 PUSH3 0x18D2 JUMP JUMPDEST SWAP1 POP DUP1 PUSH1 0x10 PUSH1 0x0 DUP3 DUP3 SLOAD PUSH3 0x1229 SWAP2 SWAP1 PUSH3 0x192A JUMP JUMPDEST SWAP3 POP POP DUP2 SWAP1 SSTORE POP DUP2 PUSH1 0x11 PUSH1 0x0 DUP3 DUP3 SLOAD PUSH3 0x1244 SWAP2 SWAP1 PUSH3 0x192A JUMP JUMPDEST SWAP3 POP POP DUP2 SWAP1 SSTORE POP POP POP POP JUMP JUMPDEST PUSH1 0x0 DUP2 SWAP1 POP SWAP2 SWAP1 POP JUMP JUMPDEST PUSH32 0x4E487B7100000000000000000000000000000000000000000000000000000000 PUSH1 0x0 MSTORE PUSH1 0x11 PUSH1 0x4 MSTORE PUSH1 0x24 PUSH1 0x0 REVERT JUMPDEST PUSH1 0x0 PUSH3 0x1296 DUP3 PUSH3 0x1250 JUMP JUMPDEST SWAP2 POP PUSH3 0x12A3 DUP4 PUSH3 0x1250 JUMP JUMPDEST SWAP3 POP DUP3 DUP3 MUL PUSH3 0x12B3 DUP2 PUSH3 0x1250 JUMP JUMPDEST SWAP2 POP DUP3 DUP3 DIV DUP5 EQ DUP4 ISZERO OR PUSH3 0x12CD JUMPI PUSH3 0x12CC PUSH3 0x125A JUMP JUMPDEST JUMPDEST POP SWAP3 SWAP2 POP POP JUMP JUMPDEST PUSH32 0x4E487B7100000000000000000000000000000000000000000000000000000000 PUSH1 0x0 MSTORE PUSH1 0x12 PUSH1 0x4 MSTORE PUSH1 0x24 PUSH1 0x0 REVERT JUMPDEST PUSH1 0x0 PUSH3 0x1310 DUP3 PUSH3 0x1250 JUMP JUMPDEST SWAP2 POP PUSH3 0x131D DUP4 PUSH3 0x1250 JUMP JUMPDEST SWAP3 POP DUP3 PUSH3 0x1330 JUMPI PUSH3 0x132F PUSH3 0x12D4 JUMP JUMPDEST JUMPDEST DUP3 DUP3 DIV SWAP1 POP SWAP3 SWAP2 POP POP JUMP JUMPDEST PUSH1 0x0 PUSH20 0xFFFFFFFFFFFFFFFFFFFFFFFFFFFFFFFFFFFFFFFF DUP3 AND SWAP1 POP SWAP2 SWAP1 POP JUMP JUMPDEST PUSH1 0x0 PUSH3 0x1368 DUP3 PUSH3 0x133B JUMP JUMPDEST SWAP1 POP SWAP2 SWAP1 POP JUMP JUMPDEST PUSH3 0x137A DUP2 PUSH3 0x135B JUMP JUMPDEST DUP3 MSTORE POP POP JUMP JUMPDEST PUSH1 0x0 PUSH1 0x20 DUP3 ADD SWAP1 POP PUSH3 0x1397 PUSH1 0x0 DUP4 ADD DUP5 PUSH3 0x136F JUMP JUMPDEST SWAP3 SWAP2 POP POP JUMP JUMPDEST PUSH1 0x0 DUP2 MLOAD SWAP1 POP SWAP2 SWAP1 POP JUMP JUMPDEST PUSH32 0x4E487B7100000000000000000000000000000000000000000000000000000000 PUSH1 0x0 MSTORE PUSH1 0x41 PUSH1 0x4 MSTORE PUSH1 0x24 PUSH1 0x0 REVERT JUMPDEST PUSH32 0x4E487B7100000000000000000000000000000000000000000000000000000000 PUSH1 0x0 MSTORE PUSH1 0x22 PUSH1 0x4 MSTORE PUSH1 0x24 PUSH1 0x0 REVERT JUMPDEST PUSH1 0x0 PUSH1 0x2 DUP3 DIV SWAP1 POP PUSH1 0x1 DUP3 AND DUP1 PUSH3 0x141F JUMPI PUSH1 0x7F DUP3 AND SWAP2 POP JUMPDEST PUSH1 0x20 DUP3 LT DUP2 SUB PUSH3 0x1435 JUMPI PUSH3 0x1434 PUSH3 0x13D7 JUMP JUMPDEST JUMPDEST POP SWAP2 SWAP1 POP JUMP JUMPDEST PUSH1 0x0 DUP2 SWAP1 POP DUP2 PUSH1 0x0 MSTORE PUSH1 0x20 PUSH1 0x0 KECCAK256 SWAP1 POP SWAP2 SWAP1 POP JUMP JUMPDEST PUSH1 0x0 PUSH1 0x20 PUSH1 0x1F DUP4 ADD DIV SWAP1 POP SWAP2 SWAP1 POP JUMP JUMPDEST PUSH1 0x0 DUP3 DUP3 SHL SWAP1 POP SWAP3 SWAP2 POP POP JUMP JUMPDEST PUSH1 0x0 PUSH1 0x8 DUP4 MUL PUSH3 0x149F PUSH32 0xFFFFFFFFFFFFFFFFFFFFFFFFFFFFFFFFFFFFFFFFFFFFFFFFFFFFFFFFFFFFFFFF DUP3 PUSH3 0x1460 JUMP JUMPDEST PUSH3 0x14AB DUP7 DUP4 PUSH3 0x1460 JUMP JUMPDEST SWAP6 POP DUP1 NOT DUP5 AND SWAP4 POP DUP1 DUP7 AND DUP5 OR SWAP3 POP POP POP SWAP4 SWAP3 POP POP POP JUMP JUMPDEST PUSH1 0x0 DUP2 SWAP1 POP SWAP2 SWAP1 POP JUMP JUMPDEST PUSH1 0x0 PUSH3 0x14EE PUSH3 0x14E8 PUSH3 0x14E2 DUP5 PUSH3 0x1250 JUMP JUMPDEST PUSH3 0x14C3 JUMP JUMPDEST PUSH3 0x1250 JUMP JUMPDEST SWAP1 POP SWAP2 SWAP1 POP JUMP JUMPDEST PUSH1 0x0 DUP2 SWAP1 POP SWAP2 SWAP1 POP JUMP JUMPDEST PUSH3 0x150A DUP4 PUSH3 0x14CD JUMP JUMPDEST PUSH3 0x1522 PUSH3 0x1519 DUP3 PUSH3 0x14F5 JUMP JUMPDEST DUP5 DUP5 SLOAD PUSH3 0x146D JUMP JUMPDEST DUP3 SSTORE POP POP POP POP JUMP JUMPDEST PUSH1 0x0 SWAP1 JUMP JUMPDEST PUSH3 0x1539 PUSH3 0x152A JUMP JUMPDEST PUSH3 0x1546 DUP2 DUP5 DUP5 PUSH3 0x14FF JUMP JUMPDEST POP POP POP JUMP JUMPDEST JUMPDEST DUP2 DUP2 LT ISZERO PUSH3 0x156E JUMPI PUSH3 0x1562 PUSH1 0x0 DUP3 PUSH3 0x152F JUMP JUMPDEST PUSH1 0x1 DUP2 ADD SWAP1 POP PUSH3 0x154C JUMP JUMPDEST POP POP JUMP JUMPDEST PUSH1 0x1F DUP3 GT ISZERO PUSH3 0x15BD JUMPI PUSH3 0x1587 DUP2 PUSH3 0x143B JUMP JUMPDEST PUSH3 0x1592 DUP5 PUSH3 0x1450 JUMP JUMPDEST DUP2 ADD PUSH1 0x20 DUP6 LT ISZERO PUSH3 0x15A2 JUMPI DUP2 SWAP1 POP JUMPDEST PUSH3 0x15BA PUSH3 0x15B1 DUP6 PUSH3 0x1450 JUMP JUMPDEST DUP4 ADD DUP3 PUSH3 0x154B JUMP JUMPDEST POP POP JUMPDEST POP POP POP JUMP JUMPDEST PUSH1 0x0 DUP3 DUP3 SHR SWAP1 POP SWAP3 SWAP2 POP POP JUMP JUMPDEST PUSH1 0x0 PUSH3 0x15E2 PUSH1 0x0 NOT DUP5 PUSH1 0x8 MUL PUSH3 0x15C2 JUMP JUMPDEST NOT DUP1 DUP4 AND SWAP2 POP POP SWAP3 SWAP2 POP POP JUMP JUMPDEST PUSH1 0x0 PUSH3 0x15FD DUP4 DUP4 PUSH3 0x15CF JUMP JUMPDEST SWAP2 POP DUP3 PUSH1 0x2 MUL DUP3 OR SWAP1 POP SWAP3 SWAP2 POP POP JUMP JUMPDEST PUSH3 0x1618 DUP3 PUSH3 0x139D JUMP JUMPDEST PUSH8 0xFFFFFFFFFFFFFFFF DUP2 GT ISZERO PUSH3 0x1634 JUMPI PUSH3 0x1633 PUSH3 0x13A8 JUMP JUMPDEST JUMPDEST PUSH3 0x1640 DUP3 SLOAD PUSH3 0x1406 JUMP JUMPDEST PUSH3 0x164D DUP3 DUP3 DUP6 PUSH3 0x1572 JUMP JUMPDEST PUSH1 0x0 PUSH1 0x20 SWAP1 POP PUSH1 0x1F DUP4 GT PUSH1 0x1 DUP2 EQ PUSH3 0x1685 JUMPI PUSH1 0x0 DUP5 ISZERO PUSH3 0x1670 JUMPI DUP3 DUP8 ADD MLOAD SWAP1 POP JUMPDEST PUSH3 0x167C DUP6 DUP3 PUSH3 0x15EF JUMP JUMPDEST DUP7 SSTORE POP PUSH3 0x16EC JUMP JUMPDEST PUSH1 0x1F NOT DUP5 AND PUSH3 0x1695 DUP7 PUSH3 0x143B JUMP JUMPDEST PUSH1 0x0 JUMPDEST DUP3 DUP2 LT ISZERO PUSH3 0x16BF JUMPI DUP5 DUP10 ADD MLOAD DUP3 SSTORE PUSH1 0x1 DUP3 ADD SWAP2 POP PUSH1 0x20 DUP6 ADD SWAP5 POP PUSH1 0x20 DUP2 ADD SWAP1 POP PUSH3 0x1698 JUMP JUMPDEST DUP7 DUP4 LT ISZERO PUSH3 0x16DF JUMPI DUP5 DUP10 ADD MLOAD PUSH3 0x16DB PUSH1 0x1F DUP10 AND DUP3 PUSH3 0x15CF JUMP JUMPDEST DUP4 SSTORE POP JUMPDEST PUSH1 0x1 PUSH1 0x2 DUP9 MUL ADD DUP9 SSTORE POP POP POP JUMPDEST POP POP POP POP POP POP JUMP JUMPDEST PUSH1 0x0 DUP2 SWAP1 POP SWAP2 SWAP1 POP JUMP JUMPDEST PUSH3 0x1709 DUP2 PUSH3 0x16F4 JUMP JUMPDEST DUP3 MSTORE POP POP JUMP JUMPDEST PUSH3 0x171A DUP2 PUSH3 0x1250 JUMP JUMPDEST DUP3 MSTORE POP POP JUMP JUMPDEST PUSH1 0x0 PUSH1 0xA0 DUP3 ADD SWAP1 POP PUSH3 0x1737 PUSH1 0x0 DUP4 ADD DUP9 PUSH3 0x16FE JUMP JUMPDEST PUSH3 0x1746 PUSH1 0x20 DUP4 ADD DUP8 PUSH3 0x16FE JUMP JUMPDEST PUSH3 0x1755 PUSH1 0x40 DUP4 ADD DUP7 PUSH3 0x16FE JUMP JUMPDEST PUSH3 0x1764 PUSH1 0x60 DUP4 ADD DUP6 PUSH3 0x170F JUMP JUMPDEST PUSH3 0x1773 PUSH1 0x80 DUP4 ADD DUP5 PUSH3 0x136F JUMP JUMPDEST SWAP7 SWAP6 POP POP POP POP POP POP JUMP JUMPDEST PUSH1 0x0 DUP3 DUP3 MSTORE PUSH1 0x20 DUP3 ADD SWAP1 POP SWAP3 SWAP2 POP POP JUMP JUMPDEST PUSH1 0x0 JUMPDEST DUP4 DUP2 LT ISZERO PUSH3 0x17AE JUMPI DUP1 DUP3 ADD MLOAD DUP2 DUP5 ADD MSTORE PUSH1 0x20 DUP2 ADD SWAP1 POP PUSH3 0x1791 JUMP JUMPDEST PUSH1 0x0 DUP5 DUP5 ADD MSTORE POP POP POP POP JUMP JUMPDEST PUSH1 0x0 PUSH1 0x1F NOT PUSH1 0x1F DUP4 ADD AND SWAP1 POP SWAP2 SWAP1 POP JUMP JUMPDEST PUSH1 0x0 PUSH3 0x17D8 DUP3 PUSH3 0x139D JUMP JUMPDEST PUSH3 0x17E4 DUP2 DUP6 PUSH3 0x177D JUMP JUMPDEST SWAP4 POP PUSH3 0x17F6 DUP2 DUP6 PUSH1 0x20 DUP7 ADD PUSH3 0x178E JUMP JUMPDEST PUSH3 0x1801 DUP2 PUSH3 0x17BA JUMP JUMPDEST DUP5 ADD SWAP2 POP POP SWAP3 SWAP2 POP POP JUMP JUMPDEST PUSH1 0x0 PUSH1 0x20 DUP3 ADD SWAP1 POP DUP2 DUP2 SUB PUSH1 0x0 DUP4 ADD MSTORE PUSH3 0x1828 DUP2 DUP5 PUSH3 0x17CB JUMP JUMPDEST SWAP1 POP SWAP3 SWAP2 POP POP JUMP JUMPDEST PUSH1 0x0 DUP2 MLOAD SWAP1 POP SWAP2 SWAP1 POP JUMP JUMPDEST PUSH1 0x0 DUP2 SWAP1 POP PUSH1 0x20 DUP3 ADD SWAP1 POP SWAP2 SWAP1 POP JUMP JUMPDEST PUSH1 0x0 PUSH3 0x1859 DUP3 MLOAD PUSH3 0x16F4 JUMP JUMPDEST DUP1 SWAP2 POP POP SWAP2 SWAP1 POP JUMP JUMPDEST PUSH1 0x0 PUSH3 0x186F DUP3 PUSH3 0x1830 JUMP JUMPDEST DUP3 PUSH3 0x187B DUP5 PUSH3 0x183B JUMP JUMPDEST SWAP1 POP PUSH3 0x1888 DUP2 PUSH3 0x184B JUMP JUMPDEST SWAP3 POP PUSH1 0x20 DUP3 LT ISZERO PUSH3 0x18CB JUMPI PUSH3 0x18C6 PUSH32 0xFFFFFFFFFFFFFFFFFFFFFFFFFFFFFFFFFFFFFFFFFFFFFFFFFFFFFFFFFFFFFFFF DUP4 PUSH1 0x20 SUB PUSH1 0x8 MUL PUSH3 0x1460 JUMP JUMPDEST DUP4 AND SWAP3 POP JUMPDEST POP POP SWAP2 SWAP1 POP JUMP JUMPDEST PUSH1 0x0 PUSH3 0x18DF DUP3 PUSH3 0x1250 JUMP JUMPDEST SWAP2 POP PUSH3 0x18EC DUP4 PUSH3 0x1250 JUMP JUMPDEST SWAP3 POP DUP3 DUP3 SUB SWAP1 POP DUP2 DUP2 GT ISZERO PUSH3 0x1907 JUMPI PUSH3 0x1906 PUSH3 0x125A JUMP JUMPDEST JUMPDEST SWAP3 SWAP2 POP POP JUMP JUMPDEST PUSH1 0x0 PUSH1 0x20 DUP3 ADD SWAP1 POP PUSH3 0x1924 PUSH1 0x0 DUP4 ADD DUP5 PUSH3 0x170F JUMP JUMPDEST SWAP3 SWAP2 POP POP JUMP JUMPDEST PUSH1 0x0 PUSH3 0x1937 DUP3 PUSH3 0x1250 JUMP JUMPDEST SWAP2 POP PUSH3 0x1944 DUP4 PUSH3 0x1250 JUMP JUMPDEST SWAP3 POP DUP3 DUP3 ADD SWAP1 POP DUP1 DUP3 GT ISZERO PUSH3 0x195F JUMPI PUSH3 0x195E PUSH3 0x125A JUMP JUMPDEST JUMPDEST SWAP3 SWAP2 POP POP JUMP JUMPDEST PUSH1 0x0 PUSH1 0x60 DUP3 ADD SWAP1 POP PUSH3 0x197C PUSH1 0x0 DUP4 ADD DUP7 PUSH3 0x136F JUMP JUMPDEST PUSH3 0x198B PUSH1 0x20 DUP4 ADD DUP6 PUSH3 0x170F JUMP JUMPDEST PUSH3 0x199A PUSH1 0x40 DUP4 ADD DUP5 PUSH3 0x170F JUMP JUMPDEST SWAP5 SWAP4 POP POP POP POP JUMP JUMPDEST PUSH32 0x426F74206C6F636B656400000000000000000000000000000000000000000000 PUSH1 0x0 DUP3 ADD MSTORE POP JUMP JUMPDEST PUSH1 0x0 PUSH3 0x19DA PUSH1 0xA DUP4 PUSH3 0x177D JUMP JUMPDEST SWAP2 POP PUSH3 0x19E7 DUP3 PUSH3 0x19A2 JUMP JUMPDEST PUSH1 0x20 DUP3 ADD SWAP1 POP SWAP2 SWAP1 POP JUMP JUMPDEST PUSH1 0x0 PUSH1 0x20 DUP3 ADD SWAP1 POP DUP2 DUP2 SUB PUSH1 0x0 DUP4 ADD MSTORE PUSH3 0x1A0D DUP2 PUSH3 0x19CB JUMP JUMPDEST SWAP1 POP SWAP2 SWAP1 POP JUMP JUMPDEST PUSH32 0x4D617820746F6B656E2070657220747800000000000000000000000000000000 PUSH1 0x0 DUP3 ADD MSTORE POP JUMP JUMPDEST PUSH1 0x0 PUSH3 0x1A4C PUSH1 0x10 DUP4 PUSH3 0x177D JUMP JUMPDEST SWAP2 POP PUSH3 0x1A59 DUP3 PUSH3 0x1A14 JUMP JUMPDEST PUSH1 0x20 DUP3 ADD SWAP1 POP SWAP2 SWAP1 POP JUMP JUMPDEST PUSH1 0x0 PUSH1 0x20 DUP3 ADD SWAP1 POP DUP2 DUP2 SUB PUSH1 0x0 DUP4 ADD MSTORE PUSH3 0x1A7F DUP2 PUSH3 0x1A3D JUMP JUMPDEST SWAP1 POP SWAP2 SWAP1 POP JUMP JUMPDEST PUSH32 0x4D617820746F6B656E20706572206163636F756E740000000000000000000000 PUSH1 0x0 DUP3 ADD MSTORE POP JUMP JUMPDEST PUSH1 0x0 PUSH3 0x1ABE PUSH1 0x15 DUP4 PUSH3 0x177D JUMP JUMPDEST SWAP2 POP PUSH3 0x1ACB DUP3 PUSH3 0x1A86 JUMP JUMPDEST PUSH1 0x20 DUP3 ADD SWAP1 POP SWAP2 SWAP1 POP JUMP JUMPDEST PUSH1 0x0 PUSH1 0x20 DUP3 ADD SWAP1 POP DUP2 DUP2 SUB PUSH1 0x0 DUP4 ADD MSTORE PUSH3 0x1AF1 DUP2 PUSH3 0x1AAF JUMP JUMPDEST SWAP1 POP SWAP2 SWAP1 POP JUMP JUMPDEST PUSH1 0x80 MLOAD PUSH1 0xA0 MLOAD PUSH1 0xC0 MLOAD PUSH1 0xE0 MLOAD PUSH2 0x100 MLOAD PUSH2 0x120 MLOAD PUSH2 0x140 MLOAD PUSH2 0x160 MLOAD PUSH2 0x180 MLOAD PUSH2 0x1A0 MLOAD PUSH2 0x1C0 MLOAD PUSH2 0x1E0 MLOAD PUSH2 0x4DF4 PUSH3 0x1BAD PUSH1 0x0 CODECOPY PUSH1 0x0 DUP2 DUP2 PUSH2 0x1333 ADD MSTORE PUSH2 0x31F4 ADD MSTORE PUSH1 0x0 DUP2 DUP2 PUSH2 0x11A7 ADD MSTORE PUSH2 0x311B ADD MSTORE PUSH1 0x0 DUP2 DUP2 PUSH2 0x1C78 ADD MSTORE PUSH2 0x1E9D ADD MSTORE PUSH1 0x0 DUP2 DUP2 PUSH2 0xF54 ADD MSTORE DUP2 DUP2 PUSH2 0x2499 ADD MSTORE PUSH2 0x24C0 ADD MSTORE PUSH1 0x0 PUSH2 0x1273 ADD MSTORE PUSH1 0x0 PUSH2 0x2461 ADD MSTORE PUSH1 0x0 PUSH2 0x2426 ADD MSTORE PUSH1 0x0 PUSH2 0x2AAC ADD MSTORE PUSH1 0x0 PUSH2 0x2A8B ADD MSTORE PUSH1 0x0 PUSH2 0x21DB ADD MSTORE PUSH1 0x0 PUSH2 0x2231 ADD MSTORE PUSH1 0x0 PUSH2 0x225A ADD MSTORE PUSH2 0x4DF4 PUSH1 0x0 RETURN INVALID PUSH1 0x80 PUSH1 0x40 MSTORE PUSH1 0x4 CALLDATASIZE LT PUSH2 0x39B JUMPI PUSH1 0x0 CALLDATALOAD PUSH1 0xE0 SHR DUP1 PUSH4 0x7ECEBE00 GT PUSH2 0x1DC JUMPI DUP1 PUSH4 0xB46A8022 GT PUSH2 0x102 JUMPI DUP1 PUSH4 0xE5711E8B GT PUSH2 0xA0 JUMPI DUP1 PUSH4 0xF2FDE38B GT PUSH2 0x6F JUMPI DUP1 PUSH4 0xF2FDE38B EQ PUSH2 0xDA9 JUMPI DUP1 PUSH4 0xF7CE4479 EQ PUSH2 0xDD2 JUMPI DUP1 PUSH4 0xFC3C28AF EQ PUSH2 0xDFB JUMPI DUP1 PUSH4 0xFD4ADC6A EQ PUSH2 0xE26 JUMPI PUSH2 0x3A2 JUMP JUMPDEST DUP1 PUSH4 0xE5711E8B EQ PUSH2 0xCEF JUMPI DUP1 PUSH4 0xE86BF164 EQ PUSH2 0xD18 JUMPI DUP1 PUSH4 0xEAA4560D EQ PUSH2 0xD55 JUMPI DUP1 PUSH4 0xEE0F6601 EQ PUSH2 0xD80 JUMPI PUSH2 0x3A2 JUMP JUMPDEST DUP1 PUSH4 0xC29C669A GT PUSH2 0xDC JUMPI DUP1 PUSH4 0xC29C669A EQ PUSH2 0xC35 JUMPI DUP1 PUSH4 0xD505ACCF EQ PUSH2 0xC5E JUMPI DUP1 PUSH4 0xDD62ED3E EQ PUSH2 0xC87 JUMPI DUP1 PUSH4 0xE08E8F88 EQ PUSH2 0xCC4 JUMPI PUSH2 0x3A2 JUMP JUMPDEST DUP1 PUSH4 0xB46A8022 EQ PUSH2 0xBB8 JUMPI DUP1 PUSH4 0xB53D7C97 EQ PUSH2 0xBE3 JUMPI DUP1 PUSH4 0xC0654EFD EQ PUSH2 0xC0C JUMPI PUSH2 0x3A2 JUMP JUMPDEST DUP1 PUSH4 0x95D89B41 GT PUSH2 0x17A JUMPI DUP1 PUSH4 0x9E252F00 GT PUSH2 0x149 JUMPI DUP1 PUSH4 0x9E252F00 EQ PUSH2 0xAEA JUMPI DUP1 PUSH4 0xA0B2FB85 EQ PUSH2 0xB27 JUMPI DUP1 PUSH4 0xA6C2A788 EQ PUSH2 0xB50 JUMPI DUP1 PUSH4 0xA9059CBB EQ PUSH2 0xB7B JUMPI PUSH2 0x3A2 JUMP JUMPDEST DUP1 PUSH4 0x95D89B41 EQ PUSH2 0xA44 JUMPI DUP1 PUSH4 0x9CD441DA EQ PUSH2 0xA6F JUMPI DUP1 PUSH4 0x9DA793D0 EQ PUSH2 0xA98 JUMPI DUP1 PUSH4 0x9E1B0045 EQ PUSH2 0xAC1 JUMPI PUSH2 0x3A2 JUMP JUMPDEST DUP1 PUSH4 0x84B0196E GT PUSH2 0x1B6 JUMPI DUP1 PUSH4 0x84B0196E EQ PUSH2 0x992 JUMPI DUP1 PUSH4 0x85B27C85 EQ PUSH2 0x9C3 JUMPI DUP1 PUSH4 0x86E476DD EQ PUSH2 0x9EE JUMPI DUP1 PUSH4 0x8DA5CB5B EQ PUSH2 0xA19 JUMPI PUSH2 0x3A2 JUMP JUMPDEST DUP1 PUSH4 0x7ECEBE00 EQ PUSH2 0x8FF JUMPI DUP1 PUSH4 0x844284D7 EQ PUSH2 0x93C JUMPI DUP1 PUSH4 0x846EE64F EQ PUSH2 0x967 JUMPI PUSH2 0x3A2 JUMP JUMPDEST DUP1 PUSH4 0x3644E515 GT PUSH2 0x2C1 JUMPI DUP1 PUSH4 0x4F02632B GT PUSH2 0x25F JUMPI DUP1 PUSH4 0x715018A6 GT PUSH2 0x22E JUMPI DUP1 PUSH4 0x715018A6 EQ PUSH2 0x869 JUMPI DUP1 PUSH4 0x72854D9D EQ PUSH2 0x880 JUMPI DUP1 PUSH4 0x79CC6790 EQ PUSH2 0x8AB JUMPI DUP1 PUSH4 0x7DF405A4 EQ PUSH2 0x8D4 JUMPI PUSH2 0x3A2 JUMP JUMPDEST DUP1 PUSH4 0x4F02632B EQ PUSH2 0x7AB JUMPI DUP1 PUSH4 0x6D800A3C EQ PUSH2 0x7D6 JUMPI DUP1 PUSH4 0x6FB1896C EQ PUSH2 0x801 JUMPI DUP1 PUSH4 0x70A08231 EQ PUSH2 0x82C JUMPI PUSH2 0x3A2 JUMP JUMPDEST DUP1 PUSH4 0x420D39F0 GT PUSH2 0x29B JUMPI DUP1 PUSH4 0x420D39F0 EQ PUSH2 0x703 JUMPI DUP1 PUSH4 0x42966C68 EQ PUSH2 0x72C JUMPI DUP1 PUSH4 0x48077144 EQ PUSH2 0x755 JUMPI DUP1 PUSH4 0x49BD5A5E EQ PUSH2 0x780 JUMPI PUSH2 0x3A2 JUMP JUMPDEST DUP1 PUSH4 0x3644E515 EQ PUSH2 0x684 JUMPI DUP1 PUSH4 0x39FB86C5 EQ PUSH2 0x6AF JUMPI DUP1 PUSH4 0x3D740C2B EQ PUSH2 0x6D8 JUMPI PUSH2 0x3A2 JUMP JUMPDEST DUP1 PUSH4 0x18160DDD GT PUSH2 0x339 JUMPI DUP1 PUSH4 0x2B0D6C37 GT PUSH2 0x308 JUMPI DUP1 PUSH4 0x2B0D6C37 EQ PUSH2 0x5C6 JUMPI DUP1 PUSH4 0x3014BA1B EQ PUSH2 0x5F1 JUMPI DUP1 PUSH4 0x313CE567 EQ PUSH2 0x61C JUMPI DUP1 PUSH4 0x31446125 EQ PUSH2 0x647 JUMPI PUSH2 0x3A2 JUMP JUMPDEST DUP1 PUSH4 0x18160DDD EQ PUSH2 0x50A JUMPI DUP1 PUSH4 0x194C6407 EQ PUSH2 0x535 JUMPI DUP1 PUSH4 0x1A79444E EQ PUSH2 0x55E JUMPI DUP1 PUSH4 0x23B872DD EQ PUSH2 0x589 JUMPI PUSH2 0x3A2 JUMP JUMPDEST DUP1 PUSH4 0xF1293B0 GT PUSH2 0x375 JUMPI DUP1 PUSH4 0xF1293B0 EQ PUSH2 0x44C JUMPI DUP1 PUSH4 0x131E00B7 EQ PUSH2 0x477 JUMPI DUP1 PUSH4 0x139ADACC EQ PUSH2 0x4B4 JUMPI DUP1 PUSH4 0x1694505E EQ PUSH2 0x4DF JUMPI PUSH2 0x3A2 JUMP JUMPDEST DUP1 PUSH4 0x6FDDE03 EQ PUSH2 0x3A7 JUMPI DUP1 PUSH4 0x95EA7B3 EQ PUSH2 0x3D2 JUMPI DUP1 PUSH4 0xB0FD47E EQ PUSH2 0x40F JUMPI PUSH2 0x3A2 JUMP JUMPDEST CALLDATASIZE PUSH2 0x3A2 JUMPI STOP JUMPDEST PUSH1 0x0 DUP1 REVERT JUMPDEST CALLVALUE DUP1 ISZERO PUSH2 0x3B3 JUMPI PUSH1 0x0 DUP1 REVERT JUMPDEST POP PUSH2 0x3BC PUSH2 0xE51 JUMP JUMPDEST PUSH1 0x40 MLOAD PUSH2 0x3C9 SWAP2 SWAP1 PUSH2 0x3BF1 JUMP JUMPDEST PUSH1 0x40 MLOAD DUP1 SWAP2 SUB SWAP1 RETURN JUMPDEST CALLVALUE DUP1 ISZERO PUSH2 0x3DE JUMPI PUSH1 0x0 DUP1 REVERT JUMPDEST POP PUSH2 0x3F9 PUSH1 0x4 DUP1 CALLDATASIZE SUB DUP2 ADD SWAP1 PUSH2 0x3F4 SWAP2 SWAP1 PUSH2 0x3CAC JUMP JUMPDEST PUSH2 0xEE3 JUMP JUMPDEST PUSH1 0x40 MLOAD PUSH2 0x406 SWAP2 SWAP1 PUSH2 0x3D07 JUMP JUMPDEST PUSH1 0x40 MLOAD DUP1 SWAP2 SUB SWAP1 RETURN JUMPDEST CALLVALUE DUP1 ISZERO PUSH2 0x41B JUMPI PUSH1 0x0 DUP1 REVERT JUMPDEST POP PUSH2 0x436 PUSH1 0x4 DUP1 CALLDATASIZE SUB DUP2 ADD SWAP1 PUSH2 0x431 SWAP2 SWAP1 PUSH2 0x3D22 JUMP JUMPDEST PUSH2 0xF06 JUMP JUMPDEST PUSH1 0x40 MLOAD PUSH2 0x443 SWAP2 SWAP1 PUSH2 0x3D07 JUMP JUMPDEST PUSH1 0x40 MLOAD DUP1 SWAP2 SUB SWAP1 RETURN JUMPDEST CALLVALUE DUP1 ISZERO PUSH2 0x458 JUMPI PUSH1 0x0 DUP1 REVERT JUMPDEST POP PUSH2 0x461 PUSH2 0xF26 JUMP JUMPDEST PUSH1 0x40 MLOAD PUSH2 0x46E SWAP2 SWAP1 PUSH2 0x3D5E JUMP JUMPDEST PUSH1 0x40 MLOAD DUP1 SWAP2 SUB SWAP1 RETURN JUMPDEST CALLVALUE DUP1 ISZERO PUSH2 0x483 JUMPI PUSH1 0x0 DUP1 REVERT JUMPDEST POP PUSH2 0x49E PUSH1 0x4 DUP1 CALLDATASIZE SUB DUP2 ADD SWAP1 PUSH2 0x499 SWAP2 SWAP1 PUSH2 0x3D22 JUMP JUMPDEST PUSH2 0xF2C JUMP JUMPDEST PUSH1 0x40 MLOAD PUSH2 0x4AB SWAP2 SWAP1 PUSH2 0x3D07 JUMP JUMPDEST PUSH1 0x40 MLOAD DUP1 SWAP2 SUB SWAP1 RETURN JUMPDEST CALLVALUE DUP1 ISZERO PUSH2 0x4C0 JUMPI PUSH1 0x0 DUP1 REVERT JUMPDEST POP PUSH2 0x4C9 PUSH2 0xF4C JUMP JUMPDEST PUSH1 0x40 MLOAD PUSH2 0x4D6 SWAP2 SWAP1 PUSH2 0x3D5E JUMP JUMPDEST PUSH1 0x40 MLOAD DUP1 SWAP2 SUB SWAP1 RETURN JUMPDEST CALLVALUE DUP1 ISZERO PUSH2 0x4EB JUMPI PUSH1 0x0 DUP1 REVERT JUMPDEST POP PUSH2 0x4F4 PUSH2 0xF52 JUMP JUMPDEST PUSH1 0x40 MLOAD PUSH2 0x501 SWAP2 SWAP1 PUSH2 0x3DD8 JUMP JUMPDEST PUSH1 0x40 MLOAD DUP1 SWAP2 SUB SWAP1 RETURN JUMPDEST CALLVALUE DUP1 ISZERO PUSH2 0x516 JUMPI PUSH1 0x0 DUP1 REVERT JUMPDEST POP PUSH2 0x51F PUSH2 0xF76 JUMP JUMPDEST PUSH1 0x40 MLOAD PUSH2 0x52C SWAP2 SWAP1 PUSH2 0x3D5E JUMP JUMPDEST PUSH1 0x40 MLOAD DUP1 SWAP2 SUB SWAP1 RETURN JUMPDEST CALLVALUE DUP1 ISZERO PUSH2 0x541 JUMPI PUSH1 0x0 DUP1 REVERT JUMPDEST POP PUSH2 0x55C PUSH1 0x4 DUP1 CALLDATASIZE SUB DUP2 ADD SWAP1 PUSH2 0x557 SWAP2 SWAP1 PUSH2 0x3DF3 JUMP JUMPDEST PUSH2 0xF80 JUMP JUMPDEST STOP JUMPDEST CALLVALUE DUP1 ISZERO PUSH2 0x56A JUMPI PUSH1 0x0 DUP1 REVERT JUMPDEST POP PUSH2 0x573 PUSH2 0x10EE JUMP JUMPDEST PUSH1 0x40 MLOAD PUSH2 0x580 SWAP2 SWAP1 PUSH2 0x3D5E JUMP JUMPDEST PUSH1 0x40 MLOAD DUP1 SWAP2 SUB SWAP1 RETURN JUMPDEST CALLVALUE DUP1 ISZERO PUSH2 0x595 JUMPI PUSH1 0x0 DUP1 REVERT JUMPDEST POP PUSH2 0x5B0 PUSH1 0x4 DUP1 CALLDATASIZE SUB DUP2 ADD SWAP1 PUSH2 0x5AB SWAP2 SWAP1 PUSH2 0x3E33 JUMP JUMPDEST PUSH2 0x1170 JUMP JUMPDEST PUSH1 0x40 MLOAD PUSH2 0x5BD SWAP2 SWAP1 PUSH2 0x3D07 JUMP JUMPDEST PUSH1 0x40 MLOAD DUP1 SWAP2 SUB SWAP1 RETURN JUMPDEST CALLVALUE DUP1 ISZERO PUSH2 0x5D2 JUMPI PUSH1 0x0 DUP1 REVERT JUMPDEST POP PUSH2 0x5DB PUSH2 0x119F JUMP JUMPDEST PUSH1 0x40 MLOAD PUSH2 0x5E8 SWAP2 SWAP1 PUSH2 0x3D5E JUMP JUMPDEST PUSH1 0x40 MLOAD DUP1 SWAP2 SUB SWAP1 RETURN JUMPDEST CALLVALUE DUP1 ISZERO PUSH2 0x5FD JUMPI PUSH1 0x0 DUP1 REVERT JUMPDEST POP PUSH2 0x606 PUSH2 0x11A5 JUMP JUMPDEST PUSH1 0x40 MLOAD PUSH2 0x613 SWAP2 SWAP1 PUSH2 0x3D5E JUMP JUMPDEST PUSH1 0x40 MLOAD DUP1 SWAP2 SUB SWAP1 RETURN JUMPDEST CALLVALUE DUP1 ISZERO PUSH2 0x628 JUMPI PUSH1 0x0 DUP1 REVERT JUMPDEST POP PUSH2 0x631 PUSH2 0x11C9 JUMP JUMPDEST PUSH1 0x40 MLOAD PUSH2 0x63E SWAP2 SWAP1 PUSH2 0x3EA2 JUMP JUMPDEST PUSH1 0x40 MLOAD DUP1 SWAP2 SUB SWAP1 RETURN JUMPDEST CALLVALUE DUP1 ISZERO PUSH2 0x653 JUMPI PUSH1 0x0 DUP1 REVERT JUMPDEST POP PUSH2 0x66E PUSH1 0x4 DUP1 CALLDATASIZE SUB DUP2 ADD SWAP1 PUSH2 0x669 SWAP2 SWAP1 PUSH2 0x3D22 JUMP JUMPDEST PUSH2 0x11D2 JUMP JUMPDEST PUSH1 0x40 MLOAD PUSH2 0x67B SWAP2 SWAP1 PUSH2 0x3D07 JUMP JUMPDEST PUSH1 0x40 MLOAD DUP1 SWAP2 SUB SWAP1 RETURN JUMPDEST CALLVALUE DUP1 ISZERO PUSH2 0x690 JUMPI PUSH1 0x0 DUP1 REVERT JUMPDEST POP PUSH2 0x699 PUSH2 0x11F2 JUMP JUMPDEST PUSH1 0x40 MLOAD PUSH2 0x6A6 SWAP2 SWAP1 PUSH2 0x3ED6 JUMP JUMPDEST PUSH1 0x40 MLOAD DUP1 SWAP2 SUB SWAP1 RETURN JUMPDEST CALLVALUE DUP1 ISZERO PUSH2 0x6BB JUMPI PUSH1 0x0 DUP1 REVERT JUMPDEST POP PUSH2 0x6D6 PUSH1 0x4 DUP1 CALLDATASIZE SUB DUP2 ADD SWAP1 PUSH2 0x6D1 SWAP2 SWAP1 PUSH2 0x3F1D JUMP JUMPDEST PUSH2 0x1201 JUMP JUMPDEST STOP JUMPDEST CALLVALUE DUP1 ISZERO PUSH2 0x6E4 JUMPI PUSH1 0x0 DUP1 REVERT JUMPDEST POP PUSH2 0x6ED PUSH2 0x1217 JUMP JUMPDEST PUSH1 0x40 MLOAD PUSH2 0x6FA SWAP2 SWAP1 PUSH2 0x3F6C JUMP JUMPDEST PUSH1 0x40 MLOAD DUP1 SWAP2 SUB SWAP1 RETURN JUMPDEST CALLVALUE DUP1 ISZERO PUSH2 0x70F JUMPI PUSH1 0x0 DUP1 REVERT JUMPDEST POP PUSH2 0x72A PUSH1 0x4 DUP1 CALLDATASIZE SUB DUP2 ADD SWAP1 PUSH2 0x725 SWAP2 SWAP1 PUSH2 0x3F87 JUMP JUMPDEST PUSH2 0x123D JUMP JUMPDEST STOP JUMPDEST CALLVALUE DUP1 ISZERO PUSH2 0x738 JUMPI PUSH1 0x0 DUP1 REVERT JUMPDEST POP PUSH2 0x753 PUSH1 0x4 DUP1 CALLDATASIZE SUB DUP2 ADD SWAP1 PUSH2 0x74E SWAP2 SWAP1 PUSH2 0x3FC7 JUMP JUMPDEST PUSH2 0x1257 JUMP JUMPDEST STOP JUMPDEST CALLVALUE DUP1 ISZERO PUSH2 0x761 JUMPI PUSH1 0x0 DUP1 REVERT JUMPDEST POP PUSH2 0x76A PUSH2 0x126B JUMP JUMPDEST PUSH1 0x40 MLOAD PUSH2 0x777 SWAP2 SWAP1 PUSH2 0x3D5E JUMP JUMPDEST PUSH1 0x40 MLOAD DUP1 SWAP2 SUB SWAP1 RETURN JUMPDEST CALLVALUE DUP1 ISZERO PUSH2 0x78C JUMPI PUSH1 0x0 DUP1 REVERT JUMPDEST POP PUSH2 0x795 PUSH2 0x1271 JUMP JUMPDEST PUSH1 0x40 MLOAD PUSH2 0x7A2 SWAP2 SWAP1 PUSH2 0x3F6C JUMP JUMPDEST PUSH1 0x40 MLOAD DUP1 SWAP2 SUB SWAP1 RETURN JUMPDEST CALLVALUE DUP1 ISZERO PUSH2 0x7B7 JUMPI PUSH1 0x0 DUP1 REVERT JUMPDEST POP PUSH2 0x7C0 PUSH2 0x1295 JUMP JUMPDEST PUSH1 0x40 MLOAD PUSH2 0x7CD SWAP2 SWAP1 PUSH2 0x3F6C JUMP JUMPDEST PUSH1 0x40 MLOAD DUP1 SWAP2 SUB SWAP1 RETURN JUMPDEST CALLVALUE DUP1 ISZERO PUSH2 0x7E2 JUMPI PUSH1 0x0 DUP1 REVERT JUMPDEST POP PUSH2 0x7EB PUSH2 0x12BB JUMP JUMPDEST PUSH1 0x40 MLOAD PUSH2 0x7F8 SWAP2 SWAP1 PUSH2 0x3D07 JUMP JUMPDEST PUSH1 0x40 MLOAD DUP1 SWAP2 SUB SWAP1 RETURN JUMPDEST CALLVALUE DUP1 ISZERO PUSH2 0x80D JUMPI PUSH1 0x0 DUP1 REVERT JUMPDEST POP PUSH2 0x816 PUSH2 0x12CE JUMP JUMPDEST PUSH1 0x40 MLOAD PUSH2 0x823 SWAP2 SWAP1 PUSH2 0x3D5E JUMP JUMPDEST PUSH1 0x40 MLOAD DUP1 SWAP2 SUB SWAP1 RETURN JUMPDEST CALLVALUE DUP1 ISZERO PUSH2 0x838 JUMPI PUSH1 0x0 DUP1 REVERT JUMPDEST POP PUSH2 0x853 PUSH1 0x4 DUP1 CALLDATASIZE SUB DUP2 ADD SWAP1 PUSH2 0x84E SWAP2 SWAP1 PUSH2 0x3D22 JUMP JUMPDEST PUSH2 0x12D4 JUMP JUMPDEST PUSH1 0x40 MLOAD PUSH2 0x860 SWAP2 SWAP1 PUSH2 0x3D5E JUMP JUMPDEST PUSH1 0x40 MLOAD DUP1 SWAP2 SUB SWAP1 RETURN JUMPDEST CALLVALUE DUP1 ISZERO PUSH2 0x875 JUMPI PUSH1 0x0 DUP1 REVERT JUMPDEST POP PUSH2 0x87E PUSH2 0x131D JUMP JUMPDEST STOP JUMPDEST CALLVALUE DUP1 ISZERO PUSH2 0x88C JUMPI PUSH1 0x0 DUP1 REVERT JUMPDEST POP PUSH2 0x895 PUSH2 0x1331 JUMP JUMPDEST PUSH1 0x40 MLOAD PUSH2 0x8A2 SWAP2 SWAP1 PUSH2 0x3D5E JUMP JUMPDEST PUSH1 0x40 MLOAD DUP1 SWAP2 SUB SWAP1 RETURN JUMPDEST CALLVALUE DUP1 ISZERO PUSH2 0x8B7 JUMPI PUSH1 0x0 DUP1 REVERT JUMPDEST POP PUSH2 0x8D2 PUSH1 0x4 DUP1 CALLDATASIZE SUB DUP2 ADD SWAP1 PUSH2 0x8CD SWAP2 SWAP1 PUSH2 0x3CAC JUMP JUMPDEST PUSH2 0x1355 JUMP JUMPDEST STOP JUMPDEST CALLVALUE DUP1 ISZERO PUSH2 0x8E0 JUMPI PUSH1 0x0 DUP1 REVERT JUMPDEST POP PUSH2 0x8E9 PUSH2 0x1375 JUMP JUMPDEST PUSH1 0x40 MLOAD PUSH2 0x8F6 SWAP2 SWAP1 PUSH2 0x3D5E JUMP JUMPDEST PUSH1 0x40 MLOAD DUP1 SWAP2 SUB SWAP1 RETURN JUMPDEST CALLVALUE DUP1 ISZERO PUSH2 0x90B JUMPI PUSH1 0x0 DUP1 REVERT JUMPDEST POP PUSH2 0x926 PUSH1 0x4 DUP1 CALLDATASIZE SUB DUP2 ADD SWAP1 PUSH2 0x921 SWAP2 SWAP1 PUSH2 0x3D22 JUMP JUMPDEST PUSH2 0x137B JUMP JUMPDEST PUSH1 0x40 MLOAD PUSH2 0x933 SWAP2 SWAP1 PUSH2 0x3D5E JUMP JUMPDEST PUSH1 0x40 MLOAD DUP1 SWAP2 SUB SWAP1 RETURN JUMPDEST CALLVALUE DUP1 ISZERO PUSH2 0x948 JUMPI PUSH1 0x0 DUP1 REVERT JUMPDEST POP PUSH2 0x951 PUSH2 0x138D JUMP JUMPDEST PUSH1 0x40 MLOAD PUSH2 0x95E SWAP2 SWAP1 PUSH2 0x3D5E JUMP JUMPDEST PUSH1 0x40 MLOAD DUP1 SWAP2 SUB SWAP1 RETURN JUMPDEST CALLVALUE DUP1 ISZERO PUSH2 0x973 JUMPI PUSH1 0x0 DUP1 REVERT JUMPDEST POP PUSH2 0x97C PUSH2 0x1393 JUMP JUMPDEST PUSH1 0x40 MLOAD PUSH2 0x989 SWAP2 SWAP1 PUSH2 0x3D5E JUMP JUMPDEST PUSH1 0x40 MLOAD DUP1 SWAP2 SUB SWAP1 RETURN JUMPDEST CALLVALUE DUP1 ISZERO PUSH2 0x99E JUMPI PUSH1 0x0 DUP1 REVERT JUMPDEST POP PUSH2 0x9A7 PUSH2 0x1483 JUMP JUMPDEST PUSH1 0x40 MLOAD PUSH2 0x9BA SWAP8 SWAP7 SWAP6 SWAP5 SWAP4 SWAP3 SWAP2 SWAP1 PUSH2 0x40ED JUMP JUMPDEST PUSH1 0x40 MLOAD DUP1 SWAP2 SUB SWAP1 RETURN JUMPDEST CALLVALUE DUP1 ISZERO PUSH2 0x9CF JUMPI PUSH1 0x0 DUP1 REVERT JUMPDEST POP PUSH2 0x9D8 PUSH2 0x152D JUMP JUMPDEST PUSH1 0x40 MLOAD PUSH2 0x9E5 SWAP2 SWAP1 PUSH2 0x3D5E JUMP JUMPDEST PUSH1 0x40 MLOAD DUP1 SWAP2 SUB SWAP1 RETURN JUMPDEST CALLVALUE DUP1 ISZERO PUSH2 0x9FA JUMPI PUSH1 0x0 DUP1 REVERT JUMPDEST POP PUSH2 0xA03 PUSH2 0x1533 JUMP JUMPDEST PUSH1 0x40 MLOAD PUSH2 0xA10 SWAP2 SWAP1 PUSH2 0x3F6C JUMP JUMPDEST PUSH1 0x40 MLOAD DUP1 SWAP2 SUB SWAP1 RETURN JUMPDEST CALLVALUE DUP1 ISZERO PUSH2 0xA25 JUMPI PUSH1 0x0 DUP1 REVERT JUMPDEST POP PUSH2 0xA2E PUSH2 0x1559 JUMP JUMPDEST PUSH1 0x40 MLOAD PUSH2 0xA3B SWAP2 SWAP1 PUSH2 0x3F6C JUMP JUMPDEST PUSH1 0x40 MLOAD DUP1 SWAP2 SUB SWAP1 RETURN JUMPDEST CALLVALUE DUP1 ISZERO PUSH2 0xA50 JUMPI PUSH1 0x0 DUP1 REVERT JUMPDEST POP PUSH2 0xA59 PUSH2 0x1582 JUMP JUMPDEST PUSH1 0x40 MLOAD PUSH2 0xA66 SWAP2 SWAP1 PUSH2 0x3BF1 JUMP JUMPDEST PUSH1 0x40 MLOAD DUP1 SWAP2 SUB SWAP1 RETURN JUMPDEST CALLVALUE DUP1 ISZERO PUSH2 0xA7B JUMPI PUSH1 0x0 DUP1 REVERT JUMPDEST POP PUSH2 0xA96 PUSH1 0x4 DUP1 CALLDATASIZE SUB DUP2 ADD SWAP1 PUSH2 0xA91 SWAP2 SWAP1 PUSH2 0x3F87 JUMP JUMPDEST PUSH2 0x1614 JUMP JUMPDEST STOP JUMPDEST CALLVALUE DUP1 ISZERO PUSH2 0xAA4 JUMPI PUSH1 0x0 DUP1 REVERT JUMPDEST POP PUSH2 0xABF PUSH1 0x4 DUP1 CALLDATASIZE SUB DUP2 ADD SWAP1 PUSH2 0xABA SWAP2 SWAP1 PUSH2 0x4171 JUMP JUMPDEST PUSH2 0x166F JUMP JUMPDEST STOP JUMPDEST CALLVALUE DUP1 ISZERO PUSH2 0xACD JUMPI PUSH1 0x0 DUP1 REVERT JUMPDEST POP PUSH2 0xAE8 PUSH1 0x4 DUP1 CALLDATASIZE SUB DUP2 ADD SWAP1 PUSH2 0xAE3 SWAP2 SWAP1 PUSH2 0x3F87 JUMP JUMPDEST PUSH2 0x1694 JUMP JUMPDEST STOP JUMPDEST CALLVALUE DUP1 ISZERO PUSH2 0xAF6 JUMPI PUSH1 0x0 DUP1 REVERT JUMPDEST POP PUSH2 0xB11 PUSH1 0x4 DUP1 CALLDATASIZE SUB DUP2 ADD SWAP1 PUSH2 0xB0C SWAP2 SWAP1 PUSH2 0x3FC7 JUMP JUMPDEST PUSH2 0x16F6 JUMP JUMPDEST PUSH1 0x40 MLOAD PUSH2 0xB1E SWAP2 SWAP1 PUSH2 0x3D07 JUMP JUMPDEST PUSH1 0x40 MLOAD DUP1 SWAP2 SUB SWAP1 RETURN JUMPDEST CALLVALUE DUP1 ISZERO PUSH2 0xB33 JUMPI PUSH1 0x0 DUP1 REVERT JUMPDEST POP PUSH2 0xB4E PUSH1 0x4 DUP1 CALLDATASIZE SUB DUP2 ADD SWAP1 PUSH2 0xB49 SWAP2 SWAP1 PUSH2 0x3F1D JUMP JUMPDEST PUSH2 0x173C JUMP JUMPDEST STOP JUMPDEST CALLVALUE DUP1 ISZERO PUSH2 0xB5C JUMPI PUSH1 0x0 DUP1 REVERT JUMPDEST POP PUSH2 0xB65 PUSH2 0x1752 JUMP JUMPDEST PUSH1 0x40 MLOAD PUSH2 0xB72 SWAP2 SWAP1 PUSH2 0x3D5E JUMP JUMPDEST PUSH1 0x40 MLOAD DUP1 SWAP2 SUB SWAP1 RETURN JUMPDEST CALLVALUE DUP1 ISZERO PUSH2 0xB87 JUMPI PUSH1 0x0 DUP1 REVERT JUMPDEST POP PUSH2 0xBA2 PUSH1 0x4 DUP1 CALLDATASIZE SUB DUP2 ADD SWAP1 PUSH2 0xB9D SWAP2 SWAP1 PUSH2 0x3CAC JUMP JUMPDEST PUSH2 0x1758 JUMP JUMPDEST PUSH1 0x40 MLOAD PUSH2 0xBAF SWAP2 SWAP1 PUSH2 0x3D07 JUMP JUMPDEST PUSH1 0x40 MLOAD DUP1 SWAP2 SUB SWAP1 RETURN JUMPDEST CALLVALUE DUP1 ISZERO PUSH2 0xBC4 JUMPI PUSH1 0x0 DUP1 REVERT JUMPDEST POP PUSH2 0xBCD PUSH2 0x177B JUMP JUMPDEST PUSH1 0x40 MLOAD PUSH2 0xBDA SWAP2 SWAP1 PUSH2 0x3D5E JUMP JUMPDEST PUSH1 0x40 MLOAD DUP1 SWAP2 SUB SWAP1 RETURN JUMPDEST CALLVALUE DUP1 ISZERO PUSH2 0xBEF JUMPI PUSH1 0x0 DUP1 REVERT JUMPDEST POP PUSH2 0xC0A PUSH1 0x4 DUP1 CALLDATASIZE SUB DUP2 ADD SWAP1 PUSH2 0xC05 SWAP2 SWAP1 PUSH2 0x3DF3 JUMP JUMPDEST PUSH2 0x17FD JUMP JUMPDEST STOP JUMPDEST CALLVALUE DUP1 ISZERO PUSH2 0xC18 JUMPI PUSH1 0x0 DUP1 REVERT JUMPDEST POP PUSH2 0xC33 PUSH1 0x4 DUP1 CALLDATASIZE SUB DUP2 ADD SWAP1 PUSH2 0xC2E SWAP2 SWAP1 PUSH2 0x419E JUMP JUMPDEST PUSH2 0x1874 JUMP JUMPDEST STOP JUMPDEST CALLVALUE DUP1 ISZERO PUSH2 0xC41 JUMPI PUSH1 0x0 DUP1 REVERT JUMPDEST POP PUSH2 0xC5C PUSH1 0x4 DUP1 CALLDATASIZE SUB DUP2 ADD SWAP1 PUSH2 0xC57 SWAP2 SWAP1 PUSH2 0x3F1D JUMP JUMPDEST PUSH2 0x193E JUMP JUMPDEST STOP JUMPDEST CALLVALUE DUP1 ISZERO PUSH2 0xC6A JUMPI PUSH1 0x0 DUP1 REVERT JUMPDEST POP PUSH2 0xC85 PUSH1 0x4 DUP1 CALLDATASIZE SUB DUP2 ADD SWAP1 PUSH2 0xC80 SWAP2 SWAP1 PUSH2 0x425D JUMP JUMPDEST PUSH2 0x19DA JUMP JUMPDEST STOP JUMPDEST CALLVALUE DUP1 ISZERO PUSH2 0xC93 JUMPI PUSH1 0x0 DUP1 REVERT JUMPDEST POP PUSH2 0xCAE PUSH1 0x4 DUP1 CALLDATASIZE SUB DUP2 ADD SWAP1 PUSH2 0xCA9 SWAP2 SWAP1 PUSH2 0x3DF3 JUMP JUMPDEST PUSH2 0x1B22 JUMP JUMPDEST PUSH1 0x40 MLOAD PUSH2 0xCBB SWAP2 SWAP1 PUSH2 0x3D5E JUMP JUMPDEST PUSH1 0x40 MLOAD DUP1 SWAP2 SUB SWAP1 RETURN JUMPDEST CALLVALUE DUP1 ISZERO PUSH2 0xCD0 JUMPI PUSH1 0x0 DUP1 REVERT JUMPDEST POP PUSH2 0xCD9 PUSH2 0x1BA9 JUMP JUMPDEST PUSH1 0x40 MLOAD PUSH2 0xCE6 SWAP2 SWAP1 PUSH2 0x3D5E JUMP JUMPDEST PUSH1 0x40 MLOAD DUP1 SWAP2 SUB SWAP1 RETURN JUMPDEST CALLVALUE DUP1 ISZERO PUSH2 0xCFB JUMPI PUSH1 0x0 DUP1 REVERT JUMPDEST POP PUSH2 0xD16 PUSH1 0x4 DUP1 CALLDATASIZE SUB DUP2 ADD SWAP1 PUSH2 0xD11 SWAP2 SWAP1 PUSH2 0x3E33 JUMP JUMPDEST PUSH2 0x1BAF JUMP JUMPDEST STOP JUMPDEST CALLVALUE DUP1 ISZERO PUSH2 0xD24 JUMPI PUSH1 0x0 DUP1 REVERT JUMPDEST POP PUSH2 0xD3F PUSH1 0x4 DUP1 CALLDATASIZE SUB DUP2 ADD SWAP1 PUSH2 0xD3A SWAP2 SWAP1 PUSH2 0x3D22 JUMP JUMPDEST PUSH2 0x1C4E JUMP JUMPDEST PUSH1 0x40 MLOAD PUSH2 0xD4C SWAP2 SWAP1 PUSH2 0x3D5E JUMP JUMPDEST PUSH1 0x40 MLOAD DUP1 SWAP2 SUB SWAP1 RETURN JUMPDEST CALLVALUE DUP1 ISZERO PUSH2 0xD61 JUMPI PUSH1 0x0 DUP1 REVERT JUMPDEST POP PUSH2 0xD6A PUSH2 0x1C66 JUMP JUMPDEST PUSH1 0x40 MLOAD PUSH2 0xD77 SWAP2 SWAP1 PUSH2 0x3D5E JUMP JUMPDEST PUSH1 0x40 MLOAD DUP1 SWAP2 SUB SWAP1 RETURN JUMPDEST CALLVALUE DUP1 ISZERO PUSH2 0xD8C JUMPI PUSH1 0x0 DUP1 REVERT JUMPDEST POP PUSH2 0xDA7 PUSH1 0x4 DUP1 CALLDATASIZE SUB DUP2 ADD SWAP1 PUSH2 0xDA2 SWAP2 SWAP1 PUSH2 0x3D22 JUMP JUMPDEST PUSH2 0x1C6C JUMP JUMPDEST STOP JUMPDEST CALLVALUE DUP1 ISZERO PUSH2 0xDB5 JUMPI PUSH1 0x0 DUP1 REVERT JUMPDEST POP PUSH2 0xDD0 PUSH1 0x4 DUP1 CALLDATASIZE SUB DUP2 ADD SWAP1 PUSH2 0xDCB SWAP2 SWAP1 PUSH2 0x3D22 JUMP JUMPDEST PUSH2 0x1D53 JUMP JUMPDEST STOP JUMPDEST CALLVALUE DUP1 ISZERO PUSH2 0xDDE JUMPI PUSH1 0x0 DUP1 REVERT JUMPDEST POP PUSH2 0xDF9 PUSH1 0x4 DUP1 CALLDATASIZE SUB DUP2 ADD SWAP1 PUSH2 0xDF4 SWAP2 SWAP1 PUSH2 0x3D22 JUMP JUMPDEST PUSH2 0x1DD9 JUMP JUMPDEST STOP JUMPDEST CALLVALUE DUP1 ISZERO PUSH2 0xE07 JUMPI PUSH1 0x0 DUP1 REVERT JUMPDEST POP PUSH2 0xE10 PUSH2 0x1E95 JUMP JUMPDEST PUSH1 0x40 MLOAD PUSH2 0xE1D SWAP2 SWAP1 PUSH2 0x3D5E JUMP JUMPDEST PUSH1 0x40 MLOAD DUP1 SWAP2 SUB SWAP1 RETURN JUMPDEST CALLVALUE DUP1 ISZERO PUSH2 0xE32 JUMPI PUSH1 0x0 DUP1 REVERT JUMPDEST POP PUSH2 0xE3B PUSH2 0x1E9B JUMP JUMPDEST PUSH1 0x40 MLOAD PUSH2 0xE48 SWAP2 SWAP1 PUSH2 0x4320 JUMP JUMPDEST PUSH1 0x40 MLOAD DUP1 SWAP2 SUB SWAP1 RETURN JUMPDEST PUSH1 0x60 PUSH1 0x7 DUP1 SLOAD PUSH2 0xE60 SWAP1 PUSH2 0x436A JUMP JUMPDEST DUP1 PUSH1 0x1F ADD PUSH1 0x20 DUP1 SWAP2 DIV MUL PUSH1 0x20 ADD PUSH1 0x40 MLOAD SWAP1 DUP2 ADD PUSH1 0x40 MSTORE DUP1 SWAP3 SWAP2 SWAP1 DUP2 DUP2 MSTORE PUSH1 0x20 ADD DUP3 DUP1 SLOAD PUSH2 0xE8C SWAP1 PUSH2 0x436A JUMP JUMPDEST DUP1 ISZERO PUSH2 0xED9 JUMPI DUP1 PUSH1 0x1F LT PUSH2 0xEAE JUMPI PUSH2 0x100 DUP1 DUP4 SLOAD DIV MUL DUP4 MSTORE SWAP2 PUSH1 0x20 ADD SWAP2 PUSH2 0xED9 JUMP JUMPDEST DUP3 ADD SWAP2 SWAP1 PUSH1 0x0 MSTORE PUSH1 0x20 PUSH1 0x0 KECCAK256 SWAP1 JUMPDEST DUP2 SLOAD DUP2 MSTORE SWAP1 PUSH1 0x1 ADD SWAP1 PUSH1 0x20 ADD DUP1 DUP4 GT PUSH2 0xEBC JUMPI DUP3 SWAP1 SUB PUSH1 0x1F AND DUP3 ADD SWAP2 JUMPDEST POP POP POP POP POP SWAP1 POP SWAP1 JUMP JUMPDEST PUSH1 0x0 DUP1 PUSH2 0xEEE PUSH2 0x1EBF JUMP JUMPDEST SWAP1 POP PUSH2 0xEFB DUP2 DUP6 DUP6 PUSH2 0x1EC7 JUMP JUMPDEST PUSH1 0x1 SWAP2 POP POP SWAP3 SWAP2 POP POP JUMP JUMPDEST PUSH1 0x1A PUSH1 0x20 MSTORE DUP1 PUSH1 0x0 MSTORE PUSH1 0x40 PUSH1 0x0 KECCAK256 PUSH1 0x0 SWAP2 POP SLOAD SWAP1 PUSH2 0x100 EXP SWAP1 DIV PUSH1 0xFF AND DUP2 JUMP JUMPDEST PUSH1 0x12 SLOAD DUP2 JUMP JUMPDEST PUSH1 0x1C PUSH1 0x20 MSTORE DUP1 PUSH1 0x0 MSTORE PUSH1 0x40 PUSH1 0x0 KECCAK256 PUSH1 0x0 SWAP2 POP SLOAD SWAP1 PUSH2 0x100 EXP SWAP1 DIV PUSH1 0xFF AND DUP2 JUMP JUMPDEST PUSH1 0x18 SLOAD DUP2 JUMP JUMPDEST PUSH32 0x0 DUP2 JUMP JUMPDEST PUSH1 0x0 PUSH1 0x6 SLOAD SWAP1 POP SWAP1 JUMP JUMPDEST PUSH2 0xF88 PUSH2 0x1ED9 JUMP JUMPDEST PUSH2 0xFB5 PUSH1 0xA PUSH1 0x0 SWAP1 SLOAD SWAP1 PUSH2 0x100 EXP SWAP1 DIV PUSH20 0xFFFFFFFFFFFFFFFFFFFFFFFFFFFFFFFFFFFFFFFF AND PUSH1 0x0 PUSH2 0x1F60 JUMP JUMPDEST PUSH2 0xFE2 PUSH1 0xA PUSH1 0x0 SWAP1 SLOAD SWAP1 PUSH2 0x100 EXP SWAP1 DIV PUSH20 0xFFFFFFFFFFFFFFFFFFFFFFFFFFFFFFFFFFFFFFFF AND PUSH1 0x0 PUSH2 0x1FBB JUMP JUMPDEST PUSH2 0x100F PUSH1 0xB PUSH1 0x0 SWAP1 SLOAD SWAP1 PUSH2 0x100 EXP SWAP1 DIV PUSH20 0xFFFFFFFFFFFFFFFFFFFFFFFFFFFFFFFFFFFFFFFF AND PUSH1 0x0 PUSH2 0x1F60 JUMP JUMPDEST PUSH2 0x103C PUSH1 0xB PUSH1 0x0 SWAP1 SLOAD SWAP1 PUSH2 0x100 EXP SWAP1 DIV PUSH20 0xFFFFFFFFFFFFFFFFFFFFFFFFFFFFFFFFFFFFFFFF AND PUSH1 0x0 PUSH2 0x1FBB JUMP JUMPDEST DUP2 PUSH1 0xA PUSH1 0x0 PUSH2 0x100 EXP DUP2 SLOAD DUP2 PUSH20 0xFFFFFFFFFFFFFFFFFFFFFFFFFFFFFFFFFFFFFFFF MUL NOT AND SWAP1 DUP4 PUSH20 0xFFFFFFFFFFFFFFFFFFFFFFFFFFFFFFFFFFFFFFFF AND MUL OR SWAP1 SSTORE POP DUP1 PUSH1 0xB PUSH1 0x0 PUSH2 0x100 EXP DUP2 SLOAD DUP2 PUSH20 0xFFFFFFFFFFFFFFFFFFFFFFFFFFFFFFFFFFFFFFFF MUL NOT AND SWAP1 DUP4 PUSH20 0xFFFFFFFFFFFFFFFFFFFFFFFFFFFFFFFFFFFFFFFF AND MUL OR SWAP1 SSTORE POP PUSH2 0x10C9 DUP3 PUSH1 0x1 PUSH2 0x1F60 JUMP JUMPDEST PUSH2 0x10D4 DUP2 PUSH1 0x1 PUSH2 0x1F60 JUMP JUMPDEST PUSH2 0x10DF DUP3 PUSH1 0x1 PUSH2 0x1FBB JUMP JUMPDEST PUSH2 0x10EA DUP2 PUSH1 0x1 PUSH2 0x1FBB JUMP JUMPDEST POP POP JUMP JUMPDEST PUSH1 0x0 PUSH1 0x10 SLOAD SWAP1 POP PUSH1 0x0 DUP2 GT PUSH2 0x1138 JUMPI PUSH1 0x40 MLOAD PUSH32 0x8C379A000000000000000000000000000000000000000000000000000000000 DUP2 MSTORE PUSH1 0x4 ADD PUSH2 0x112F SWAP1 PUSH2 0x43E7 JUMP JUMPDEST PUSH1 0x40 MLOAD DUP1 SWAP2 SUB SWAP1 REVERT JUMPDEST PUSH2 0x1165 ADDRESS PUSH1 0xA PUSH1 0x0 SWAP1 SLOAD SWAP1 PUSH2 0x100 EXP SWAP1 DIV PUSH20 0xFFFFFFFFFFFFFFFFFFFFFFFFFFFFFFFFFFFFFFFF AND DUP4 PUSH2 0x204F JUMP JUMPDEST PUSH1 0x0 PUSH1 0x10 DUP2 SWAP1 SSTORE POP SWAP1 JUMP JUMPDEST PUSH1 0x0 DUP1 PUSH2 0x117B PUSH2 0x1EBF JUMP JUMPDEST SWAP1 POP PUSH2 0x1188 DUP6 DUP3 DUP6 PUSH2 0x2143 JUMP JUMPDEST PUSH2 0x1193 DUP6 DUP6 DUP6 PUSH2 0x204F JUMP JUMPDEST PUSH1 0x1 SWAP2 POP POP SWAP4 SWAP3 POP POP POP JUMP JUMPDEST PUSH1 0x11 SLOAD DUP2 JUMP JUMPDEST PUSH32 0x0 DUP2 JUMP JUMPDEST PUSH1 0x0 PUSH1 0x12 SWAP1 POP SWAP1 JUMP JUMPDEST PUSH1 0x1B PUSH1 0x20 MSTORE DUP1 PUSH1 0x0 MSTORE PUSH1 0x40 PUSH1 0x0 KECCAK256 PUSH1 0x0 SWAP2 POP SLOAD SWAP1 PUSH2 0x100 EXP SWAP1 DIV PUSH1 0xFF AND DUP2 JUMP JUMPDEST PUSH1 0x0 PUSH2 0x11FC PUSH2 0x21D7 JUMP JUMPDEST SWAP1 POP SWAP1 JUMP JUMPDEST PUSH2 0x1209 PUSH2 0x1ED9 JUMP JUMPDEST PUSH2 0x1213 DUP3 DUP3 PUSH2 0x1F60 JUMP JUMPDEST POP POP JUMP JUMPDEST PUSH1 0xA PUSH1 0x0 SWAP1 SLOAD SWAP1 PUSH2 0x100 EXP SWAP1 DIV PUSH20 0xFFFFFFFFFFFFFFFFFFFFFFFFFFFFFFFFFFFFFFFF AND DUP2 JUMP JUMPDEST PUSH2 0x1245 PUSH2 0x1ED9 JUMP JUMPDEST DUP2 PUSH1 0x16 DUP2 SWAP1 SSTORE POP DUP1 PUSH1 0x17 DUP2 SWAP1 SSTORE POP POP POP JUMP JUMPDEST PUSH2 0x1268 PUSH2 0x1262 PUSH2 0x1EBF JUMP JUMPDEST DUP3 PUSH2 0x228E JUMP JUMPDEST POP JUMP JUMPDEST PUSH1 0x17 SLOAD DUP2 JUMP JUMPDEST PUSH32 0x0 DUP2 JUMP JUMPDEST PUSH1 0xB PUSH1 0x0 SWAP1 SLOAD SWAP1 PUSH2 0x100 EXP SWAP1 DIV PUSH20 0xFFFFFFFFFFFFFFFFFFFFFFFFFFFFFFFFFFFFFFFF AND DUP2 JUMP JUMPDEST PUSH1 0x15 PUSH1 0x0 SWAP1 SLOAD SWAP1 PUSH2 0x100 EXP SWAP1 DIV PUSH1 0xFF AND DUP2 JUMP JUMPDEST PUSH1 0xD SLOAD DUP2 JUMP JUMPDEST PUSH1 0x0 PUSH1 0x4 PUSH1 0x0 DUP4 PUSH20 0xFFFFFFFFFFFFFFFFFFFFFFFFFFFFFFFFFFFFFFFF AND PUSH20 0xFFFFFFFFFFFFFFFFFFFFFFFFFFFFFFFFFFFFFFFF AND DUP2 MSTORE PUSH1 0x20 ADD SWAP1 DUP2 MSTORE PUSH1 0x20 ADD PUSH1 0x0 KECCAK256 SLOAD SWAP1 POP SWAP2 SWAP1 POP JUMP JUMPDEST PUSH2 0x1325 PUSH2 0x1ED9 JUMP JUMPDEST PUSH2 0x132F PUSH1 0x0 PUSH2 0x2310 JUMP JUMPDEST JUMP JUMPDEST PUSH32 0x0 DUP2 JUMP JUMPDEST PUSH2 0x1367 DUP3 PUSH2 0x1361 PUSH2 0x1EBF JUMP JUMPDEST DUP4 PUSH2 0x2143 JUMP JUMPDEST PUSH2 0x1371 DUP3 DUP3 PUSH2 0x228E JUMP JUMPDEST POP POP JUMP JUMPDEST PUSH1 0xC SLOAD DUP2 JUMP JUMPDEST PUSH1 0x0 PUSH2 0x1386 DUP3 PUSH2 0x23D4 JUMP JUMPDEST SWAP1 POP SWAP2 SWAP1 POP JUMP JUMPDEST PUSH1 0xF SLOAD DUP2 JUMP JUMPDEST PUSH1 0x0 PUSH1 0x11 SLOAD SWAP1 POP PUSH1 0x0 DUP2 GT PUSH2 0x13DD JUMPI PUSH1 0x40 MLOAD PUSH32 0x8C379A000000000000000000000000000000000000000000000000000000000 DUP2 MSTORE PUSH1 0x4 ADD PUSH2 0x13D4 SWAP1 PUSH2 0x4453 JUMP JUMPDEST PUSH1 0x40 MLOAD DUP1 SWAP2 SUB SWAP1 REVERT JUMPDEST PUSH1 0x9 PUSH1 0x0 SWAP1 SLOAD SWAP1 PUSH2 0x100 EXP SWAP1 DIV PUSH20 0xFFFFFFFFFFFFFFFFFFFFFFFFFFFFFFFFFFFFFFFF AND PUSH20 0xFFFFFFFFFFFFFFFFFFFFFFFFFFFFFFFFFFFFFFFF AND CALLER PUSH20 0xFFFFFFFFFFFFFFFFFFFFFFFFFFFFFFFFFFFFFFFF AND EQ PUSH2 0x146D JUMPI PUSH1 0x40 MLOAD PUSH32 0x8C379A000000000000000000000000000000000000000000000000000000000 DUP2 MSTORE PUSH1 0x4 ADD PUSH2 0x1464 SWAP1 PUSH2 0x44BF JUMP JUMPDEST PUSH1 0x40 MLOAD DUP1 SWAP2 SUB SWAP1 REVERT JUMPDEST PUSH2 0x1478 ADDRESS CALLER DUP4 PUSH2 0x204F JUMP JUMPDEST PUSH1 0x0 PUSH1 0x11 DUP2 SWAP1 SSTORE POP SWAP1 JUMP JUMPDEST PUSH1 0x0 PUSH1 0x60 DUP1 PUSH1 0x0 DUP1 PUSH1 0x0 PUSH1 0x60 PUSH2 0x1497 PUSH2 0x241D JUMP JUMPDEST PUSH2 0x149F PUSH2 0x2458 JUMP JUMPDEST CHAINID ADDRESS PUSH1 0x0 DUP1 SHL PUSH1 0x0 PUSH8 0xFFFFFFFFFFFFFFFF DUP2 GT ISZERO PUSH2 0x14C0 JUMPI PUSH2 0x14BF PUSH2 0x44DF JUMP JUMPDEST JUMPDEST PUSH1 0x40 MLOAD SWAP1 DUP1 DUP3 MSTORE DUP1 PUSH1 0x20 MUL PUSH1 0x20 ADD DUP3 ADD PUSH1 0x40 MSTORE DUP1 ISZERO PUSH2 0x14EE JUMPI DUP2 PUSH1 0x20 ADD PUSH1 0x20 DUP3 MUL DUP1 CALLDATASIZE DUP4 CALLDATACOPY DUP1 DUP3 ADD SWAP2 POP POP SWAP1 POP JUMPDEST POP PUSH32 0xF00000000000000000000000000000000000000000000000000000000000000 SWAP6 SWAP5 SWAP4 SWAP3 SWAP2 SWAP1 SWAP7 POP SWAP7 POP SWAP7 POP SWAP7 POP SWAP7 POP SWAP7 POP SWAP7 POP SWAP1 SWAP2 SWAP3 SWAP4 SWAP5 SWAP6 SWAP7 JUMP JUMPDEST PUSH1 0x16 SLOAD DUP2 JUMP JUMPDEST PUSH1 0x9 PUSH1 0x0 SWAP1 SLOAD SWAP1 PUSH2 0x100 EXP SWAP1 DIV PUSH20 0xFFFFFFFFFFFFFFFFFFFFFFFFFFFFFFFFFFFFFFFF AND DUP2 JUMP JUMPDEST PUSH1 0x0 DUP1 PUSH1 0x0 SWAP1 SLOAD SWAP1 PUSH2 0x100 EXP SWAP1 DIV PUSH20 0xFFFFFFFFFFFFFFFFFFFFFFFFFFFFFFFFFFFFFFFF AND SWAP1 POP SWAP1 JUMP JUMPDEST PUSH1 0x60 PUSH1 0x8 DUP1 SLOAD PUSH2 0x1591 SWAP1 PUSH2 0x436A JUMP JUMPDEST DUP1 PUSH1 0x1F ADD PUSH1 0x20 DUP1 SWAP2 DIV MUL PUSH1 0x20 ADD PUSH1 0x40 MLOAD SWAP1 DUP2 ADD PUSH1 0x40 MSTORE DUP1 SWAP3 SWAP2 SWAP1 DUP2 DUP2 MSTORE PUSH1 0x20 ADD DUP3 DUP1 SLOAD PUSH2 0x15BD SWAP1 PUSH2 0x436A JUMP JUMPDEST DUP1 ISZERO PUSH2 0x160A JUMPI DUP1 PUSH1 0x1F LT PUSH2 0x15DF JUMPI PUSH2 0x100 DUP1 DUP4 SLOAD DIV MUL DUP4 MSTORE SWAP2 PUSH1 0x20 ADD SWAP2 PUSH2 0x160A JUMP JUMPDEST DUP3 ADD SWAP2 SWAP1 PUSH1 0x0 MSTORE PUSH1 0x20 PUSH1 0x0 KECCAK256 SWAP1 JUMPDEST DUP2 SLOAD DUP2 MSTORE SWAP1 PUSH1 0x1 ADD SWAP1 PUSH1 0x20 ADD DUP1 DUP4 GT PUSH2 0x15ED JUMPI DUP3 SWAP1 SUB PUSH1 0x1F AND DUP3 ADD SWAP2 JUMPDEST POP POP POP POP POP SWAP1 POP SWAP1 JUMP JUMPDEST PUSH2 0x161C PUSH2 0x1ED9 JUMP JUMPDEST PUSH1 0x0 PUSH1 0x18 SLOAD GT PUSH2 0x1661 JUMPI PUSH1 0x40 MLOAD PUSH32 0x8C379A000000000000000000000000000000000000000000000000000000000 DUP2 MSTORE PUSH1 0x4 ADD PUSH2 0x1658 SWAP1 PUSH2 0x455A JUMP JUMPDEST PUSH1 0x40 MLOAD DUP1 SWAP2 SUB SWAP1 REVERT JUMPDEST PUSH2 0x166B DUP3 DUP3 PUSH2 0x2493 JUMP JUMPDEST POP POP JUMP JUMPDEST PUSH2 0x1677 PUSH2 0x1ED9 JUMP JUMPDEST DUP1 PUSH1 0x15 PUSH1 0x0 PUSH2 0x100 EXP DUP2 SLOAD DUP2 PUSH1 0xFF MUL NOT AND SWAP1 DUP4 ISZERO ISZERO MUL OR SWAP1 SSTORE POP POP JUMP JUMPDEST PUSH2 0x169C PUSH2 0x1ED9 JUMP JUMPDEST PUSH1 0x0 PUSH1 0x18 SLOAD EQ PUSH2 0x16E1 JUMPI PUSH1 0x40 MLOAD PUSH32 0x8C379A000000000000000000000000000000000000000000000000000000000 DUP2 MSTORE PUSH1 0x4 ADD PUSH2 0x16D8 SWAP1 PUSH2 0x45C6 JUMP JUMPDEST PUSH1 0x40 MLOAD DUP1 SWAP2 SUB SWAP1 REVERT JUMPDEST PUSH2 0x16EB DUP3 DUP3 PUSH2 0x2493 JUMP JUMPDEST TIMESTAMP PUSH1 0x18 DUP2 SWAP1 SSTORE POP POP POP JUMP JUMPDEST PUSH1 0x0 PUSH2 0x1700 PUSH2 0x1ED9 JUMP JUMPDEST CALLER PUSH20 0xFFFFFFFFFFFFFFFFFFFFFFFFFFFFFFFFFFFFFFFF AND PUSH2 0x8FC DUP4 SWAP1 DUP2 ISZERO MUL SWAP1 PUSH1 0x40 MLOAD PUSH1 0x0 PUSH1 0x40 MLOAD DUP1 DUP4 SUB DUP2 DUP6 DUP9 DUP9 CALL SWAP4 POP POP POP POP SWAP1 POP SWAP2 SWAP1 POP JUMP JUMPDEST PUSH2 0x1744 PUSH2 0x1ED9 JUMP JUMPDEST PUSH2 0x174E DUP3 DUP3 PUSH2 0x1FBB JUMP JUMPDEST POP POP JUMP JUMPDEST PUSH1 0x10 SLOAD DUP2 JUMP JUMPDEST PUSH1 0x0 DUP1 PUSH2 0x1763 PUSH2 0x1EBF JUMP JUMPDEST SWAP1 POP PUSH2 0x1770 DUP2 DUP6 DUP6 PUSH2 0x204F JUMP JUMPDEST PUSH1 0x1 SWAP2 POP POP SWAP3 SWAP2 POP POP JUMP JUMPDEST PUSH1 0x0 PUSH1 0x12 SLOAD SWAP1 POP PUSH1 0x0 DUP2 GT PUSH2 0x17C5 JUMPI PUSH1 0x40 MLOAD PUSH32 0x8C379A000000000000000000000000000000000000000000000000000000000 DUP2 MSTORE PUSH1 0x4 ADD PUSH2 0x17BC SWAP1 PUSH2 0x4632 JUMP JUMPDEST PUSH1 0x40 MLOAD DUP1 SWAP2 SUB SWAP1 REVERT JUMPDEST PUSH2 0x17F2 ADDRESS PUSH1 0xB PUSH1 0x0 SWAP1 SLOAD SWAP1 PUSH2 0x100 EXP SWAP1 DIV PUSH20 0xFFFFFFFFFFFFFFFFFFFFFFFFFFFFFFFFFFFFFFFF AND DUP4 PUSH2 0x204F JUMP JUMPDEST PUSH1 0x0 PUSH1 0x12 DUP2 SWAP1 SSTORE POP SWAP1 JUMP JUMPDEST PUSH2 0x1805 PUSH2 0x1ED9 JUMP JUMPDEST DUP2 PUSH20 0xFFFFFFFFFFFFFFFFFFFFFFFFFFFFFFFFFFFFFFFF AND PUSH4 0x36B91F2B DUP3 PUSH1 0x40 MLOAD DUP3 PUSH4 0xFFFFFFFF AND PUSH1 0xE0 SHL DUP2 MSTORE PUSH1 0x4 ADD PUSH2 0x183E SWAP2 SWAP1 PUSH2 0x3F6C JUMP JUMPDEST PUSH1 0x0 PUSH1 0x40 MLOAD DUP1 DUP4 SUB DUP2 PUSH1 0x0 DUP8 DUP1 EXTCODESIZE ISZERO DUP1 ISZERO PUSH2 0x1858 JUMPI PUSH1 0x0 DUP1 REVERT JUMPDEST POP GAS CALL ISZERO DUP1 ISZERO PUSH2 0x186C JUMPI RETURNDATASIZE PUSH1 0x0 DUP1 RETURNDATACOPY RETURNDATASIZE PUSH1 0x0 REVERT JUMPDEST POP POP POP POP POP POP JUMP JUMPDEST PUSH2 0x187C PUSH2 0x1ED9 JUMP JUMPDEST PUSH2 0x1F4 DUP5 GT DUP1 PUSH2 0x188D JUMPI POP PUSH2 0x1F4 DUP4 GT JUMPDEST ISZERO PUSH2 0x18CD JUMPI PUSH1 0x40 MLOAD PUSH32 0x8C379A000000000000000000000000000000000000000000000000000000000 DUP2 MSTORE PUSH1 0x4 ADD PUSH2 0x18C4 SWAP1 PUSH2 0x469E JUMP JUMPDEST PUSH1 0x40 MLOAD DUP1 SWAP2 SUB SWAP1 REVERT JUMPDEST PUSH2 0x2710 DUP2 DUP4 PUSH2 0x18DC SWAP2 SWAP1 PUSH2 0x46ED JUMP JUMPDEST EQ PUSH2 0x191C JUMPI PUSH1 0x40 MLOAD PUSH32 0x8C379A000000000000000000000000000000000000000000000000000000000 DUP2 MSTORE PUSH1 0x4 ADD PUSH2 0x1913 SWAP1 PUSH2 0x476D JUMP JUMPDEST PUSH1 0x40 MLOAD DUP1 SWAP2 SUB SWAP1 REVERT JUMPDEST DUP4 PUSH1 0xC DUP2 SWAP1 SSTORE POP DUP3 PUSH1 0xD DUP2 SWAP1 SSTORE POP DUP2 PUSH1 0xE DUP2 SWAP1 SSTORE POP DUP1 PUSH1 0xF DUP2 SWAP1 SSTORE POP POP POP POP POP JUMP JUMPDEST PUSH2 0x1946 PUSH2 0x1ED9 JUMP JUMPDEST DUP1 PUSH1 0x1A PUSH1 0x0 DUP5 PUSH20 0xFFFFFFFFFFFFFFFFFFFFFFFFFFFFFFFFFFFFFFFF AND PUSH20 0xFFFFFFFFFFFFFFFFFFFFFFFFFFFFFFFFFFFFFFFF AND DUP2 MSTORE PUSH1 0x20 ADD SWAP1 DUP2 MSTORE PUSH1 0x20 ADD PUSH1 0x0 KECCAK256 PUSH1 0x0 PUSH2 0x100 EXP DUP2 SLOAD DUP2 PUSH1 0xFF MUL NOT AND SWAP1 DUP4 ISZERO ISZERO MUL OR SWAP1 SSTORE POP PUSH32 0x365730F68B8417EB737925485379E9A7034F928711AAA76C90E9953E754839D1 DUP3 DUP3 PUSH1 0x40 MLOAD PUSH2 0x19CE SWAP3 SWAP2 SWAP1 PUSH2 0x478D JUMP JUMPDEST PUSH1 0x40 MLOAD DUP1 SWAP2 SUB SWAP1 LOG1 POP POP JUMP JUMPDEST DUP4 TIMESTAMP GT ISZERO PUSH2 0x1A1F JUMPI DUP4 PUSH1 0x40 MLOAD PUSH32 0x6279130200000000000000000000000000000000000000000000000000000000 DUP2 MSTORE PUSH1 0x4 ADD PUSH2 0x1A16 SWAP2 SWAP1 PUSH2 0x3D5E JUMP JUMPDEST PUSH1 0x40 MLOAD DUP1 SWAP2 SUB SWAP1 REVERT JUMPDEST PUSH1 0x0 PUSH32 0x6E71EDAE12B1B97F4D1F60370FEF10105FA2FAAE0126114A169C64845D6126C9 DUP9 DUP9 DUP9 PUSH2 0x1A4E DUP13 PUSH2 0x256D JUMP JUMPDEST DUP10 PUSH1 0x40 MLOAD PUSH1 0x20 ADD PUSH2 0x1A64 SWAP7 SWAP6 SWAP5 SWAP4 SWAP3 SWAP2 SWAP1 PUSH2 0x47B6 JUMP JUMPDEST PUSH1 0x40 MLOAD PUSH1 0x20 DUP2 DUP4 SUB SUB DUP2 MSTORE SWAP1 PUSH1 0x40 MSTORE DUP1 MLOAD SWAP1 PUSH1 0x20 ADD KECCAK256 SWAP1 POP PUSH1 0x0 PUSH2 0x1A87 DUP3 PUSH2 0x25C4 JUMP JUMPDEST SWAP1 POP PUSH1 0x0 PUSH2 0x1A97 DUP3 DUP8 DUP8 DUP8 PUSH2 0x25DE JUMP JUMPDEST SWAP1 POP DUP10 PUSH20 0xFFFFFFFFFFFFFFFFFFFFFFFFFFFFFFFFFFFFFFFF AND DUP2 PUSH20 0xFFFFFFFFFFFFFFFFFFFFFFFFFFFFFFFFFFFFFFFF AND EQ PUSH2 0x1B0B JUMPI DUP1 DUP11 PUSH1 0x40 MLOAD PUSH32 0x4B800E4600000000000000000000000000000000000000000000000000000000 DUP2 MSTORE PUSH1 0x4 ADD PUSH2 0x1B02 SWAP3 SWAP2 SWAP1 PUSH2 0x4817 JUMP JUMPDEST PUSH1 0x40 MLOAD DUP1 SWAP2 SUB SWAP1 REVERT JUMPDEST PUSH2 0x1B16 DUP11 DUP11 DUP11 PUSH2 0x1EC7 JUMP JUMPDEST POP POP POP POP POP POP POP POP POP POP JUMP JUMPDEST PUSH1 0x0 PUSH1 0x5 PUSH1 0x0 DUP5 PUSH20 0xFFFFFFFFFFFFFFFFFFFFFFFFFFFFFFFFFFFFFFFF AND PUSH20 0xFFFFFFFFFFFFFFFFFFFFFFFFFFFFFFFFFFFFFFFF AND DUP2 MSTORE PUSH1 0x20 ADD SWAP1 DUP2 MSTORE PUSH1 0x20 ADD PUSH1 0x0 KECCAK256 PUSH1 0x0 DUP4 PUSH20 0xFFFFFFFFFFFFFFFFFFFFFFFFFFFFFFFFFFFFFFFF AND PUSH20 0xFFFFFFFFFFFFFFFFFFFFFFFFFFFFFFFFFFFFFFFF AND DUP2 MSTORE PUSH1 0x20 ADD SWAP1 DUP2 MSTORE PUSH1 0x20 ADD PUSH1 0x0 KECCAK256 SLOAD SWAP1 POP SWAP3 SWAP2 POP POP JUMP JUMPDEST PUSH1 0x14 SLOAD DUP2 JUMP JUMPDEST PUSH2 0x1BB7 PUSH2 0x1ED9 JUMP JUMPDEST ADDRESS PUSH20 0xFFFFFFFFFFFFFFFFFFFFFFFFFFFFFFFFFFFFFFFF AND DUP4 PUSH20 0xFFFFFFFFFFFFFFFFFFFFFFFFFFFFFFFFFFFFFFFF AND SUB PUSH2 0x1C3E JUMPI TIMESTAMP PUSH4 0x1E13380 PUSH1 0x18 SLOAD PUSH2 0x1BFD SWAP2 SWAP1 PUSH2 0x46ED JUMP JUMPDEST LT PUSH2 0x1C3D JUMPI PUSH1 0x40 MLOAD PUSH32 0x8C379A000000000000000000000000000000000000000000000000000000000 DUP2 MSTORE PUSH1 0x4 ADD PUSH2 0x1C34 SWAP1 PUSH2 0x488C JUMP JUMPDEST PUSH1 0x40 MLOAD DUP1 SWAP2 SUB SWAP1 REVERT JUMPDEST JUMPDEST PUSH2 0x1C49 DUP4 DUP4 DUP4 PUSH2 0x260E JUMP JUMPDEST POP POP POP JUMP JUMPDEST PUSH1 0x19 PUSH1 0x20 MSTORE DUP1 PUSH1 0x0 MSTORE PUSH1 0x40 PUSH1 0x0 KECCAK256 PUSH1 0x0 SWAP2 POP SWAP1 POP SLOAD DUP2 JUMP JUMPDEST PUSH1 0x13 SLOAD DUP2 JUMP JUMPDEST PUSH2 0x1C74 PUSH2 0x1ED9 JUMP JUMPDEST PUSH1 0x0 PUSH32 0x0 PUSH20 0xFFFFFFFFFFFFFFFFFFFFFFFFFFFFFFFFFFFFFFFF AND PUSH4 0x662AA11D ADDRESS DUP5 PUSH1 0x40 MLOAD DUP4 PUSH4 0xFFFFFFFF AND PUSH1 0xE0 SHL DUP2 MSTORE PUSH1 0x4 ADD PUSH2 0x1CD1 SWAP3 SWAP2 SWAP1 PUSH2 0x4817 JUMP JUMPDEST PUSH1 0x20 PUSH1 0x40 MLOAD DUP1 DUP4 SUB DUP2 PUSH1 0x0 DUP8 GAS CALL ISZERO DUP1 ISZERO PUSH2 0x1CF0 JUMPI RETURNDATASIZE PUSH1 0x0 DUP1 RETURNDATACOPY RETURNDATASIZE PUSH1 0x0 REVERT JUMPDEST POP POP POP POP PUSH1 0x40 MLOAD RETURNDATASIZE PUSH1 0x1F NOT PUSH1 0x1F DUP3 ADD AND DUP3 ADD DUP1 PUSH1 0x40 MSTORE POP DUP2 ADD SWAP1 PUSH2 0x1D14 SWAP2 SWAP1 PUSH2 0x48C1 JUMP JUMPDEST SWAP1 POP PUSH32 0xF40B37E816B351D5DDA1074B0371F5679EC72B453A023CF863EA8F99E2216740 DUP3 DUP3 PUSH1 0x40 MLOAD PUSH2 0x1D47 SWAP3 SWAP2 SWAP1 PUSH2 0x48EE JUMP JUMPDEST PUSH1 0x40 MLOAD DUP1 SWAP2 SUB SWAP1 LOG1 POP POP JUMP JUMPDEST PUSH2 0x1D5B PUSH2 0x1ED9 JUMP JUMPDEST PUSH1 0x0 PUSH20 0xFFFFFFFFFFFFFFFFFFFFFFFFFFFFFFFFFFFFFFFF AND DUP2 PUSH20 0xFFFFFFFFFFFFFFFFFFFFFFFFFFFFFFFFFFFFFFFF AND SUB PUSH2 0x1DCD JUMPI PUSH1 0x0 PUSH1 0x40 MLOAD PUSH32 0x1E4FBDF700000000000000000000000000000000000000000000000000000000 DUP2 MSTORE PUSH1 0x4 ADD PUSH2 0x1DC4 SWAP2 SWAP1 PUSH2 0x3F6C JUMP JUMPDEST PUSH1 0x40 MLOAD DUP1 SWAP2 SUB SWAP1 REVERT JUMPDEST PUSH2 0x1DD6 DUP2 PUSH2 0x2310 JUMP JUMPDEST POP JUMP JUMPDEST PUSH2 0x1DE1 PUSH2 0x1ED9 JUMP JUMPDEST PUSH2 0x1E0E PUSH1 0x9 PUSH1 0x0 SWAP1 SLOAD SWAP1 PUSH2 0x100 EXP SWAP1 DIV PUSH20 0xFFFFFFFFFFFFFFFFFFFFFFFFFFFFFFFFFFFFFFFF AND PUSH1 0x0 PUSH2 0x1F60 JUMP JUMPDEST PUSH2 0x1E3B PUSH1 0x9 PUSH1 0x0 SWAP1 SLOAD SWAP1 PUSH2 0x100 EXP SWAP1 DIV PUSH20 0xFFFFFFFFFFFFFFFFFFFFFFFFFFFFFFFFFFFFFFFF AND PUSH1 0x0 PUSH2 0x1FBB JUMP JUMPDEST DUP1 PUSH1 0x9 PUSH1 0x0 PUSH2 0x100 EXP DUP2 SLOAD DUP2 PUSH20 0xFFFFFFFFFFFFFFFFFFFFFFFFFFFFFFFFFFFFFFFF MUL NOT AND SWAP1 DUP4 PUSH20 0xFFFFFFFFFFFFFFFFFFFFFFFFFFFFFFFFFFFFFFFF AND MUL OR SWAP1 SSTORE POP PUSH2 0x1E87 DUP2 PUSH1 0x1 PUSH2 0x1F60 JUMP JUMPDEST PUSH2 0x1E92 DUP2 PUSH1 0x1 PUSH2 0x1FBB JUMP JUMPDEST POP JUMP JUMPDEST PUSH1 0xE SLOAD DUP2 JUMP JUMPDEST PUSH32 0x0 DUP2 JUMP JUMPDEST PUSH1 0x0 CALLER SWAP1 POP SWAP1 JUMP JUMPDEST PUSH2 0x1ED4 DUP4 DUP4 DUP4 PUSH1 0x1 PUSH2 0x268D JUMP JUMPDEST POP POP POP JUMP JUMPDEST PUSH2 0x1EE1 PUSH2 0x1EBF JUMP JUMPDEST PUSH20 0xFFFFFFFFFFFFFFFFFFFFFFFFFFFFFFFFFFFFFFFF AND PUSH2 0x1EFF PUSH2 0x1559 JUMP JUMPDEST PUSH20 0xFFFFFFFFFFFFFFFFFFFFFFFFFFFFFFFFFFFFFFFF AND EQ PUSH2 0x1F5E JUMPI PUSH2 0x1F22 PUSH2 0x1EBF JUMP JUMPDEST PUSH1 0x40 MLOAD PUSH32 0x118CDAA700000000000000000000000000000000000000000000000000000000 DUP2 MSTORE PUSH1 0x4 ADD PUSH2 0x1F55 SWAP2 SWAP1 PUSH2 0x3F6C JUMP JUMPDEST PUSH1 0x40 MLOAD DUP1 SWAP2 SUB SWAP1 REVERT JUMPDEST JUMP JUMPDEST DUP1 PUSH1 0x1C PUSH1 0x0 DUP5 PUSH20 0xFFFFFFFFFFFFFFFFFFFFFFFFFFFFFFFFFFFFFFFF AND PUSH20 0xFFFFFFFFFFFFFFFFFFFFFFFFFFFFFFFFFFFFFFFF AND DUP2 MSTORE PUSH1 0x20 ADD SWAP1 DUP2 MSTORE PUSH1 0x20 ADD PUSH1 0x0 KECCAK256 PUSH1 0x0 PUSH2 0x100 EXP DUP2 SLOAD DUP2 PUSH1 0xFF MUL NOT AND SWAP1 DUP4 ISZERO ISZERO MUL OR SWAP1 SSTORE POP POP POP JUMP JUMPDEST DUP1 PUSH1 0x1B PUSH1 0x0 DUP5 PUSH20 0xFFFFFFFFFFFFFFFFFFFFFFFFFFFFFFFFFFFFFFFF AND PUSH20 0xFFFFFFFFFFFFFFFFFFFFFFFFFFFFFFFFFFFFFFFF AND DUP2 MSTORE PUSH1 0x20 ADD SWAP1 DUP2 MSTORE PUSH1 0x20 ADD PUSH1 0x0 KECCAK256 PUSH1 0x0 PUSH2 0x100 EXP DUP2 SLOAD DUP2 PUSH1 0xFF MUL NOT AND SWAP1 DUP4 ISZERO ISZERO MUL OR SWAP1 SSTORE POP PUSH32 0x297C7A63A712EA88BE3A55FF4407C6C79B698D21C826C441B49B2B5AD6B6478B DUP3 DUP3 PUSH1 0x40 MLOAD PUSH2 0x2043 SWAP3 SWAP2 SWAP1 PUSH2 0x478D JUMP JUMPDEST PUSH1 0x40 MLOAD DUP1 SWAP2 SUB SWAP1 LOG1 POP POP JUMP JUMPDEST PUSH1 0x0 PUSH20 0xFFFFFFFFFFFFFFFFFFFFFFFFFFFFFFFFFFFFFFFF AND DUP4 PUSH20 0xFFFFFFFFFFFFFFFFFFFFFFFFFFFFFFFFFFFFFFFF AND SUB PUSH2 0x20C1 JUMPI PUSH1 0x0 PUSH1 0x40 MLOAD PUSH32 0x96C6FD1E00000000000000000000000000000000000000000000000000000000 DUP2 MSTORE PUSH1 0x4 ADD PUSH2 0x20B8 SWAP2 SWAP1 PUSH2 0x3F6C JUMP JUMPDEST PUSH1 0x40 MLOAD DUP1 SWAP2 SUB SWAP1 REVERT JUMPDEST PUSH1 0x0 PUSH20 0xFFFFFFFFFFFFFFFFFFFFFFFFFFFFFFFFFFFFFFFF AND DUP3 PUSH20 0xFFFFFFFFFFFFFFFFFFFFFFFFFFFFFFFFFFFFFFFF AND SUB PUSH2 0x2133 JUMPI PUSH1 0x0 PUSH1 0x40 MLOAD PUSH32 0xEC442F0500000000000000000000000000000000000000000000000000000000 DUP2 MSTORE PUSH1 0x4 ADD PUSH2 0x212A SWAP2 SWAP1 PUSH2 0x3F6C JUMP JUMPDEST PUSH1 0x40 MLOAD DUP1 SWAP2 SUB SWAP1 REVERT JUMPDEST PUSH2 0x213E DUP4 DUP4 DUP4 PUSH2 0x2864 JUMP JUMPDEST POP POP POP JUMP JUMPDEST PUSH1 0x0 PUSH2 0x214F DUP5 DUP5 PUSH2 0x1B22 JUMP JUMPDEST SWAP1 POP PUSH32 0xFFFFFFFFFFFFFFFFFFFFFFFFFFFFFFFFFFFFFFFFFFFFFFFFFFFFFFFFFFFFFFFF DUP2 EQ PUSH2 0x21D1 JUMPI DUP2 DUP2 LT ISZERO PUSH2 0x21C1 JUMPI DUP3 DUP2 DUP4 PUSH1 0x40 MLOAD PUSH32 0xFB8F41B200000000000000000000000000000000000000000000000000000000 DUP2 MSTORE PUSH1 0x4 ADD PUSH2 0x21B8 SWAP4 SWAP3 SWAP2 SWAP1 PUSH2 0x4917 JUMP JUMPDEST PUSH1 0x40 MLOAD DUP1 SWAP2 SUB SWAP1 REVERT JUMPDEST PUSH2 0x21D0 DUP5 DUP5 DUP5 DUP5 SUB PUSH1 0x0 PUSH2 0x268D JUMP JUMPDEST JUMPDEST POP POP POP POP JUMP JUMPDEST PUSH1 0x0 PUSH32 0x0 PUSH20 0xFFFFFFFFFFFFFFFFFFFFFFFFFFFFFFFFFFFFFFFF AND ADDRESS PUSH20 0xFFFFFFFFFFFFFFFFFFFFFFFFFFFFFFFFFFFFFFFF AND EQ DUP1 ISZERO PUSH2 0x2253 JUMPI POP PUSH32 0x0 CHAINID EQ JUMPDEST ISZERO PUSH2 0x2280 JUMPI PUSH32 0x0 SWAP1 POP PUSH2 0x228B JUMP JUMPDEST PUSH2 0x2288 PUSH2 0x2A66 JUMP JUMPDEST SWAP1 POP JUMPDEST SWAP1 JUMP JUMPDEST PUSH1 0x0 PUSH20 0xFFFFFFFFFFFFFFFFFFFFFFFFFFFFFFFFFFFFFFFF AND DUP3 PUSH20 0xFFFFFFFFFFFFFFFFFFFFFFFFFFFFFFFFFFFFFFFF AND SUB PUSH2 0x2300 JUMPI PUSH1 0x0 PUSH1 0x40 MLOAD PUSH32 0x96C6FD1E00000000000000000000000000000000000000000000000000000000 DUP2 MSTORE PUSH1 0x4 ADD PUSH2 0x22F7 SWAP2 SWAP1 PUSH2 0x3F6C JUMP JUMPDEST PUSH1 0x40 MLOAD DUP1 SWAP2 SUB SWAP1 REVERT JUMPDEST PUSH2 0x230C DUP3 PUSH1 0x0 DUP4 PUSH2 0x2864 JUMP JUMPDEST POP POP JUMP JUMPDEST PUSH1 0x0 DUP1 PUSH1 0x0 SWAP1 SLOAD SWAP1 PUSH2 0x100 EXP SWAP1 DIV PUSH20 0xFFFFFFFFFFFFFFFFFFFFFFFFFFFFFFFFFFFFFFFF AND SWAP1 POP DUP2 PUSH1 0x0 DUP1 PUSH2 0x100 EXP DUP2 SLOAD DUP2 PUSH20 0xFFFFFFFFFFFFFFFFFFFFFFFFFFFFFFFFFFFFFFFF MUL NOT AND SWAP1 DUP4 PUSH20 0xFFFFFFFFFFFFFFFFFFFFFFFFFFFFFFFFFFFFFFFF AND MUL OR SWAP1 SSTORE POP DUP2 PUSH20 0xFFFFFFFFFFFFFFFFFFFFFFFFFFFFFFFFFFFFFFFF AND DUP2 PUSH20 0xFFFFFFFFFFFFFFFFFFFFFFFFFFFFFFFFFFFFFFFF AND PUSH32 0x8BE0079C531659141344CD1FD0A4F28419497F9722A3DAAFE3B4186F6B6457E0 PUSH1 0x40 MLOAD PUSH1 0x40 MLOAD DUP1 SWAP2 SUB SWAP1 LOG3 POP POP JUMP JUMPDEST PUSH1 0x0 PUSH1 0x3 PUSH1 0x0 DUP4 PUSH20 0xFFFFFFFFFFFFFFFFFFFFFFFFFFFFFFFFFFFFFFFF AND PUSH20 0xFFFFFFFFFFFFFFFFFFFFFFFFFFFFFFFFFFFFFFFF AND DUP2 MSTORE PUSH1 0x20 ADD SWAP1 DUP2 MSTORE PUSH1 0x20 ADD PUSH1 0x0 KECCAK256 SLOAD SWAP1 POP SWAP2 SWAP1 POP JUMP JUMPDEST PUSH1 0x60 PUSH2 0x2453 PUSH1 0x1 PUSH32 0x0 PUSH2 0x2AFC SWAP1 SWAP2 SWAP1 PUSH4 0xFFFFFFFF AND JUMP JUMPDEST SWAP1 POP SWAP1 JUMP JUMPDEST PUSH1 0x60 PUSH2 0x248E PUSH1 0x2 PUSH32 0x0 PUSH2 0x2AFC SWAP1 SWAP2 SWAP1 PUSH4 0xFFFFFFFF AND JUMP JUMPDEST SWAP1 POP SWAP1 JUMP JUMPDEST PUSH2 0x24BE ADDRESS PUSH32 0x0 DUP4 PUSH2 0x1EC7 JUMP JUMPDEST PUSH32 0x0 PUSH20 0xFFFFFFFFFFFFFFFFFFFFFFFFFFFFFFFFFFFFFFFF AND PUSH4 0xF305D719 DUP4 ADDRESS DUP5 PUSH1 0x0 DUP1 ADDRESS TIMESTAMP PUSH1 0x40 MLOAD DUP9 PUSH4 0xFFFFFFFF AND PUSH1 0xE0 SHL DUP2 MSTORE PUSH1 0x4 ADD PUSH2 0x2523 SWAP7 SWAP6 SWAP5 SWAP4 SWAP3 SWAP2 SWAP1 PUSH2 0x4989 JUMP JUMPDEST PUSH1 0x60 PUSH1 0x40 MLOAD DUP1 DUP4 SUB DUP2 DUP6 DUP9 GAS CALL ISZERO DUP1 ISZERO PUSH2 0x2541 JUMPI RETURNDATASIZE PUSH1 0x0 DUP1 RETURNDATACOPY RETURNDATASIZE PUSH1 0x0 REVERT JUMPDEST POP POP POP POP POP PUSH1 0x40 MLOAD RETURNDATASIZE PUSH1 0x1F NOT PUSH1 0x1F DUP3 ADD AND DUP3 ADD DUP1 PUSH1 0x40 MSTORE POP DUP2 ADD SWAP1 PUSH2 0x2566 SWAP2 SWAP1 PUSH2 0x49EA JUMP JUMPDEST POP POP POP POP POP JUMP JUMPDEST PUSH1 0x0 PUSH1 0x3 PUSH1 0x0 DUP4 PUSH20 0xFFFFFFFFFFFFFFFFFFFFFFFFFFFFFFFFFFFFFFFF AND PUSH20 0xFFFFFFFFFFFFFFFFFFFFFFFFFFFFFFFFFFFFFFFF AND DUP2 MSTORE PUSH1 0x20 ADD SWAP1 DUP2 MSTORE PUSH1 0x20 ADD PUSH1 0x0 KECCAK256 PUSH1 0x0 DUP2 SLOAD DUP1 SWAP3 SWAP2 SWAP1 PUSH1 0x1 ADD SWAP2 SWAP1 POP SSTORE SWAP1 POP SWAP2 SWAP1 POP JUMP JUMPDEST PUSH1 0x0 PUSH2 0x25D7 PUSH2 0x25D1 PUSH2 0x21D7 JUMP JUMPDEST DUP4 PUSH2 0x2BAC JUMP JUMPDEST SWAP1 POP SWAP2 SWAP1 POP JUMP JUMPDEST PUSH1 0x0 DUP1 PUSH1 0x0 DUP1 PUSH2 0x25F0 DUP9 DUP9 DUP9 DUP9 PUSH2 0x2BED JUMP JUMPDEST SWAP3 POP SWAP3 POP SWAP3 POP PUSH2 0x2600 DUP3 DUP3 PUSH2 0x2CE1 JUMP JUMPDEST DUP3 SWAP4 POP POP POP POP SWAP5 SWAP4 POP POP POP POP JUMP JUMPDEST PUSH2 0x2688 DUP4 DUP5 PUSH20 0xFFFFFFFFFFFFFFFFFFFFFFFFFFFFFFFFFFFFFFFF AND PUSH4 0xA9059CBB DUP6 DUP6 PUSH1 0x40 MLOAD PUSH1 0x24 ADD PUSH2 0x2641 SWAP3 SWAP2 SWAP1 PUSH2 0x48EE JUMP JUMPDEST PUSH1 0x40 MLOAD PUSH1 0x20 DUP2 DUP4 SUB SUB DUP2 MSTORE SWAP1 PUSH1 0x40 MSTORE SWAP2 POP PUSH1 0xE0 SHL PUSH1 0x20 DUP3 ADD DUP1 MLOAD PUSH28 0xFFFFFFFFFFFFFFFFFFFFFFFFFFFFFFFFFFFFFFFFFFFFFFFFFFFFFFFF DUP4 DUP2 DUP4 AND OR DUP4 MSTORE POP POP POP POP PUSH2 0x2E45 JUMP JUMPDEST POP POP POP JUMP JUMPDEST PUSH1 0x0 PUSH20 0xFFFFFFFFFFFFFFFFFFFFFFFFFFFFFFFFFFFFFFFF AND DUP5 PUSH20 0xFFFFFFFFFFFFFFFFFFFFFFFFFFFFFFFFFFFFFFFF AND SUB PUSH2 0x26FF JUMPI PUSH1 0x0 PUSH1 0x40 MLOAD PUSH32 0xE602DF0500000000000000000000000000000000000000000000000000000000 DUP2 MSTORE PUSH1 0x4 ADD PUSH2 0x26F6 SWAP2 SWAP1 PUSH2 0x3F6C JUMP JUMPDEST PUSH1 0x40 MLOAD DUP1 SWAP2 SUB SWAP1 REVERT JUMPDEST PUSH1 0x0 PUSH20 0xFFFFFFFFFFFFFFFFFFFFFFFFFFFFFFFFFFFFFFFF AND DUP4 PUSH20 0xFFFFFFFFFFFFFFFFFFFFFFFFFFFFFFFFFFFFFFFF AND SUB PUSH2 0x2771 JUMPI PUSH1 0x0 PUSH1 0x40 MLOAD PUSH32 0x94280D6200000000000000000000000000000000000000000000000000000000 DUP2 MSTORE PUSH1 0x4 ADD PUSH2 0x2768 SWAP2 SWAP1 PUSH2 0x3F6C JUMP JUMPDEST PUSH1 0x40 MLOAD DUP1 SWAP2 SUB SWAP1 REVERT JUMPDEST DUP2 PUSH1 0x5 PUSH1 0x0 DUP7 PUSH20 0xFFFFFFFFFFFFFFFFFFFFFFFFFFFFFFFFFFFFFFFF AND PUSH20 0xFFFFFFFFFFFFFFFFFFFFFFFFFFFFFFFFFFFFFFFF AND DUP2 MSTORE PUSH1 0x20 ADD SWAP1 DUP2 MSTORE PUSH1 0x20 ADD PUSH1 0x0 KECCAK256 PUSH1 0x0 DUP6 PUSH20 0xFFFFFFFFFFFFFFFFFFFFFFFFFFFFFFFFFFFFFFFF AND PUSH20 0xFFFFFFFFFFFFFFFFFFFFFFFFFFFFFFFFFFFFFFFF AND DUP2 MSTORE PUSH1 0x20 ADD SWAP1 DUP2 MSTORE PUSH1 0x20 ADD PUSH1 0x0 KECCAK256 DUP2 SWAP1 SSTORE POP DUP1 ISZERO PUSH2 0x285E JUMPI DUP3 PUSH20 0xFFFFFFFFFFFFFFFFFFFFFFFFFFFFFFFFFFFFFFFF AND DUP5 PUSH20 0xFFFFFFFFFFFFFFFFFFFFFFFFFFFFFFFFFFFFFFFF AND PUSH32 0x8C5BE1E5EBEC7D5BD14F71427D1E84F3DD0314C0F7B2291E5B200AC8C7C3B925 DUP5 PUSH1 0x40 MLOAD PUSH2 0x2855 SWAP2 SWAP1 PUSH2 0x3D5E JUMP JUMPDEST PUSH1 0x40 MLOAD DUP1 SWAP2 SUB SWAP1 LOG3 JUMPDEST POP POP POP POP JUMP JUMPDEST PUSH1 0x0 PUSH20 0xFFFFFFFFFFFFFFFFFFFFFFFFFFFFFFFFFFFFFFFF AND DUP4 PUSH20 0xFFFFFFFFFFFFFFFFFFFFFFFFFFFFFFFFFFFFFFFF AND EQ DUP1 PUSH2 0x28CB JUMPI POP PUSH1 0x0 PUSH20 0xFFFFFFFFFFFFFFFFFFFFFFFFFFFFFFFFFFFFFFFF AND DUP3 PUSH20 0xFFFFFFFFFFFFFFFFFFFFFFFFFFFFFFFFFFFFFFFF AND EQ JUMPDEST DUP1 PUSH2 0x2903 JUMPI POP PUSH2 0xDEAD PUSH20 0xFFFFFFFFFFFFFFFFFFFFFFFFFFFFFFFFFFFFFFFF AND DUP3 PUSH20 0xFFFFFFFFFFFFFFFFFFFFFFFFFFFFFFFFFFFFFFFF AND EQ JUMPDEST ISZERO PUSH2 0x2918 JUMPI PUSH2 0x2913 DUP4 DUP4 DUP4 PUSH2 0x2EDC JUMP JUMPDEST PUSH2 0x2A61 JUMP JUMPDEST PUSH2 0x2922 DUP4 DUP4 PUSH2 0x3104 JUMP JUMPDEST PUSH1 0x0 PUSH2 0x292F DUP5 DUP5 DUP5 PUSH2 0x32A5 JUMP JUMPDEST SWAP1 POP PUSH1 0x0 PUSH2 0x293E DUP6 DUP6 DUP6 PUSH2 0x33F4 JUMP JUMPDEST DUP4 PUSH2 0x2949 SWAP2 SWAP1 PUSH2 0x4A3D JUMP JUMPDEST SWAP1 POP PUSH1 0x0 PUSH2 0x2958 DUP7 DUP7 DUP5 PUSH2 0x35D5 JUMP JUMPDEST SWAP1 POP DUP4 DUP4 PUSH2 0x2966 SWAP2 SWAP1 PUSH2 0x4A3D JUMP JUMPDEST PUSH1 0x4 PUSH1 0x0 DUP9 PUSH20 0xFFFFFFFFFFFFFFFFFFFFFFFFFFFFFFFFFFFFFFFF AND PUSH20 0xFFFFFFFFFFFFFFFFFFFFFFFFFFFFFFFFFFFFFFFF AND DUP2 MSTORE PUSH1 0x20 ADD SWAP1 DUP2 MSTORE PUSH1 0x20 ADD PUSH1 0x0 KECCAK256 DUP2 SWAP1 SSTORE POP DUP1 PUSH1 0x4 PUSH1 0x0 DUP8 PUSH20 0xFFFFFFFFFFFFFFFFFFFFFFFFFFFFFFFFFFFFFFFF AND PUSH20 0xFFFFFFFFFFFFFFFFFFFFFFFFFFFFFFFFFFFFFFFF AND DUP2 MSTORE PUSH1 0x20 ADD SWAP1 DUP2 MSTORE PUSH1 0x20 ADD PUSH1 0x0 KECCAK256 DUP2 SWAP1 SSTORE POP PUSH2 0x29F8 DUP7 DUP7 DUP7 PUSH2 0x36C4 JUMP JUMPDEST DUP5 PUSH20 0xFFFFFFFFFFFFFFFFFFFFFFFFFFFFFFFFFFFFFFFF AND DUP7 PUSH20 0xFFFFFFFFFFFFFFFFFFFFFFFFFFFFFFFFFFFFFFFF AND PUSH32 0xDDF252AD1BE2C89B69C2B068FC378DAA952BA7F163C4A11628F55A4DF523B3EF DUP5 PUSH1 0x40 MLOAD PUSH2 0x2A55 SWAP2 SWAP1 PUSH2 0x3D5E JUMP JUMPDEST PUSH1 0x40 MLOAD DUP1 SWAP2 SUB SWAP1 LOG3 POP POP POP JUMPDEST POP POP POP JUMP JUMPDEST PUSH1 0x0 PUSH32 0x8B73C3C69BB8FE3D512ECC4CF759CC79239F7B179B0FFACAA9A75D522B39400F PUSH32 0x0 PUSH32 0x0 CHAINID ADDRESS PUSH1 0x40 MLOAD PUSH1 0x20 ADD PUSH2 0x2AE1 SWAP6 SWAP5 SWAP4 SWAP3 SWAP2 SWAP1 PUSH2 0x4A71 JUMP JUMPDEST PUSH1 0x40 MLOAD PUSH1 0x20 DUP2 DUP4 SUB SUB DUP2 MSTORE SWAP1 PUSH1 0x40 MSTORE DUP1 MLOAD SWAP1 PUSH1 0x20 ADD KECCAK256 SWAP1 POP SWAP1 JUMP JUMPDEST PUSH1 0x60 PUSH1 0xFF PUSH1 0x0 SHL DUP4 EQ PUSH2 0x2B19 JUMPI PUSH2 0x2B12 DUP4 PUSH2 0x37BD JUMP JUMPDEST SWAP1 POP PUSH2 0x2BA6 JUMP JUMPDEST DUP2 DUP1 SLOAD PUSH2 0x2B25 SWAP1 PUSH2 0x436A JUMP JUMPDEST DUP1 PUSH1 0x1F ADD PUSH1 0x20 DUP1 SWAP2 DIV MUL PUSH1 0x20 ADD PUSH1 0x40 MLOAD SWAP1 DUP2 ADD PUSH1 0x40 MSTORE DUP1 SWAP3 SWAP2 SWAP1 DUP2 DUP2 MSTORE PUSH1 0x20 ADD DUP3 DUP1 SLOAD PUSH2 0x2B51 SWAP1 PUSH2 0x436A JUMP JUMPDEST DUP1 ISZERO PUSH2 0x2B9E JUMPI DUP1 PUSH1 0x1F LT PUSH2 0x2B73 JUMPI PUSH2 0x100 DUP1 DUP4 SLOAD DIV MUL DUP4 MSTORE SWAP2 PUSH1 0x20 ADD SWAP2 PUSH2 0x2B9E JUMP JUMPDEST DUP3 ADD SWAP2 SWAP1 PUSH1 0x0 MSTORE PUSH1 0x20 PUSH1 0x0 KECCAK256 SWAP1 JUMPDEST DUP2 SLOAD DUP2 MSTORE SWAP1 PUSH1 0x1 ADD SWAP1 PUSH1 0x20 ADD DUP1 DUP4 GT PUSH2 0x2B81 JUMPI DUP3 SWAP1 SUB PUSH1 0x1F AND DUP3 ADD SWAP2 JUMPDEST POP POP POP POP POP SWAP1 POP JUMPDEST SWAP3 SWAP2 POP POP JUMP JUMPDEST PUSH1 0x0 PUSH1 0x40 MLOAD PUSH32 0x1901000000000000000000000000000000000000000000000000000000000000 DUP2 MSTORE DUP4 PUSH1 0x2 DUP3 ADD MSTORE DUP3 PUSH1 0x22 DUP3 ADD MSTORE PUSH1 0x42 DUP2 KECCAK256 SWAP2 POP POP SWAP3 SWAP2 POP POP JUMP JUMPDEST PUSH1 0x0 DUP1 PUSH1 0x0 PUSH32 0x7FFFFFFFFFFFFFFFFFFFFFFFFFFFFFFF5D576E7357A4501DDFE92F46681B20A0 DUP5 PUSH1 0x0 SHR GT ISZERO PUSH2 0x2C2D JUMPI PUSH1 0x0 PUSH1 0x3 DUP6 SWAP3 POP SWAP3 POP SWAP3 POP PUSH2 0x2CD7 JUMP JUMPDEST PUSH1 0x0 PUSH1 0x1 DUP9 DUP9 DUP9 DUP9 PUSH1 0x40 MLOAD PUSH1 0x0 DUP2 MSTORE PUSH1 0x20 ADD PUSH1 0x40 MSTORE PUSH1 0x40 MLOAD PUSH2 0x2C52 SWAP5 SWAP4 SWAP3 SWAP2 SWAP1 PUSH2 0x4AC4 JUMP JUMPDEST PUSH1 0x20 PUSH1 0x40 MLOAD PUSH1 0x20 DUP2 SUB SWAP1 DUP1 DUP5 SUB SWAP1 DUP6 GAS STATICCALL ISZERO DUP1 ISZERO PUSH2 0x2C74 JUMPI RETURNDATASIZE PUSH1 0x0 DUP1 RETURNDATACOPY RETURNDATASIZE PUSH1 0x0 REVERT JUMPDEST POP POP POP PUSH1 0x20 PUSH1 0x40 MLOAD SUB MLOAD SWAP1 POP PUSH1 0x0 PUSH20 0xFFFFFFFFFFFFFFFFFFFFFFFFFFFFFFFFFFFFFFFF AND DUP2 PUSH20 0xFFFFFFFFFFFFFFFFFFFFFFFFFFFFFFFFFFFFFFFF AND SUB PUSH2 0x2CC8 JUMPI PUSH1 0x0 PUSH1 0x1 PUSH1 0x0 DUP1 SHL SWAP4 POP SWAP4 POP SWAP4 POP POP PUSH2 0x2CD7 JUMP JUMPDEST DUP1 PUSH1 0x0 DUP1 PUSH1 0x0 SHL SWAP4 POP SWAP4 POP SWAP4 POP POP JUMPDEST SWAP5 POP SWAP5 POP SWAP5 SWAP2 POP POP JUMP JUMPDEST PUSH1 0x0 PUSH1 0x3 DUP2 GT ISZERO PUSH2 0x2CF5 JUMPI PUSH2 0x2CF4 PUSH2 0x4B09 JUMP JUMPDEST JUMPDEST DUP3 PUSH1 0x3 DUP2 GT ISZERO PUSH2 0x2D08 JUMPI PUSH2 0x2D07 PUSH2 0x4B09 JUMP JUMPDEST JUMPDEST SUB ISZERO PUSH2 0x2E41 JUMPI PUSH1 0x1 PUSH1 0x3 DUP2 GT ISZERO PUSH2 0x2D22 JUMPI PUSH2 0x2D21 PUSH2 0x4B09 JUMP JUMPDEST JUMPDEST DUP3 PUSH1 0x3 DUP2 GT ISZERO PUSH2 0x2D35 JUMPI PUSH2 0x2D34 PUSH2 0x4B09 JUMP JUMPDEST JUMPDEST SUB PUSH2 0x2D6C JUMPI PUSH1 0x40 MLOAD PUSH32 0xF645EEDF00000000000000000000000000000000000000000000000000000000 DUP2 MSTORE PUSH1 0x4 ADD PUSH1 0x40 MLOAD DUP1 SWAP2 SUB SWAP1 REVERT JUMPDEST PUSH1 0x2 PUSH1 0x3 DUP2 GT ISZERO PUSH2 0x2D80 JUMPI PUSH2 0x2D7F PUSH2 0x4B09 JUMP JUMPDEST JUMPDEST DUP3 PUSH1 0x3 DUP2 GT ISZERO PUSH2 0x2D93 JUMPI PUSH2 0x2D92 PUSH2 0x4B09 JUMP JUMPDEST JUMPDEST SUB PUSH2 0x2DD8 JUMPI DUP1 PUSH1 0x0 SHR PUSH1 0x40 MLOAD PUSH32 0xFCE698F700000000000000000000000000000000000000000000000000000000 DUP2 MSTORE PUSH1 0x4 ADD PUSH2 0x2DCF SWAP2 SWAP1 PUSH2 0x3D5E JUMP JUMPDEST PUSH1 0x40 MLOAD DUP1 SWAP2 SUB SWAP1 REVERT JUMPDEST PUSH1 0x3 DUP1 DUP2 GT ISZERO PUSH2 0x2DEB JUMPI PUSH2 0x2DEA PUSH2 0x4B09 JUMP JUMPDEST JUMPDEST DUP3 PUSH1 0x3 DUP2 GT ISZERO PUSH2 0x2DFE JUMPI PUSH2 0x2DFD PUSH2 0x4B09 JUMP JUMPDEST JUMPDEST SUB PUSH2 0x2E40 JUMPI DUP1 PUSH1 0x40 MLOAD PUSH32 0xD78BCE0C00000000000000000000000000000000000000000000000000000000 DUP2 MSTORE PUSH1 0x4 ADD PUSH2 0x2E37 SWAP2 SWAP1 PUSH2 0x3ED6 JUMP JUMPDEST PUSH1 0x40 MLOAD DUP1 SWAP2 SUB SWAP1 REVERT JUMPDEST JUMPDEST POP POP JUMP JUMPDEST PUSH1 0x0 PUSH2 0x2E70 DUP3 DUP5 PUSH20 0xFFFFFFFFFFFFFFFFFFFFFFFFFFFFFFFFFFFFFFFF AND PUSH2 0x3831 SWAP1 SWAP2 SWAP1 PUSH4 0xFFFFFFFF AND JUMP JUMPDEST SWAP1 POP PUSH1 0x0 DUP2 MLOAD EQ ISZERO DUP1 ISZERO PUSH2 0x2E95 JUMPI POP DUP1 DUP1 PUSH1 0x20 ADD SWAP1 MLOAD DUP2 ADD SWAP1 PUSH2 0x2E93 SWAP2 SWAP1 PUSH2 0x4B4D JUMP JUMPDEST ISZERO JUMPDEST ISZERO PUSH2 0x2ED7 JUMPI DUP3 PUSH1 0x40 MLOAD PUSH32 0x5274AFE700000000000000000000000000000000000000000000000000000000 DUP2 MSTORE PUSH1 0x4 ADD PUSH2 0x2ECE SWAP2 SWAP1 PUSH2 0x3F6C JUMP JUMPDEST PUSH1 0x40 MLOAD DUP1 SWAP2 SUB SWAP1 REVERT JUMPDEST POP POP POP JUMP JUMPDEST PUSH1 0x0 PUSH20 0xFFFFFFFFFFFFFFFFFFFFFFFFFFFFFFFFFFFFFFFF AND DUP4 PUSH20 0xFFFFFFFFFFFFFFFFFFFFFFFFFFFFFFFFFFFFFFFF AND SUB PUSH2 0x2F2E JUMPI DUP1 PUSH1 0x6 PUSH1 0x0 DUP3 DUP3 SLOAD PUSH2 0x2F22 SWAP2 SWAP1 PUSH2 0x46ED JUMP JUMPDEST SWAP3 POP POP DUP2 SWAP1 SSTORE POP PUSH2 0x3003 JUMP JUMPDEST PUSH1 0x0 PUSH1 0x4 PUSH1 0x0 DUP6 PUSH20 0xFFFFFFFFFFFFFFFFFFFFFFFFFFFFFFFFFFFFFFFF AND PUSH20 0xFFFFFFFFFFFFFFFFFFFFFFFFFFFFFFFFFFFFFFFF AND DUP2 MSTORE PUSH1 0x20 ADD SWAP1 DUP2 MSTORE PUSH1 0x20 ADD PUSH1 0x0 KECCAK256 SLOAD SWAP1 POP DUP2 DUP2 LT ISZERO PUSH2 0x2FBB JUMPI DUP4 DUP2 DUP4 PUSH1 0x40 MLOAD PUSH32 0xE450D38C00000000000000000000000000000000000000000000000000000000 DUP2 MSTORE PUSH1 0x4 ADD PUSH2 0x2FB2 SWAP4 SWAP3 SWAP2 SWAP1 PUSH2 0x4917 JUMP JUMPDEST PUSH1 0x40 MLOAD DUP1 SWAP2 SUB SWAP1 REVERT JUMPDEST DUP2 DUP2 SUB PUSH1 0x4 PUSH1 0x0 DUP7 PUSH20 0xFFFFFFFFFFFFFFFFFFFFFFFFFFFFFFFFFFFFFFFF AND PUSH20 0xFFFFFFFFFFFFFFFFFFFFFFFFFFFFFFFFFFFFFFFF AND DUP2 MSTORE PUSH1 0x20 ADD SWAP1 DUP2 MSTORE PUSH1 0x20 ADD PUSH1 0x0 KECCAK256 DUP2 SWAP1 SSTORE POP POP JUMPDEST PUSH1 0x0 PUSH20 0xFFFFFFFFFFFFFFFFFFFFFFFFFFFFFFFFFFFFFFFF AND DUP3 PUSH20 0xFFFFFFFFFFFFFFFFFFFFFFFFFFFFFFFFFFFFFFFF AND SUB PUSH2 0x304C JUMPI DUP1 PUSH1 0x6 PUSH1 0x0 DUP3 DUP3 SLOAD SUB SWAP3 POP POP DUP2 SWAP1 SSTORE POP PUSH2 0x309A JUMP JUMPDEST DUP1 PUSH1 0x4 PUSH1 0x0 DUP5 PUSH20 0xFFFFFFFFFFFFFFFFFFFFFFFFFFFFFFFFFFFFFFFF AND PUSH20 0xFFFFFFFFFFFFFFFFFFFFFFFFFFFFFFFFFFFFFFFF AND DUP2 MSTORE PUSH1 0x20 ADD SWAP1 DUP2 MSTORE PUSH1 0x20 ADD PUSH1 0x0 KECCAK256 PUSH1 0x0 DUP3 DUP3 SLOAD ADD SWAP3 POP POP DUP2 SWAP1 SSTORE POP JUMPDEST DUP2 PUSH20 0xFFFFFFFFFFFFFFFFFFFFFFFFFFFFFFFFFFFFFFFF AND DUP4 PUSH20 0xFFFFFFFFFFFFFFFFFFFFFFFFFFFFFFFFFFFFFFFF AND PUSH32 0xDDF252AD1BE2C89B69C2B068FC378DAA952BA7F163C4A11628F55A4DF523B3EF DUP4 PUSH1 0x40 MLOAD PUSH2 0x30F7 SWAP2 SWAP1 PUSH2 0x3D5E JUMP JUMPDEST PUSH1 0x40 MLOAD DUP1 SWAP2 SUB SWAP1 LOG3 POP POP POP JUMP JUMPDEST PUSH1 0x0 PUSH1 0x18 SLOAD SWAP1 POP PUSH1 0x0 DUP2 SUB PUSH2 0x3119 JUMPI POP PUSH2 0x32A1 JUMP JUMPDEST PUSH32 0x0 DUP2 TIMESTAMP PUSH2 0x3146 SWAP2 SWAP1 PUSH2 0x4A3D JUMP JUMPDEST LT DUP1 ISZERO PUSH2 0x3158 JUMPI POP PUSH2 0x3157 DUP4 PUSH2 0x3847 JUMP JUMPDEST JUMPDEST ISZERO PUSH2 0x31A7 JUMPI TIMESTAMP PUSH1 0x19 PUSH1 0x0 DUP5 PUSH20 0xFFFFFFFFFFFFFFFFFFFFFFFFFFFFFFFFFFFFFFFF AND PUSH20 0xFFFFFFFFFFFFFFFFFFFFFFFFFFFFFFFFFFFFFFFF AND DUP2 MSTORE PUSH1 0x20 ADD SWAP1 DUP2 MSTORE PUSH1 0x20 ADD PUSH1 0x0 KECCAK256 DUP2 SWAP1 SSTORE POP POP PUSH2 0x32A1 JUMP JUMPDEST PUSH1 0x0 PUSH1 0x19 PUSH1 0x0 DUP6 PUSH20 0xFFFFFFFFFFFFFFFFFFFFFFFFFFFFFFFFFFFFFFFF AND PUSH20 0xFFFFFFFFFFFFFFFFFFFFFFFFFFFFFFFFFFFFFFFF AND DUP2 MSTORE PUSH1 0x20 ADD SWAP1 DUP2 MSTORE PUSH1 0x20 ADD PUSH1 0x0 KECCAK256 SLOAD GT DUP1 ISZERO PUSH2 0x325F JUMPI POP TIMESTAMP PUSH32 0x0 PUSH1 0x19 PUSH1 0x0 DUP7 PUSH20 0xFFFFFFFFFFFFFFFFFFFFFFFFFFFFFFFFFFFFFFFF AND PUSH20 0xFFFFFFFFFFFFFFFFFFFFFFFFFFFFFFFFFFFFFFFF AND DUP2 MSTORE PUSH1 0x20 ADD SWAP1 DUP2 MSTORE PUSH1 0x20 ADD PUSH1 0x0 KECCAK256 SLOAD PUSH2 0x325D SWAP2 SWAP1 PUSH2 0x46ED JUMP JUMPDEST GT JUMPDEST ISZERO PUSH2 0x329F JUMPI PUSH1 0x40 MLOAD PUSH32 0x8C379A000000000000000000000000000000000000000000000000000000000 DUP2 MSTORE PUSH1 0x4 ADD PUSH2 0x3296 SWAP1 PUSH2 0x4BC6 JUMP JUMPDEST PUSH1 0x40 MLOAD DUP1 SWAP2 SUB SWAP1 REVERT JUMPDEST POP JUMPDEST POP POP JUMP JUMPDEST PUSH1 0x0 PUSH1 0x4 PUSH1 0x0 DUP6 PUSH20 0xFFFFFFFFFFFFFFFFFFFFFFFFFFFFFFFFFFFFFFFF AND PUSH20 0xFFFFFFFFFFFFFFFFFFFFFFFFFFFFFFFFFFFFFFFF AND DUP2 MSTORE PUSH1 0x20 ADD SWAP1 DUP2 MSTORE PUSH1 0x20 ADD PUSH1 0x0 KECCAK256 SLOAD SWAP1 POP DUP2 DUP2 LT ISZERO PUSH2 0x3332 JUMPI DUP4 DUP2 DUP4 PUSH1 0x40 MLOAD PUSH32 0xE450D38C00000000000000000000000000000000000000000000000000000000 DUP2 MSTORE PUSH1 0x4 ADD PUSH2 0x3329 SWAP4 SWAP3 SWAP2 SWAP1 PUSH2 0x4917 JUMP JUMPDEST PUSH1 0x40 MLOAD DUP1 SWAP2 SUB SWAP1 REVERT JUMPDEST PUSH2 0x333A PUSH2 0x389D JUMP JUMPDEST DUP1 ISZERO PUSH2 0x3348 JUMPI POP PUSH1 0x0 PUSH1 0x16 SLOAD GT JUMPDEST DUP1 ISZERO PUSH2 0x338D JUMPI POP PUSH2 0x3358 DUP5 PUSH2 0x3847 JUMP JUMPDEST DUP1 ISZERO PUSH2 0x336A JUMPI POP PUSH2 0x3368 DUP4 PUSH2 0x38B4 JUMP JUMPDEST ISZERO JUMPDEST DUP1 PUSH2 0x338C JUMPI POP PUSH2 0x3379 DUP4 PUSH2 0x3847 JUMP JUMPDEST DUP1 ISZERO PUSH2 0x338B JUMPI POP PUSH2 0x3389 DUP5 PUSH2 0x38B4 JUMP JUMPDEST ISZERO JUMPDEST JUMPDEST JUMPDEST ISZERO PUSH2 0x33ED JUMPI PUSH1 0x0 PUSH5 0xE8D4A51000 PUSH1 0x16 SLOAD PUSH2 0x33A7 SWAP2 SWAP1 PUSH2 0x46ED JUMP JUMPDEST SWAP1 POP DUP1 DUP4 LT PUSH2 0x33EB JUMPI PUSH1 0x40 MLOAD PUSH32 0x8C379A000000000000000000000000000000000000000000000000000000000 DUP2 MSTORE PUSH1 0x4 ADD PUSH2 0x33E2 SWAP1 PUSH2 0x4C32 JUMP JUMPDEST PUSH1 0x40 MLOAD DUP1 SWAP2 SUB SWAP1 REVERT JUMPDEST POP JUMPDEST SWAP4 SWAP3 POP POP POP JUMP JUMPDEST PUSH1 0x0 DUP1 PUSH1 0x0 SWAP1 POP PUSH2 0x3404 DUP6 PUSH2 0x3847 JUMP JUMPDEST ISZERO PUSH2 0x3413 JUMPI PUSH1 0xC SLOAD SWAP1 POP PUSH2 0x3428 JUMP JUMPDEST PUSH2 0x341C DUP5 PUSH2 0x3847 JUMP JUMPDEST ISZERO PUSH2 0x3427 JUMPI PUSH1 0xD SLOAD SWAP1 POP JUMPDEST JUMPDEST PUSH1 0x0 DUP2 EQ DUP1 PUSH2 0x3480 JUMPI POP PUSH1 0x1C PUSH1 0x0 DUP7 PUSH20 0xFFFFFFFFFFFFFFFFFFFFFFFFFFFFFFFFFFFFFFFF AND PUSH20 0xFFFFFFFFFFFFFFFFFFFFFFFFFFFFFFFFFFFFFFFF AND DUP2 MSTORE PUSH1 0x20 ADD SWAP1 DUP2 MSTORE PUSH1 0x20 ADD PUSH1 0x0 KECCAK256 PUSH1 0x0 SWAP1 SLOAD SWAP1 PUSH2 0x100 EXP SWAP1 DIV PUSH1 0xFF AND JUMPDEST DUP1 PUSH2 0x34D4 JUMPI POP PUSH1 0x1C PUSH1 0x0 DUP6 PUSH20 0xFFFFFFFFFFFFFFFFFFFFFFFFFFFFFFFFFFFFFFFF AND PUSH20 0xFFFFFFFFFFFFFFFFFFFFFFFFFFFFFFFFFFFFFFFF AND DUP2 MSTORE PUSH1 0x20 ADD SWAP1 DUP2 MSTORE PUSH1 0x20 ADD PUSH1 0x0 KECCAK256 PUSH1 0x0 SWAP1 SLOAD SWAP1 PUSH2 0x100 EXP SWAP1 DIV PUSH1 0xFF AND JUMPDEST ISZERO PUSH2 0x34E3 JUMPI PUSH1 0x0 SWAP2 POP POP PUSH2 0x35CE JUMP JUMPDEST PUSH2 0x2710 DUP2 DUP5 PUSH2 0x34F2 SWAP2 SWAP1 PUSH2 0x4C52 JUMP JUMPDEST PUSH2 0x34FC SWAP2 SWAP1 PUSH2 0x4CC3 JUMP JUMPDEST SWAP2 POP PUSH1 0x0 DUP3 GT ISZERO PUSH2 0x35CC JUMPI PUSH2 0x3510 DUP3 PUSH2 0x390A JUMP JUMPDEST DUP2 PUSH1 0x4 PUSH1 0x0 ADDRESS PUSH20 0xFFFFFFFFFFFFFFFFFFFFFFFFFFFFFFFFFFFFFFFF AND PUSH20 0xFFFFFFFFFFFFFFFFFFFFFFFFFFFFFFFFFFFFFFFF AND DUP2 MSTORE PUSH1 0x20 ADD SWAP1 DUP2 MSTORE PUSH1 0x20 ADD PUSH1 0x0 KECCAK256 PUSH1 0x0 DUP3 DUP3 SLOAD PUSH2 0x355F SWAP2 SWAP1 PUSH2 0x46ED JUMP JUMPDEST SWAP3 POP POP DUP2 SWAP1 SSTORE POP ADDRESS PUSH20 0xFFFFFFFFFFFFFFFFFFFFFFFFFFFFFFFFFFFFFFFF AND DUP6 PUSH20 0xFFFFFFFFFFFFFFFFFFFFFFFFFFFFFFFFFFFFFFFF AND PUSH32 0xDDF252AD1BE2C89B69C2B068FC378DAA952BA7F163C4A11628F55A4DF523B3EF DUP5 PUSH1 0x40 MLOAD PUSH2 0x35C3 SWAP2 SWAP1 PUSH2 0x3D5E JUMP JUMPDEST PUSH1 0x40 MLOAD DUP1 SWAP2 SUB SWAP1 LOG3 JUMPDEST POP JUMPDEST SWAP4 SWAP3 POP POP POP JUMP JUMPDEST PUSH1 0x0 DUP2 PUSH1 0x4 PUSH1 0x0 DUP6 PUSH20 0xFFFFFFFFFFFFFFFFFFFFFFFFFFFFFFFFFFFFFFFF AND PUSH20 0xFFFFFFFFFFFFFFFFFFFFFFFFFFFFFFFFFFFFFFFF AND DUP2 MSTORE PUSH1 0x20 ADD SWAP1 DUP2 MSTORE PUSH1 0x20 ADD PUSH1 0x0 KECCAK256 SLOAD PUSH2 0x3622 SWAP2 SWAP1 PUSH2 0x46ED JUMP JUMPDEST SWAP1 POP PUSH2 0x362C PUSH2 0x389D JUMP JUMPDEST DUP1 ISZERO PUSH2 0x363A JUMPI POP PUSH1 0x0 PUSH1 0x17 SLOAD GT JUMPDEST DUP1 ISZERO PUSH2 0x365D JUMPI POP PUSH2 0x364A DUP5 PUSH2 0x3847 JUMP JUMPDEST DUP1 ISZERO PUSH2 0x365C JUMPI POP PUSH2 0x365A DUP4 PUSH2 0x38B4 JUMP JUMPDEST ISZERO JUMPDEST JUMPDEST ISZERO PUSH2 0x36BD JUMPI PUSH1 0x0 PUSH5 0xE8D4A51000 PUSH1 0x17 SLOAD PUSH2 0x3677 SWAP2 SWAP1 PUSH2 0x46ED JUMP JUMPDEST SWAP1 POP DUP1 DUP3 LT PUSH2 0x36BB JUMPI PUSH1 0x40 MLOAD PUSH32 0x8C379A000000000000000000000000000000000000000000000000000000000 DUP2 MSTORE PUSH1 0x4 ADD PUSH2 0x36B2 SWAP1 PUSH2 0x4D40 JUMP JUMPDEST PUSH1 0x40 MLOAD DUP1 SWAP2 SUB SWAP1 REVERT JUMPDEST POP JUMPDEST SWAP4 SWAP3 POP POP POP JUMP JUMPDEST PUSH2 0x36CD DUP4 PUSH2 0x3847 JUMP JUMPDEST ISZERO DUP1 ISZERO PUSH2 0x36E0 JUMPI POP PUSH2 0x36DE DUP3 PUSH2 0x3847 JUMP JUMPDEST ISZERO JUMPDEST PUSH2 0x37B8 JUMPI PUSH1 0x0 PUSH1 0x18 SLOAD SUB ISZERO PUSH2 0x37B8 JUMPI DUP1 PUSH1 0x14 PUSH1 0x0 DUP3 DUP3 SLOAD PUSH2 0x3701 SWAP2 SWAP1 PUSH2 0x46ED JUMP JUMPDEST SWAP3 POP POP DUP2 SWAP1 SSTORE POP PUSH1 0x0 PUSH1 0x13 SLOAD SWAP1 POP PUSH1 0x0 DUP2 SUB PUSH2 0x371D JUMPI POP PUSH2 0x37B8 JUMP JUMPDEST PUSH1 0x0 PUSH14 0x1B6418D0C06E3443E9854DAC0000 PUSH1 0xA0 PUSH2 0x373A SWAP2 SWAP1 PUSH2 0x4C52 JUMP JUMPDEST SWAP1 POP PUSH1 0x0 DUP2 PUSH1 0x64 PUSH1 0x5 PUSH14 0x1B6418D0C06E3443E9854DAC0000 PUSH2 0x375C SWAP2 SWAP1 PUSH2 0x4C52 JUMP JUMPDEST PUSH2 0x3766 SWAP2 SWAP1 PUSH2 0x4CC3 JUMP JUMPDEST DUP6 PUSH2 0x3771 SWAP2 SWAP1 PUSH2 0x4C52 JUMP JUMPDEST PUSH2 0x377B SWAP2 SWAP1 PUSH2 0x4CC3 JUMP JUMPDEST SWAP1 POP DUP3 DUP2 GT ISZERO PUSH2 0x3789 JUMPI DUP3 SWAP1 POP JUMPDEST DUP1 PUSH1 0x12 PUSH1 0x0 DUP3 DUP3 SLOAD PUSH2 0x379B SWAP2 SWAP1 PUSH2 0x46ED JUMP JUMPDEST SWAP3 POP POP DUP2 SWAP1 SSTORE POP DUP1 DUP4 PUSH2 0x37AE SWAP2 SWAP1 PUSH2 0x4A3D JUMP JUMPDEST PUSH1 0x13 DUP2 SWAP1 SSTORE POP POP POP POP JUMPDEST POP POP POP JUMP JUMPDEST PUSH1 0x60 PUSH1 0x0 PUSH2 0x37CA DUP4 PUSH2 0x3970 JUMP JUMPDEST SWAP1 POP PUSH1 0x0 PUSH1 0x20 PUSH8 0xFFFFFFFFFFFFFFFF DUP2 GT ISZERO PUSH2 0x37E9 JUMPI PUSH2 0x37E8 PUSH2 0x44DF JUMP JUMPDEST JUMPDEST PUSH1 0x40 MLOAD SWAP1 DUP1 DUP3 MSTORE DUP1 PUSH1 0x1F ADD PUSH1 0x1F NOT AND PUSH1 0x20 ADD DUP3 ADD PUSH1 0x40 MSTORE DUP1 ISZERO PUSH2 0x381B JUMPI DUP2 PUSH1 0x20 ADD PUSH1 0x1 DUP3 MUL DUP1 CALLDATASIZE DUP4 CALLDATACOPY DUP1 DUP3 ADD SWAP2 POP POP SWAP1 POP JUMPDEST POP SWAP1 POP DUP2 DUP2 MSTORE DUP4 PUSH1 0x20 DUP3 ADD MSTORE DUP1 SWAP3 POP POP POP SWAP2 SWAP1 POP JUMP JUMPDEST PUSH1 0x60 PUSH2 0x383F DUP4 DUP4 PUSH1 0x0 PUSH2 0x39C0 JUMP JUMPDEST SWAP1 POP SWAP3 SWAP2 POP POP JUMP JUMPDEST PUSH1 0x0 PUSH1 0x1A PUSH1 0x0 DUP4 PUSH20 0xFFFFFFFFFFFFFFFFFFFFFFFFFFFFFFFFFFFFFFFF AND PUSH20 0xFFFFFFFFFFFFFFFFFFFFFFFFFFFFFFFFFFFFFFFF AND DUP2 MSTORE PUSH1 0x20 ADD SWAP1 DUP2 MSTORE PUSH1 0x20 ADD PUSH1 0x0 KECCAK256 PUSH1 0x0 SWAP1 SLOAD SWAP1 PUSH2 0x100 EXP SWAP1 DIV PUSH1 0xFF AND SWAP1 POP SWAP2 SWAP1 POP JUMP JUMPDEST PUSH1 0x0 PUSH1 0x15 PUSH1 0x0 SWAP1 SLOAD SWAP1 PUSH2 0x100 EXP SWAP1 DIV PUSH1 0xFF AND SWAP1 POP SWAP1 JUMP JUMPDEST PUSH1 0x0 PUSH1 0x1B PUSH1 0x0 DUP4 PUSH20 0xFFFFFFFFFFFFFFFFFFFFFFFFFFFFFFFFFFFFFFFF AND PUSH20 0xFFFFFFFFFFFFFFFFFFFFFFFFFFFFFFFFFFFFFFFF AND DUP2 MSTORE PUSH1 0x20 ADD SWAP1 DUP2 MSTORE PUSH1 0x20 ADD PUSH1 0x0 KECCAK256 PUSH1 0x0 SWAP1 SLOAD SWAP1 PUSH2 0x100 EXP SWAP1 DIV PUSH1 0xFF AND SWAP1 POP SWAP2 SWAP1 POP JUMP JUMPDEST PUSH1 0x0 PUSH2 0x2710 PUSH1 0xF SLOAD DUP4 PUSH2 0x391D SWAP2 SWAP1 PUSH2 0x4C52 JUMP JUMPDEST PUSH2 0x3927 SWAP2 SWAP1 PUSH2 0x4CC3 JUMP JUMPDEST SWAP1 POP PUSH1 0x0 DUP2 DUP4 PUSH2 0x3937 SWAP2 SWAP1 PUSH2 0x4A3D JUMP JUMPDEST SWAP1 POP DUP1 PUSH1 0x10 PUSH1 0x0 DUP3 DUP3 SLOAD PUSH2 0x394B SWAP2 SWAP1 PUSH2 0x46ED JUMP JUMPDEST SWAP3 POP POP DUP2 SWAP1 SSTORE POP DUP2 PUSH1 0x11 PUSH1 0x0 DUP3 DUP3 SLOAD PUSH2 0x3964 SWAP2 SWAP1 PUSH2 0x46ED JUMP JUMPDEST SWAP3 POP POP DUP2 SWAP1 SSTORE POP POP POP POP JUMP JUMPDEST PUSH1 0x0 DUP1 PUSH1 0xFF DUP4 PUSH1 0x0 SHR AND SWAP1 POP PUSH1 0x1F DUP2 GT ISZERO PUSH2 0x39B7 JUMPI PUSH1 0x40 MLOAD PUSH32 0xB3512B0C00000000000000000000000000000000000000000000000000000000 DUP2 MSTORE PUSH1 0x4 ADD PUSH1 0x40 MLOAD DUP1 SWAP2 SUB SWAP1 REVERT JUMPDEST DUP1 SWAP2 POP POP SWAP2 SWAP1 POP JUMP JUMPDEST PUSH1 0x60 DUP2 SELFBALANCE LT ISZERO PUSH2 0x3A07 JUMPI ADDRESS PUSH1 0x40 MLOAD PUSH32 0xCD78605900000000000000000000000000000000000000000000000000000000 DUP2 MSTORE PUSH1 0x4 ADD PUSH2 0x39FE SWAP2 SWAP1 PUSH2 0x3F6C JUMP JUMPDEST PUSH1 0x40 MLOAD DUP1 SWAP2 SUB SWAP1 REVERT JUMPDEST PUSH1 0x0 DUP1 DUP6 PUSH20 0xFFFFFFFFFFFFFFFFFFFFFFFFFFFFFFFFFFFFFFFF AND DUP5 DUP7 PUSH1 0x40 MLOAD PUSH2 0x3A30 SWAP2 SWAP1 PUSH2 0x4DA7 JUMP JUMPDEST PUSH1 0x0 PUSH1 0x40 MLOAD DUP1 DUP4 SUB DUP2 DUP6 DUP8 GAS CALL SWAP3 POP POP POP RETURNDATASIZE DUP1 PUSH1 0x0 DUP2 EQ PUSH2 0x3A6D JUMPI PUSH1 0x40 MLOAD SWAP2 POP PUSH1 0x1F NOT PUSH1 0x3F RETURNDATASIZE ADD AND DUP3 ADD PUSH1 0x40 MSTORE RETURNDATASIZE DUP3 MSTORE RETURNDATASIZE PUSH1 0x0 PUSH1 0x20 DUP5 ADD RETURNDATACOPY PUSH2 0x3A72 JUMP JUMPDEST PUSH1 0x60 SWAP2 POP JUMPDEST POP SWAP2 POP SWAP2 POP PUSH2 0x3A82 DUP7 DUP4 DUP4 PUSH2 0x3A8D JUMP JUMPDEST SWAP3 POP POP POP SWAP4 SWAP3 POP POP POP JUMP JUMPDEST PUSH1 0x60 DUP3 PUSH2 0x3AA2 JUMPI PUSH2 0x3A9D DUP3 PUSH2 0x3B1C JUMP JUMPDEST PUSH2 0x3B14 JUMP JUMPDEST PUSH1 0x0 DUP3 MLOAD EQ DUP1 ISZERO PUSH2 0x3ACA JUMPI POP PUSH1 0x0 DUP5 PUSH20 0xFFFFFFFFFFFFFFFFFFFFFFFFFFFFFFFFFFFFFFFF AND EXTCODESIZE EQ JUMPDEST ISZERO PUSH2 0x3B0C JUMPI DUP4 PUSH1 0x40 MLOAD PUSH32 0x9996B31500000000000000000000000000000000000000000000000000000000 DUP2 MSTORE PUSH1 0x4 ADD PUSH2 0x3B03 SWAP2 SWAP1 PUSH2 0x3F6C JUMP JUMPDEST PUSH1 0x40 MLOAD DUP1 SWAP2 SUB SWAP1 REVERT JUMPDEST DUP2 SWAP1 POP PUSH2 0x3B15 JUMP JUMPDEST JUMPDEST SWAP4 SWAP3 POP POP POP JUMP JUMPDEST PUSH1 0x0 DUP2 MLOAD GT ISZERO PUSH2 0x3B2F JUMPI DUP1 MLOAD DUP1 DUP3 PUSH1 0x20 ADD REVERT JUMPDEST PUSH1 0x40 MLOAD PUSH32 0x1425EA4200000000000000000000000000000000000000000000000000000000 DUP2 MSTORE PUSH1 0x4 ADD PUSH1 0x40 MLOAD DUP1 SWAP2 SUB SWAP1 REVERT JUMPDEST PUSH1 0x0 DUP2 MLOAD SWAP1 POP SWAP2 SWAP1 POP JUMP JUMPDEST PUSH1 0x0 DUP3 DUP3 MSTORE PUSH1 0x20 DUP3 ADD SWAP1 POP SWAP3 SWAP2 POP POP JUMP JUMPDEST PUSH1 0x0 JUMPDEST DUP4 DUP2 LT ISZERO PUSH2 0x3B9B JUMPI DUP1 DUP3 ADD MLOAD DUP2 DUP5 ADD MSTORE PUSH1 0x20 DUP2 ADD SWAP1 POP PUSH2 0x3B80 JUMP JUMPDEST PUSH1 0x0 DUP5 DUP5 ADD MSTORE POP POP POP POP JUMP JUMPDEST PUSH1 0x0 PUSH1 0x1F NOT PUSH1 0x1F DUP4 ADD AND SWAP1 POP SWAP2 SWAP1 POP JUMP JUMPDEST PUSH1 0x0 PUSH2 0x3BC3 DUP3 PUSH2 0x3B61 JUMP JUMPDEST PUSH2 0x3BCD DUP2 DUP6 PUSH2 0x3B6C JUMP JUMPDEST SWAP4 POP PUSH2 0x3BDD DUP2 DUP6 PUSH1 0x20 DUP7 ADD PUSH2 0x3B7D JUMP JUMPDEST PUSH2 0x3BE6 DUP2 PUSH2 0x3BA7 JUMP JUMPDEST DUP5 ADD SWAP2 POP POP SWAP3 SWAP2 POP POP JUMP JUMPDEST PUSH1 0x0 PUSH1 0x20 DUP3 ADD SWAP1 POP DUP2 DUP2 SUB PUSH1 0x0 DUP4 ADD MSTORE PUSH2 0x3C0B DUP2 DUP5 PUSH2 0x3BB8 JUMP JUMPDEST SWAP1 POP SWAP3 SWAP2 POP POP JUMP JUMPDEST PUSH1 0x0 DUP1 REVERT JUMPDEST PUSH1 0x0 PUSH20 0xFFFFFFFFFFFFFFFFFFFFFFFFFFFFFFFFFFFFFFFF DUP3 AND SWAP1 POP SWAP2 SWAP1 POP JUMP JUMPDEST PUSH1 0x0 PUSH2 0x3C43 DUP3 PUSH2 0x3C18 JUMP JUMPDEST SWAP1 POP SWAP2 SWAP1 POP JUMP JUMPDEST PUSH2 0x3C53 DUP2 PUSH2 0x3C38 JUMP JUMPDEST DUP2 EQ PUSH2 0x3C5E JUMPI PUSH1 0x0 DUP1 REVERT JUMPDEST POP JUMP JUMPDEST PUSH1 0x0 DUP2 CALLDATALOAD SWAP1 POP PUSH2 0x3C70 DUP2 PUSH2 0x3C4A JUMP JUMPDEST SWAP3 SWAP2 POP POP JUMP JUMPDEST PUSH1 0x0 DUP2 SWAP1 POP SWAP2 SWAP1 POP JUMP JUMPDEST PUSH2 0x3C89 DUP2 PUSH2 0x3C76 JUMP JUMPDEST DUP2 EQ PUSH2 0x3C94 JUMPI PUSH1 0x0 DUP1 REVERT JUMPDEST POP JUMP JUMPDEST PUSH1 0x0 DUP2 CALLDATALOAD SWAP1 POP PUSH2 0x3CA6 DUP2 PUSH2 0x3C80 JUMP JUMPDEST SWAP3 SWAP2 POP POP JUMP JUMPDEST PUSH1 0x0 DUP1 PUSH1 0x40 DUP4 DUP6 SUB SLT ISZERO PUSH2 0x3CC3 JUMPI PUSH2 0x3CC2 PUSH2 0x3C13 JUMP JUMPDEST JUMPDEST PUSH1 0x0 PUSH2 0x3CD1 DUP6 DUP3 DUP7 ADD PUSH2 0x3C61 JUMP JUMPDEST SWAP3 POP POP PUSH1 0x20 PUSH2 0x3CE2 DUP6 DUP3 DUP7 ADD PUSH2 0x3C97 JUMP JUMPDEST SWAP2 POP POP SWAP3 POP SWAP3 SWAP1 POP JUMP JUMPDEST PUSH1 0x0 DUP2 ISZERO ISZERO SWAP1 POP SWAP2 SWAP1 POP JUMP JUMPDEST PUSH2 0x3D01 DUP2 PUSH2 0x3CEC JUMP JUMPDEST DUP3 MSTORE POP POP JUMP JUMPDEST PUSH1 0x0 PUSH1 0x20 DUP3 ADD SWAP1 POP PUSH2 0x3D1C PUSH1 0x0 DUP4 ADD DUP5 PUSH2 0x3CF8 JUMP JUMPDEST SWAP3 SWAP2 POP POP JUMP JUMPDEST PUSH1 0x0 PUSH1 0x20 DUP3 DUP5 SUB SLT ISZERO PUSH2 0x3D38 JUMPI PUSH2 0x3D37 PUSH2 0x3C13 JUMP JUMPDEST JUMPDEST PUSH1 0x0 PUSH2 0x3D46 DUP5 DUP3 DUP6 ADD PUSH2 0x3C61 JUMP JUMPDEST SWAP2 POP POP SWAP3 SWAP2 POP POP JUMP JUMPDEST PUSH2 0x3D58 DUP2 PUSH2 0x3C76 JUMP JUMPDEST DUP3 MSTORE POP POP JUMP JUMPDEST PUSH1 0x0 PUSH1 0x20 DUP3 ADD SWAP1 POP PUSH2 0x3D73 PUSH1 0x0 DUP4 ADD DUP5 PUSH2 0x3D4F JUMP JUMPDEST SWAP3 SWAP2 POP POP JUMP JUMPDEST PUSH1 0x0 DUP2 SWAP1 POP SWAP2 SWAP1 POP JUMP JUMPDEST PUSH1 0x0 PUSH2 0x3D9E PUSH2 0x3D99 PUSH2 0x3D94 DUP5 PUSH2 0x3C18 JUMP JUMPDEST PUSH2 0x3D79 JUMP JUMPDEST PUSH2 0x3C18 JUMP JUMPDEST SWAP1 POP SWAP2 SWAP1 POP JUMP JUMPDEST PUSH1 0x0 PUSH2 0x3DB0 DUP3 PUSH2 0x3D83 JUMP JUMPDEST SWAP1 POP SWAP2 SWAP1 POP JUMP JUMPDEST PUSH1 0x0 PUSH2 0x3DC2 DUP3 PUSH2 0x3DA5 JUMP JUMPDEST SWAP1 POP SWAP2 SWAP1 POP JUMP JUMPDEST PUSH2 0x3DD2 DUP2 PUSH2 0x3DB7 JUMP JUMPDEST DUP3 MSTORE POP POP JUMP JUMPDEST PUSH1 0x0 PUSH1 0x20 DUP3 ADD SWAP1 POP PUSH2 0x3DED PUSH1 0x0 DUP4 ADD DUP5 PUSH2 0x3DC9 JUMP JUMPDEST SWAP3 SWAP2 POP POP JUMP JUMPDEST PUSH1 0x0 DUP1 PUSH1 0x40 DUP4 DUP6 SUB SLT ISZERO PUSH2 0x3E0A JUMPI PUSH2 0x3E09 PUSH2 0x3C13 JUMP JUMPDEST JUMPDEST PUSH1 0x0 PUSH2 0x3E18 DUP6 DUP3 DUP7 ADD PUSH2 0x3C61 JUMP JUMPDEST SWAP3 POP POP PUSH1 0x20 PUSH2 0x3E29 DUP6 DUP3 DUP7 ADD PUSH2 0x3C61 JUMP JUMPDEST SWAP2 POP POP SWAP3 POP SWAP3 SWAP1 POP JUMP JUMPDEST PUSH1 0x0 DUP1 PUSH1 0x0 PUSH1 0x60 DUP5 DUP7 SUB SLT ISZERO PUSH2 0x3E4C JUMPI PUSH2 0x3E4B PUSH2 0x3C13 JUMP JUMPDEST JUMPDEST PUSH1 0x0 PUSH2 0x3E5A DUP7 DUP3 DUP8 ADD PUSH2 0x3C61 JUMP JUMPDEST SWAP4 POP POP PUSH1 0x20 PUSH2 0x3E6B DUP7 DUP3 DUP8 ADD PUSH2 0x3C61 JUMP JUMPDEST SWAP3 POP POP PUSH1 0x40 PUSH2 0x3E7C DUP7 DUP3 DUP8 ADD PUSH2 0x3C97 JUMP JUMPDEST SWAP2 POP POP SWAP3 POP SWAP3 POP SWAP3 JUMP JUMPDEST PUSH1 0x0 PUSH1 0xFF DUP3 AND SWAP1 POP SWAP2 SWAP1 POP JUMP JUMPDEST PUSH2 0x3E9C DUP2 PUSH2 0x3E86 JUMP JUMPDEST DUP3 MSTORE POP POP JUMP JUMPDEST PUSH1 0x0 PUSH1 0x20 DUP3 ADD SWAP1 POP PUSH2 0x3EB7 PUSH1 0x0 DUP4 ADD DUP5 PUSH2 0x3E93 JUMP JUMPDEST SWAP3 SWAP2 POP POP JUMP JUMPDEST PUSH1 0x0 DUP2 SWAP1 POP SWAP2 SWAP1 POP JUMP JUMPDEST PUSH2 0x3ED0 DUP2 PUSH2 0x3EBD JUMP JUMPDEST DUP3 MSTORE POP POP JUMP JUMPDEST PUSH1 0x0 PUSH1 0x20 DUP3 ADD SWAP1 POP PUSH2 0x3EEB PUSH1 0x0 DUP4 ADD DUP5 PUSH2 0x3EC7 JUMP JUMPDEST SWAP3 SWAP2 POP POP JUMP JUMPDEST PUSH2 0x3EFA DUP2 PUSH2 0x3CEC JUMP JUMPDEST DUP2 EQ PUSH2 0x3F05 JUMPI PUSH1 0x0 DUP1 REVERT JUMPDEST POP JUMP JUMPDEST PUSH1 0x0 DUP2 CALLDATALOAD SWAP1 POP PUSH2 0x3F17 DUP2 PUSH2 0x3EF1 JUMP JUMPDEST SWAP3 SWAP2 POP POP JUMP JUMPDEST PUSH1 0x0 DUP1 PUSH1 0x40 DUP4 DUP6 SUB SLT ISZERO PUSH2 0x3F34 JUMPI PUSH2 0x3F33 PUSH2 0x3C13 JUMP JUMPDEST JUMPDEST PUSH1 0x0 PUSH2 0x3F42 DUP6 DUP3 DUP7 ADD PUSH2 0x3C61 JUMP JUMPDEST SWAP3 POP POP PUSH1 0x20 PUSH2 0x3F53 DUP6 DUP3 DUP7 ADD PUSH2 0x3F08 JUMP JUMPDEST SWAP2 POP POP SWAP3 POP SWAP3 SWAP1 POP JUMP JUMPDEST PUSH2 0x3F66 DUP2 PUSH2 0x3C38 JUMP JUMPDEST DUP3 MSTORE POP POP JUMP JUMPDEST PUSH1 0x0 PUSH1 0x20 DUP3 ADD SWAP1 POP PUSH2 0x3F81 PUSH1 0x0 DUP4 ADD DUP5 PUSH2 0x3F5D JUMP JUMPDEST SWAP3 SWAP2 POP POP JUMP JUMPDEST PUSH1 0x0 DUP1 PUSH1 0x40 DUP4 DUP6 SUB SLT ISZERO PUSH2 0x3F9E JUMPI PUSH2 0x3F9D PUSH2 0x3C13 JUMP JUMPDEST JUMPDEST PUSH1 0x0 PUSH2 0x3FAC DUP6 DUP3 DUP7 ADD PUSH2 0x3C97 JUMP JUMPDEST SWAP3 POP POP PUSH1 0x20 PUSH2 0x3FBD DUP6 DUP3 DUP7 ADD PUSH2 0x3C97 JUMP JUMPDEST SWAP2 POP POP SWAP3 POP SWAP3 SWAP1 POP JUMP JUMPDEST PUSH1 0x0 PUSH1 0x20 DUP3 DUP5 SUB SLT ISZERO PUSH2 0x3FDD JUMPI PUSH2 0x3FDC PUSH2 0x3C13 JUMP JUMPDEST JUMPDEST PUSH1 0x0 PUSH2 0x3FEB DUP5 DUP3 DUP6 ADD PUSH2 0x3C97 JUMP JUMPDEST SWAP2 POP POP SWAP3 SWAP2 POP POP JUMP JUMPDEST PUSH1 0x0 PUSH32 0xFF00000000000000000000000000000000000000000000000000000000000000 DUP3 AND SWAP1 POP SWAP2 SWAP1 POP JUMP JUMPDEST PUSH2 0x4029 DUP2 PUSH2 0x3FF4 JUMP JUMPDEST DUP3 MSTORE POP POP JUMP JUMPDEST PUSH1 0x0 DUP2 MLOAD SWAP1 POP SWAP2 SWAP1 POP JUMP JUMPDEST PUSH1 0x0 DUP3 DUP3 MSTORE PUSH1 0x20 DUP3 ADD SWAP1 POP SWAP3 SWAP2 POP POP JUMP JUMPDEST PUSH1 0x0 DUP2 SWAP1 POP PUSH1 0x20 DUP3 ADD SWAP1 POP SWAP2 SWAP1 POP JUMP JUMPDEST PUSH2 0x4064 DUP2 PUSH2 0x3C76 JUMP JUMPDEST DUP3 MSTORE POP POP JUMP JUMPDEST PUSH1 0x0 PUSH2 0x4076 DUP4 DUP4 PUSH2 0x405B JUMP JUMPDEST PUSH1 0x20 DUP4 ADD SWAP1 POP SWAP3 SWAP2 POP POP JUMP JUMPDEST PUSH1 0x0 PUSH1 0x20 DUP3 ADD SWAP1 POP SWAP2 SWAP1 POP JUMP JUMPDEST PUSH1 0x0 PUSH2 0x409A DUP3 PUSH2 0x402F JUMP JUMPDEST PUSH2 0x40A4 DUP2 DUP6 PUSH2 0x403A JUMP JUMPDEST SWAP4 POP PUSH2 0x40AF DUP4 PUSH2 0x404B JUMP JUMPDEST DUP1 PUSH1 0x0 JUMPDEST DUP4 DUP2 LT ISZERO PUSH2 0x40E0 JUMPI DUP2 MLOAD PUSH2 0x40C7 DUP9 DUP3 PUSH2 0x406A JUMP JUMPDEST SWAP8 POP PUSH2 0x40D2 DUP4 PUSH2 0x4082 JUMP JUMPDEST SWAP3 POP POP PUSH1 0x1 DUP2 ADD SWAP1 POP PUSH2 0x40B3 JUMP JUMPDEST POP DUP6 SWAP4 POP POP POP POP SWAP3 SWAP2 POP POP JUMP JUMPDEST PUSH1 0x0 PUSH1 0xE0 DUP3 ADD SWAP1 POP PUSH2 0x4102 PUSH1 0x0 DUP4 ADD DUP11 PUSH2 0x4020 JUMP JUMPDEST DUP2 DUP2 SUB PUSH1 0x20 DUP4 ADD MSTORE PUSH2 0x4114 DUP2 DUP10 PUSH2 0x3BB8 JUMP JUMPDEST SWAP1 POP DUP2 DUP2 SUB PUSH1 0x40 DUP4 ADD MSTORE PUSH2 0x4128 DUP2 DUP9 PUSH2 0x3BB8 JUMP JUMPDEST SWAP1 POP PUSH2 0x4137 PUSH1 0x60 DUP4 ADD DUP8 PUSH2 0x3D4F JUMP JUMPDEST PUSH2 0x4144 PUSH1 0x80 DUP4 ADD DUP7 PUSH2 0x3F5D JUMP JUMPDEST PUSH2 0x4151 PUSH1 0xA0 DUP4 ADD DUP6 PUSH2 0x3EC7 JUMP JUMPDEST DUP2 DUP2 SUB PUSH1 0xC0 DUP4 ADD MSTORE PUSH2 0x4163 DUP2 DUP5 PUSH2 0x408F JUMP JUMPDEST SWAP1 POP SWAP9 SWAP8 POP POP POP POP POP POP POP POP JUMP JUMPDEST PUSH1 0x0 PUSH1 0x20 DUP3 DUP5 SUB SLT ISZERO PUSH2 0x4187 JUMPI PUSH2 0x4186 PUSH2 0x3C13 JUMP JUMPDEST JUMPDEST PUSH1 0x0 PUSH2 0x4195 DUP5 DUP3 DUP6 ADD PUSH2 0x3F08 JUMP JUMPDEST SWAP2 POP POP SWAP3 SWAP2 POP POP JUMP JUMPDEST PUSH1 0x0 DUP1 PUSH1 0x0 DUP1 PUSH1 0x80 DUP6 DUP8 SUB SLT ISZERO PUSH2 0x41B8 JUMPI PUSH2 0x41B7 PUSH2 0x3C13 JUMP JUMPDEST JUMPDEST PUSH1 0x0 PUSH2 0x41C6 DUP8 DUP3 DUP9 ADD PUSH2 0x3C97 JUMP JUMPDEST SWAP5 POP POP PUSH1 0x20 PUSH2 0x41D7 DUP8 DUP3 DUP9 ADD PUSH2 0x3C97 JUMP JUMPDEST SWAP4 POP POP PUSH1 0x40 PUSH2 0x41E8 DUP8 DUP3 DUP9 ADD PUSH2 0x3C97 JUMP JUMPDEST SWAP3 POP POP PUSH1 0x60 PUSH2 0x41F9 DUP8 DUP3 DUP9 ADD PUSH2 0x3C97 JUMP JUMPDEST SWAP2 POP POP SWAP3 SWAP6 SWAP2 SWAP5 POP SWAP3 POP JUMP JUMPDEST PUSH2 0x420E DUP2 PUSH2 0x3E86 JUMP JUMPDEST DUP2 EQ PUSH2 0x4219 JUMPI PUSH1 0x0 DUP1 REVERT JUMPDEST POP JUMP JUMPDEST PUSH1 0x0 DUP2 CALLDATALOAD SWAP1 POP PUSH2 0x422B DUP2 PUSH2 0x4205 JUMP JUMPDEST SWAP3 SWAP2 POP POP JUMP JUMPDEST PUSH2 0x423A DUP2 PUSH2 0x3EBD JUMP JUMPDEST DUP2 EQ PUSH2 0x4245 JUMPI PUSH1 0x0 DUP1 REVERT JUMPDEST POP JUMP JUMPDEST PUSH1 0x0 DUP2 CALLDATALOAD SWAP1 POP PUSH2 0x4257 DUP2 PUSH2 0x4231 JUMP JUMPDEST SWAP3 SWAP2 POP POP JUMP JUMPDEST PUSH1 0x0 DUP1 PUSH1 0x0 DUP1 PUSH1 0x0 DUP1 PUSH1 0x0 PUSH1 0xE0 DUP9 DUP11 SUB SLT ISZERO PUSH2 0x427C JUMPI PUSH2 0x427B PUSH2 0x3C13 JUMP JUMPDEST JUMPDEST PUSH1 0x0 PUSH2 0x428A DUP11 DUP3 DUP12 ADD PUSH2 0x3C61 JUMP JUMPDEST SWAP8 POP POP PUSH1 0x20 PUSH2 0x429B DUP11 DUP3 DUP12 ADD PUSH2 0x3C61 JUMP JUMPDEST SWAP7 POP POP PUSH1 0x40 PUSH2 0x42AC DUP11 DUP3 DUP12 ADD PUSH2 0x3C97 JUMP JUMPDEST SWAP6 POP POP PUSH1 0x60 PUSH2 0x42BD DUP11 DUP3 DUP12 ADD PUSH2 0x3C97 JUMP JUMPDEST SWAP5 POP POP PUSH1 0x80 PUSH2 0x42CE DUP11 DUP3 DUP12 ADD PUSH2 0x421C JUMP JUMPDEST SWAP4 POP POP PUSH1 0xA0 PUSH2 0x42DF DUP11 DUP3 DUP12 ADD PUSH2 0x4248 JUMP JUMPDEST SWAP3 POP POP PUSH1 0xC0 PUSH2 0x42F0 DUP11 DUP3 DUP12 ADD PUSH2 0x4248 JUMP JUMPDEST SWAP2 POP POP SWAP3 SWAP6 SWAP9 SWAP2 SWAP5 SWAP8 POP SWAP3 SWAP6 POP JUMP JUMPDEST PUSH1 0x0 PUSH2 0x430A DUP3 PUSH2 0x3DA5 JUMP JUMPDEST SWAP1 POP SWAP2 SWAP1 POP JUMP JUMPDEST PUSH2 0x431A DUP2 PUSH2 0x42FF JUMP JUMPDEST DUP3 MSTORE POP POP JUMP JUMPDEST PUSH1 0x0 PUSH1 0x20 DUP3 ADD SWAP1 POP PUSH2 0x4335 PUSH1 0x0 DUP4 ADD DUP5 PUSH2 0x4311 JUMP JUMPDEST SWAP3 SWAP2 POP POP JUMP JUMPDEST PUSH32 0x4E487B7100000000000000000000000000000000000000000000000000000000 PUSH1 0x0 MSTORE PUSH1 0x22 PUSH1 0x4 MSTORE PUSH1 0x24 PUSH1 0x0 REVERT JUMPDEST PUSH1 0x0 PUSH1 0x2 DUP3 DIV SWAP1 POP PUSH1 0x1 DUP3 AND DUP1 PUSH2 0x4382 JUMPI PUSH1 0x7F DUP3 AND SWAP2 POP JUMPDEST PUSH1 0x20 DUP3 LT DUP2 SUB PUSH2 0x4395 JUMPI PUSH2 0x4394 PUSH2 0x433B JUMP JUMPDEST JUMPDEST POP SWAP2 SWAP1 POP JUMP JUMPDEST PUSH32 0x4E6F206465762074617820617661696C61626C65000000000000000000000000 PUSH1 0x0 DUP3 ADD MSTORE POP JUMP JUMPDEST PUSH1 0x0 PUSH2 0x43D1 PUSH1 0x14 DUP4 PUSH2 0x3B6C JUMP JUMPDEST SWAP2 POP PUSH2 0x43DC DUP3 PUSH2 0x439B JUMP JUMPDEST PUSH1 0x20 DUP3 ADD SWAP1 POP SWAP2 SWAP1 POP JUMP JUMPDEST PUSH1 0x0 PUSH1 0x20 DUP3 ADD SWAP1 POP DUP2 DUP2 SUB PUSH1 0x0 DUP4 ADD MSTORE PUSH2 0x4400 DUP2 PUSH2 0x43C4 JUMP JUMPDEST SWAP1 POP SWAP2 SWAP1 POP JUMP JUMPDEST PUSH32 0x4E6F20636F6D6D756E6974792074617820617661696C61626C65000000000000 PUSH1 0x0 DUP3 ADD MSTORE POP JUMP JUMPDEST PUSH1 0x0 PUSH2 0x443D PUSH1 0x1A DUP4 PUSH2 0x3B6C JUMP JUMPDEST SWAP2 POP PUSH2 0x4448 DUP3 PUSH2 0x4407 JUMP JUMPDEST PUSH1 0x20 DUP3 ADD SWAP1 POP SWAP2 SWAP1 POP JUMP JUMPDEST PUSH1 0x0 PUSH1 0x20 DUP3 ADD SWAP1 POP DUP2 DUP2 SUB PUSH1 0x0 DUP4 ADD MSTORE PUSH2 0x446C DUP2 PUSH2 0x4430 JUMP JUMPDEST SWAP1 POP SWAP2 SWAP1 POP JUMP JUMPDEST PUSH32 0x496E76616C69642073656E646572000000000000000000000000000000000000 PUSH1 0x0 DUP3 ADD MSTORE POP JUMP JUMPDEST PUSH1 0x0 PUSH2 0x44A9 PUSH1 0xE DUP4 PUSH2 0x3B6C JUMP JUMPDEST SWAP2 POP PUSH2 0x44B4 DUP3 PUSH2 0x4473 JUMP JUMPDEST PUSH1 0x20 DUP3 ADD SWAP1 POP SWAP2 SWAP1 POP JUMP JUMPDEST PUSH1 0x0 PUSH1 0x20 DUP3 ADD SWAP1 POP DUP2 DUP2 SUB PUSH1 0x0 DUP4 ADD MSTORE PUSH2 0x44D8 DUP2 PUSH2 0x449C JUMP JUMPDEST SWAP1 POP SWAP2 SWAP1 POP JUMP JUMPDEST PUSH32 0x4E487B7100000000000000000000000000000000000000000000000000000000 PUSH1 0x0 MSTORE PUSH1 0x41 PUSH1 0x4 MSTORE PUSH1 0x24 PUSH1 0x0 REVERT JUMPDEST PUSH32 0x506F6F6C206E6F7420696E697469616C697A6564000000000000000000000000 PUSH1 0x0 DUP3 ADD MSTORE POP JUMP JUMPDEST PUSH1 0x0 PUSH2 0x4544 PUSH1 0x14 DUP4 PUSH2 0x3B6C JUMP JUMPDEST SWAP2 POP PUSH2 0x454F DUP3 PUSH2 0x450E JUMP JUMPDEST PUSH1 0x20 DUP3 ADD SWAP1 POP SWAP2 SWAP1 POP JUMP JUMPDEST PUSH1 0x0 PUSH1 0x20 DUP3 ADD SWAP1 POP DUP2 DUP2 SUB PUSH1 0x0 DUP4 ADD MSTORE PUSH2 0x4573 DUP2 PUSH2 0x4537 JUMP JUMPDEST SWAP1 POP SWAP2 SWAP1 POP JUMP JUMPDEST PUSH32 0x506F6F6C20616C726561647920696E697469616C697A65640000000000000000 PUSH1 0x0 DUP3 ADD MSTORE POP JUMP JUMPDEST PUSH1 0x0 PUSH2 0x45B0 PUSH1 0x18 DUP4 PUSH2 0x3B6C JUMP JUMPDEST SWAP2 POP PUSH2 0x45BB DUP3 PUSH2 0x457A JUMP JUMPDEST PUSH1 0x20 DUP3 ADD SWAP1 POP SWAP2 SWAP1 POP JUMP JUMPDEST PUSH1 0x0 PUSH1 0x20 DUP3 ADD SWAP1 POP DUP2 DUP2 SUB PUSH1 0x0 DUP4 ADD MSTORE PUSH2 0x45DF DUP2 PUSH2 0x45A3 JUMP JUMPDEST SWAP1 POP SWAP2 SWAP1 POP JUMP JUMPDEST PUSH32 0x4E6F2064657620746F6B656E20617661696C61626C6500000000000000000000 PUSH1 0x0 DUP3 ADD MSTORE POP JUMP JUMPDEST PUSH1 0x0 PUSH2 0x461C PUSH1 0x16 DUP4 PUSH2 0x3B6C JUMP JUMPDEST SWAP2 POP PUSH2 0x4627 DUP3 PUSH2 0x45E6 JUMP JUMPDEST PUSH1 0x20 DUP3 ADD SWAP1 POP SWAP2 SWAP1 POP JUMP JUMPDEST PUSH1 0x0 PUSH1 0x20 DUP3 ADD SWAP1 POP DUP2 DUP2 SUB PUSH1 0x0 DUP4 ADD MSTORE PUSH2 0x464B DUP2 PUSH2 0x460F JUMP JUMPDEST SWAP1 POP SWAP2 SWAP1 POP JUMP JUMPDEST PUSH32 0x546F6F2068696768207461780000000000000000000000000000000000000000 PUSH1 0x0 DUP3 ADD MSTORE POP JUMP JUMPDEST PUSH1 0x0 PUSH2 0x4688 PUSH1 0xC DUP4 PUSH2 0x3B6C JUMP JUMPDEST SWAP2 POP PUSH2 0x4693 DUP3 PUSH2 0x4652 JUMP JUMPDEST PUSH1 0x20 DUP3 ADD SWAP1 POP SWAP2 SWAP1 POP JUMP JUMPDEST PUSH1 0x0 PUSH1 0x20 DUP3 ADD SWAP1 POP DUP2 DUP2 SUB PUSH1 0x0 DUP4 ADD MSTORE PUSH2 0x46B7 DUP2 PUSH2 0x467B JUMP JUMPDEST SWAP1 POP SWAP2 SWAP1 POP JUMP JUMPDEST PUSH32 0x4E487B7100000000000000000000000000000000000000000000000000000000 PUSH1 0x0 MSTORE PUSH1 0x11 PUSH1 0x4 MSTORE PUSH1 0x24 PUSH1 0x0 REVERT JUMPDEST PUSH1 0x0 PUSH2 0x46F8 DUP3 PUSH2 0x3C76 JUMP JUMPDEST SWAP2 POP PUSH2 0x4703 DUP4 PUSH2 0x3C76 JUMP JUMPDEST SWAP3 POP DUP3 DUP3 ADD SWAP1 POP DUP1 DUP3 GT ISZERO PUSH2 0x471B JUMPI PUSH2 0x471A PUSH2 0x46BE JUMP JUMPDEST JUMPDEST SWAP3 SWAP2 POP POP JUMP JUMPDEST PUSH32 0x496E76616C69642070657263656E740000000000000000000000000000000000 PUSH1 0x0 DUP3 ADD MSTORE POP JUMP JUMPDEST PUSH1 0x0 PUSH2 0x4757 PUSH1 0xF DUP4 PUSH2 0x3B6C JUMP JUMPDEST SWAP2 POP PUSH2 0x4762 DUP3 PUSH2 0x4721 JUMP JUMPDEST PUSH1 0x20 DUP3 ADD SWAP1 POP SWAP2 SWAP1 POP JUMP JUMPDEST PUSH1 0x0 PUSH1 0x20 DUP3 ADD SWAP1 POP DUP2 DUP2 SUB PUSH1 0x0 DUP4 ADD MSTORE PUSH2 0x4786 DUP2 PUSH2 0x474A JUMP JUMPDEST SWAP1 POP SWAP2 SWAP1 POP JUMP JUMPDEST PUSH1 0x0 PUSH1 0x40 DUP3 ADD SWAP1 POP PUSH2 0x47A2 PUSH1 0x0 DUP4 ADD DUP6 PUSH2 0x3F5D JUMP JUMPDEST PUSH2 0x47AF PUSH1 0x20 DUP4 ADD DUP5 PUSH2 0x3CF8 JUMP JUMPDEST SWAP4 SWAP3 POP POP POP JUMP JUMPDEST PUSH1 0x0 PUSH1 0xC0 DUP3 ADD SWAP1 POP PUSH2 0x47CB PUSH1 0x0 DUP4 ADD DUP10 PUSH2 0x3EC7 JUMP JUMPDEST PUSH2 0x47D8 PUSH1 0x20 DUP4 ADD DUP9 PUSH2 0x3F5D JUMP JUMPDEST PUSH2 0x47E5 PUSH1 0x40 DUP4 ADD DUP8 PUSH2 0x3F5D JUMP JUMPDEST PUSH2 0x47F2 PUSH1 0x60 DUP4 ADD DUP7 PUSH2 0x3D4F JUMP JUMPDEST PUSH2 0x47FF PUSH1 0x80 DUP4 ADD DUP6 PUSH2 0x3D4F JUMP JUMPDEST PUSH2 0x480C PUSH1 0xA0 DUP4 ADD DUP5 PUSH2 0x3D4F JUMP JUMPDEST SWAP8 SWAP7 POP POP POP POP POP POP POP JUMP JUMPDEST PUSH1 0x0 PUSH1 0x40 DUP3 ADD SWAP1 POP PUSH2 0x482C PUSH1 0x0 DUP4 ADD DUP6 PUSH2 0x3F5D JUMP JUMPDEST PUSH2 0x4839 PUSH1 0x20 DUP4 ADD DUP5 PUSH2 0x3F5D JUMP JUMPDEST SWAP4 SWAP3 POP POP POP JUMP JUMPDEST PUSH32 0x43616E6E6F7420726573637565207468697320746F6B656E0000000000000000 PUSH1 0x0 DUP3 ADD MSTORE POP JUMP JUMPDEST PUSH1 0x0 PUSH2 0x4876 PUSH1 0x18 DUP4 PUSH2 0x3B6C JUMP JUMPDEST SWAP2 POP PUSH2 0x4881 DUP3 PUSH2 0x4840 JUMP JUMPDEST PUSH1 0x20 DUP3 ADD SWAP1 POP SWAP2 SWAP1 POP JUMP JUMPDEST PUSH1 0x0 PUSH1 0x20 DUP3 ADD SWAP1 POP DUP2 DUP2 SUB PUSH1 0x0 DUP4 ADD MSTORE PUSH2 0x48A5 DUP2 PUSH2 0x4869 JUMP JUMPDEST SWAP1 POP SWAP2 SWAP1 POP JUMP JUMPDEST PUSH1 0x0 DUP2 MLOAD SWAP1 POP PUSH2 0x48BB DUP2 PUSH2 0x3C80 JUMP JUMPDEST SWAP3 SWAP2 POP POP JUMP JUMPDEST PUSH1 0x0 PUSH1 0x20 DUP3 DUP5 SUB SLT ISZERO PUSH2 0x48D7 JUMPI PUSH2 0x48D6 PUSH2 0x3C13 JUMP JUMPDEST JUMPDEST PUSH1 0x0 PUSH2 0x48E5 DUP5 DUP3 DUP6 ADD PUSH2 0x48AC JUMP JUMPDEST SWAP2 POP POP SWAP3 SWAP2 POP POP JUMP JUMPDEST PUSH1 0x0 PUSH1 0x40 DUP3 ADD SWAP1 POP PUSH2 0x4903 PUSH1 0x0 DUP4 ADD DUP6 PUSH2 0x3F5D JUMP JUMPDEST PUSH2 0x4910 PUSH1 0x20 DUP4 ADD DUP5 PUSH2 0x3D4F JUMP JUMPDEST SWAP4 SWAP3 POP POP POP JUMP JUMPDEST PUSH1 0x0 PUSH1 0x60 DUP3 ADD SWAP1 POP PUSH2 0x492C PUSH1 0x0 DUP4 ADD DUP7 PUSH2 0x3F5D JUMP JUMPDEST PUSH2 0x4939 PUSH1 0x20 DUP4 ADD DUP6 PUSH2 0x3D4F JUMP JUMPDEST PUSH2 0x4946 PUSH1 0x40 DUP4 ADD DUP5 PUSH2 0x3D4F JUMP JUMPDEST SWAP5 SWAP4 POP POP POP POP JUMP JUMPDEST PUSH1 0x0 DUP2 SWAP1 POP SWAP2 SWAP1 POP JUMP JUMPDEST PUSH1 0x0 PUSH2 0x4973 PUSH2 0x496E PUSH2 0x4969 DUP5 PUSH2 0x494E JUMP JUMPDEST PUSH2 0x3D79 JUMP JUMPDEST PUSH2 0x3C76 JUMP JUMPDEST SWAP1 POP SWAP2 SWAP1 POP JUMP JUMPDEST PUSH2 0x4983 DUP2 PUSH2 0x4958 JUMP JUMPDEST DUP3 MSTORE POP POP JUMP JUMPDEST PUSH1 0x0 PUSH1 0xC0 DUP3 ADD SWAP1 POP PUSH2 0x499E PUSH1 0x0 DUP4 ADD DUP10 PUSH2 0x3F5D JUMP JUMPDEST PUSH2 0x49AB PUSH1 0x20 DUP4 ADD DUP9 PUSH2 0x3D4F JUMP JUMPDEST PUSH2 0x49B8 PUSH1 0x40 DUP4 ADD DUP8 PUSH2 0x497A JUMP JUMPDEST PUSH2 0x49C5 PUSH1 0x60 DUP4 ADD DUP7 PUSH2 0x497A JUMP JUMPDEST PUSH2 0x49D2 PUSH1 0x80 DUP4 ADD DUP6 PUSH2 0x3F5D JUMP JUMPDEST PUSH2 0x49DF PUSH1 0xA0 DUP4 ADD DUP5 PUSH2 0x3D4F JUMP JUMPDEST SWAP8 SWAP7 POP POP POP POP POP POP POP JUMP JUMPDEST PUSH1 0x0 DUP1 PUSH1 0x0 PUSH1 0x60 DUP5 DUP7 SUB SLT ISZERO PUSH2 0x4A03 JUMPI PUSH2 0x4A02 PUSH2 0x3C13 JUMP JUMPDEST JUMPDEST PUSH1 0x0 PUSH2 0x4A11 DUP7 DUP3 DUP8 ADD PUSH2 0x48AC JUMP JUMPDEST SWAP4 POP POP PUSH1 0x20 PUSH2 0x4A22 DUP7 DUP3 DUP8 ADD PUSH2 0x48AC JUMP JUMPDEST SWAP3 POP POP PUSH1 0x40 PUSH2 0x4A33 DUP7 DUP3 DUP8 ADD PUSH2 0x48AC JUMP JUMPDEST SWAP2 POP POP SWAP3 POP SWAP3 POP SWAP3 JUMP JUMPDEST PUSH1 0x0 PUSH2 0x4A48 DUP3 PUSH2 0x3C76 JUMP JUMPDEST SWAP2 POP PUSH2 0x4A53 DUP4 PUSH2 0x3C76 JUMP JUMPDEST SWAP3 POP DUP3 DUP3 SUB SWAP1 POP DUP2 DUP2 GT ISZERO PUSH2 0x4A6B JUMPI PUSH2 0x4A6A PUSH2 0x46BE JUMP JUMPDEST JUMPDEST SWAP3 SWAP2 POP POP JUMP JUMPDEST PUSH1 0x0 PUSH1 0xA0 DUP3 ADD SWAP1 POP PUSH2 0x4A86 PUSH1 0x0 DUP4 ADD DUP9 PUSH2 0x3EC7 JUMP JUMPDEST PUSH2 0x4A93 PUSH1 0x20 DUP4 ADD DUP8 PUSH2 0x3EC7 JUMP JUMPDEST PUSH2 0x4AA0 PUSH1 0x40 DUP4 ADD DUP7 PUSH2 0x3EC7 JUMP JUMPDEST PUSH2 0x4AAD PUSH1 0x60 DUP4 ADD DUP6 PUSH2 0x3D4F JUMP JUMPDEST PUSH2 0x4ABA PUSH1 0x80 DUP4 ADD DUP5 PUSH2 0x3F5D JUMP JUMPDEST SWAP7 SWAP6 POP POP POP POP POP POP JUMP JUMPDEST PUSH1 0x0 PUSH1 0x80 DUP3 ADD SWAP1 POP PUSH2 0x4AD9 PUSH1 0x0 DUP4 ADD DUP8 PUSH2 0x3EC7 JUMP JUMPDEST PUSH2 0x4AE6 PUSH1 0x20 DUP4 ADD DUP7 PUSH2 0x3E93 JUMP JUMPDEST PUSH2 0x4AF3 PUSH1 0x40 DUP4 ADD DUP6 PUSH2 0x3EC7 JUMP JUMPDEST PUSH2 0x4B00 PUSH1 0x60 DUP4 ADD DUP5 PUSH2 0x3EC7 JUMP JUMPDEST SWAP6 SWAP5 POP POP POP POP POP JUMP JUMPDEST PUSH32 0x4E487B7100000000000000000000000000000000000000000000000000000000 PUSH1 0x0 MSTORE PUSH1 0x21 PUSH1 0x4 MSTORE PUSH1 0x24 PUSH1 0x0 REVERT JUMPDEST PUSH1 0x0 DUP2 MLOAD SWAP1 POP PUSH2 0x4B47 DUP2 PUSH2 0x3EF1 JUMP JUMPDEST SWAP3 SWAP2 POP POP JUMP JUMPDEST PUSH1 0x0 PUSH1 0x20 DUP3 DUP5 SUB SLT ISZERO PUSH2 0x4B63 JUMPI PUSH2 0x4B62 PUSH2 0x3C13 JUMP JUMPDEST JUMPDEST PUSH1 0x0 PUSH2 0x4B71 DUP5 DUP3 DUP6 ADD PUSH2 0x4B38 JUMP JUMPDEST SWAP2 POP POP SWAP3 SWAP2 POP POP JUMP JUMPDEST PUSH32 0x426F74206C6F636B656400000000000000000000000000000000000000000000 PUSH1 0x0 DUP3 ADD MSTORE POP JUMP JUMPDEST PUSH1 0x0 PUSH2 0x4BB0 PUSH1 0xA DUP4 PUSH2 0x3B6C JUMP JUMPDEST SWAP2 POP PUSH2 0x4BBB DUP3 PUSH2 0x4B7A JUMP JUMPDEST PUSH1 0x20 DUP3 ADD SWAP1 POP SWAP2 SWAP1 POP JUMP JUMPDEST PUSH1 0x0 PUSH1 0x20 DUP3 ADD SWAP1 POP DUP2 DUP2 SUB PUSH1 0x0 DUP4 ADD MSTORE PUSH2 0x4BDF DUP2 PUSH2 0x4BA3 JUMP JUMPDEST SWAP1 POP SWAP2 SWAP1 POP JUMP JUMPDEST PUSH32 0x4D617820746F6B656E2070657220747800000000000000000000000000000000 PUSH1 0x0 DUP3 ADD MSTORE POP JUMP JUMPDEST PUSH1 0x0 PUSH2 0x4C1C PUSH1 0x10 DUP4 PUSH2 0x3B6C JUMP JUMPDEST SWAP2 POP PUSH2 0x4C27 DUP3 PUSH2 0x4BE6 JUMP JUMPDEST PUSH1 0x20 DUP3 ADD SWAP1 POP SWAP2 SWAP1 POP JUMP JUMPDEST PUSH1 0x0 PUSH1 0x20 DUP3 ADD SWAP1 POP DUP2 DUP2 SUB PUSH1 0x0 DUP4 ADD MSTORE PUSH2 0x4C4B DUP2 PUSH2 0x4C0F JUMP JUMPDEST SWAP1 POP SWAP2 SWAP1 POP JUMP JUMPDEST PUSH1 0x0 PUSH2 0x4C5D DUP3 PUSH2 0x3C76 JUMP JUMPDEST SWAP2 POP PUSH2 0x4C68 DUP4 PUSH2 0x3C76 JUMP JUMPDEST SWAP3 POP DUP3 DUP3 MUL PUSH2 0x4C76 DUP2 PUSH2 0x3C76 JUMP JUMPDEST SWAP2 POP DUP3 DUP3 DIV DUP5 EQ DUP4 ISZERO OR PUSH2 0x4C8D JUMPI PUSH2 0x4C8C PUSH2 0x46BE JUMP JUMPDEST JUMPDEST POP SWAP3 SWAP2 POP POP JUMP JUMPDEST PUSH32 0x4E487B7100000000000000000000000000000000000000000000000000000000 PUSH1 0x0 MSTORE PUSH1 0x12 PUSH1 0x4 MSTORE PUSH1 0x24 PUSH1 0x0 REVERT JUMPDEST PUSH1 0x0 PUSH2 0x4CCE DUP3 PUSH2 0x3C76 JUMP JUMPDEST SWAP2 POP PUSH2 0x4CD9 DUP4 PUSH2 0x3C76 JUMP JUMPDEST SWAP3 POP DUP3 PUSH2 0x4CE9 JUMPI PUSH2 0x4CE8 PUSH2 0x4C94 JUMP JUMPDEST JUMPDEST DUP3 DUP3 DIV SWAP1 POP SWAP3 SWAP2 POP POP JUMP JUMPDEST PUSH32 0x4D617820746F6B656E20706572206163636F756E740000000000000000000000 PUSH1 0x0 DUP3 ADD MSTORE POP JUMP JUMPDEST PUSH1 0x0 PUSH2 0x4D2A PUSH1 0x15 DUP4 PUSH2 0x3B6C JUMP JUMPDEST SWAP2 POP PUSH2 0x4D35 DUP3 PUSH2 0x4CF4 JUMP JUMPDEST PUSH1 0x20 DUP3 ADD SWAP1 POP SWAP2 SWAP1 POP JUMP JUMPDEST PUSH1 0x0 PUSH1 0x20 DUP3 ADD SWAP1 POP DUP2 DUP2 SUB PUSH1 0x0 DUP4 ADD MSTORE PUSH2 0x4D59 DUP2 PUSH2 0x4D1D JUMP JUMPDEST SWAP1 POP SWAP2 SWAP1 POP JUMP JUMPDEST PUSH1 0x0 DUP2 MLOAD SWAP1 POP SWAP2 SWAP1 POP JUMP JUMPDEST PUSH1 0x0 DUP2 SWAP1 POP SWAP3 SWAP2 POP POP JUMP JUMPDEST PUSH1 0x0 PUSH2 0x4D81 DUP3 PUSH2 0x4D60 JUMP JUMPDEST PUSH2 0x4D8B DUP2 DUP6 PUSH2 0x4D6B JUMP JUMPDEST SWAP4 POP PUSH2 0x4D9B DUP2 DUP6 PUSH1 0x20 DUP7 ADD PUSH2 0x3B7D JUMP JUMPDEST DUP1 DUP5 ADD SWAP2 POP POP SWAP3 SWAP2 POP POP JUMP JUMPDEST PUSH1 0x0 PUSH2 0x4DB3 DUP3 DUP5 PUSH2 0x4D76 JUMP JUMPDEST SWAP2 POP DUP2 SWAP1 POP SWAP3 SWAP2 POP POP JUMP INVALID LOG2 PUSH5 0x6970667358 0x22 SLT KECCAK256 DUP2 GT 0x28 LOG3 PUSH18 0xF25DABA917B069CDD63CE04C83ED1C047B52 0xB6 SMOD SLT SIGNEXTEND 0xB3 0xDB 0x2D CALLER PUSH10 0x64736F6C634300081800 CALLER "},"methodIdentifiers":{"ANTI_BOT_DETECT_DURATION()":"3014ba1b","ANTI_BOT_LOCK_DURATION()":"72854d9d","DOMAIN_SEPARATOR()":"3644e515","addLiquidity(uint256,uint256)":"9cd441da","allowance(address,address)":"dd62ed3e","approve(address,uint256)":"095ea7b3","balanceOf(address)":"70a08231","blastGasModeContract()":"fd4adc6a","botBuyTimes(address)":"e86bf164","burn(uint256)":"42966c68","burnFrom(address,uint256)":"79cc6790","buyTaxPercent()":"7df405a4","changeTaxPercent(uint256,uint256,uint256,uint256)":"c0654efd","claimCommunityTax()":"846ee64f","claimDevTax()":"1a79444e","claimDevToken()":"b46a8022","claimGasFee(address)":"ee0f6601","communityAddress()":"86e476dd","communityPercent()":"844284d7","communityTaxTokenAmountAvailable()":"2b0d6c37","configBlastPointsOperator(address,address)":"b53d7c97","decimals()":"313ce567","devPercent()":"fc3c28af","devTaxReceiverAddress()":"3d740c2b","devTaxTokenAmountAvailable()":"a6c2a788","devTokenAmountClaimable()":"0f1293b0","devTokenAmountRemain()":"eaa4560d","devTokenReceiverAddress()":"4f02632b","eip712Domain()":"84b0196e","excludeFromTaxes(address)":"131e00b7","initPool(uint256,uint256)":"9e1b0045","limitEnabled()":"6d800a3c","liquidityPools(address)":"0b0fd47e","maxAmountPerAccount()":"48077144","maxAmountPerTx()":"85b27c85","name()":"06fdde03","nonces(address)":"7ecebe00","owner()":"8da5cb5b","permit(address,address,uint256,uint256,uint8,bytes32,bytes32)":"d505accf","renounceOwnership()":"715018a6","rescueETH(uint256)":"9e252f00","rescueToken(address,address,uint256)":"e5711e8b","sellTaxPercent()":"6fb1896c","setCommunityAddress(address)":"f7ce4479","setDevAddress(address,address)":"194c6407","setExcludeFromTax(address,bool)":"39fb86c5","setLimitConfig(uint256,uint256)":"420d39f0","setLimitEnabled(bool)":"9da793d0","setLiquidityPool(address,bool)":"c29c669a","setUnlimited(address,bool)":"a0b2fb85","startPoolTime()":"139adacc","symbol()":"95d89b41","totalSupply()":"18160ddd","tradeVolume()":"e08e8f88","transfer(address,uint256)":"a9059cbb","transferFrom(address,address,uint256)":"23b872dd","transferOwnership(address)":"f2fde38b","uniswapV2Pair()":"49bd5a5e","uniswapV2Router()":"1694505e","unlimiteds(address)":"31446125"}}}}}